{"abi":[{"inputs":[{"internalType":"string","name":"_nullifier_hash","type":"string"}],"stateMutability":"nonpayable","type":"constructor"},{"inputs":[],"name":"nullifier_hash","outputs":[{"internalType":"string","name":"","type":"string"}],"stateMutability":"view","type":"function"},{"inputs":[],"name":"owner","outputs":[{"internalType":"address","name":"","type":"address"}],"stateMutability":"view","type":"function"},{"inputs":[{"internalType":"address","name":"","type":"address"}],"name":"referenceCheckHistory","outputs":[{"internalType":"bool","name":"_verified","type":"bool"}],"stateMutability":"view","type":"function"},{"inputs":[{"internalType":"address","name":"companyAddress","type":"address"},{"internalType":"bool","name":"verified","type":"bool"}],"name":"storeResult","outputs":[],"stateMutability":"nonpayable","type":"function"},{"inputs":[{"internalType":"address","name":"companyAddress","type":"address"}],"name":"submitRequest","outputs":[],"stateMutability":"nonpayable","type":"function"}],"devdoc":{"kind":"dev","methods":{},"version":1},"evm":{"assembly":"    /* \"Employee.sol\":59:1139  contract Employee {... */\n  mstore(0x40, 0x80)\n    /* \"Employee.sol\":376:496  constructor(string memory _nullifier_hash) {... */\n  callvalue\n  dup1\n  iszero\n  tag_1\n  jumpi\n  0x00\n  dup1\n  revert\ntag_1:\n  pop\n  mload(0x40)\n  sub(codesize, bytecodeSize)\n  dup1\n  bytecodeSize\n  dup4\n  codecopy\n  dup2\n  dup2\n  add\n  0x40\n  mstore\n  dup2\n  add\n  swap1\n  tag_2\n  swap2\n  swap1\n  tag_3\n  jump\t// in\ntag_2:\n    /* \"Employee.sol\":446:461  _nullifier_hash */\n  dup1\n    /* \"Employee.sol\":429:443  nullifier_hash */\n  0x01\n    /* \"Employee.sol\":429:461  nullifier_hash = _nullifier_hash */\n  swap1\n  dup2\n  tag_6\n  swap2\n  swap1\n  tag_7\n  jump\t// in\ntag_6:\n  pop\n    /* \"Employee.sol\":479:489  msg.sender */\n  caller\n    /* \"Employee.sol\":471:476  owner */\n  0x00\n  dup1\n    /* \"Employee.sol\":471:489  owner = msg.sender */\n  0x0100\n  exp\n  dup2\n  sload\n  dup2\n  0xffffffffffffffffffffffffffffffffffffffff\n  mul\n  not\n  and\n  swap1\n  dup4\n  0xffffffffffffffffffffffffffffffffffffffff\n  and\n  mul\n  or\n  swap1\n  sstore\n  pop\n    /* \"Employee.sol\":376:496  constructor(string memory _nullifier_hash) {... */\n  pop\n    /* \"Employee.sol\":59:1139  contract Employee {... */\n  jump(tag_8)\n    /* \"#utility.yul\":7:82   */\ntag_9:\n    /* \"#utility.yul\":40:46   */\n  0x00\n    /* \"#utility.yul\":73:75   */\n  0x40\n    /* \"#utility.yul\":67:76   */\n  mload\n    /* \"#utility.yul\":57:76   */\n  swap1\n  pop\n    /* \"#utility.yul\":7:82   */\n  swap1\n  jump\t// out\n    /* \"#utility.yul\":88:205   */\ntag_10:\n    /* \"#utility.yul\":197:198   */\n  0x00\n    /* \"#utility.yul\":194:195   */\n  dup1\n    /* \"#utility.yul\":187:199   */\n  revert\n    /* \"#utility.yul\":211:328   */\ntag_11:\n    /* \"#utility.yul\":320:321   */\n  0x00\n    /* \"#utility.yul\":317:318   */\n  dup1\n    /* \"#utility.yul\":310:322   */\n  revert\n    /* \"#utility.yul\":334:451   */\ntag_12:\n    /* \"#utility.yul\":443:444   */\n  0x00\n    /* \"#utility.yul\":440:441   */\n  dup1\n    /* \"#utility.yul\":433:445   */\n  revert\n    /* \"#utility.yul\":457:574   */\ntag_13:\n    /* \"#utility.yul\":566:567   */\n  0x00\n    /* \"#utility.yul\":563:564   */\n  dup1\n    /* \"#utility.yul\":556:568   */\n  revert\n    /* \"#utility.yul\":580:682   */\ntag_14:\n    /* \"#utility.yul\":621:627   */\n  0x00\n    /* \"#utility.yul\":672:674   */\n  0x1f\n    /* \"#utility.yul\":668:675   */\n  not\n    /* \"#utility.yul\":663:665   */\n  0x1f\n    /* \"#utility.yul\":656:661   */\n  dup4\n    /* \"#utility.yul\":652:666   */\n  add\n    /* \"#utility.yul\":648:676   */\n  and\n    /* \"#utility.yul\":638:676   */\n  swap1\n  pop\n    /* \"#utility.yul\":580:682   */\n  swap2\n  swap1\n  pop\n  jump\t// out\n    /* \"#utility.yul\":688:868   */\ntag_15:\n    /* \"#utility.yul\":736:813   */\n  0x4e487b7100000000000000000000000000000000000000000000000000000000\n    /* \"#utility.yul\":733:734   */\n  0x00\n    /* \"#utility.yul\":726:814   */\n  mstore\n    /* \"#utility.yul\":833:837   */\n  0x41\n    /* \"#utility.yul\":830:831   */\n  0x04\n    /* \"#utility.yul\":823:838   */\n  mstore\n    /* \"#utility.yul\":857:861   */\n  0x24\n    /* \"#utility.yul\":854:855   */\n  0x00\n    /* \"#utility.yul\":847:862   */\n  revert\n    /* \"#utility.yul\":874:1155   */\ntag_16:\n    /* \"#utility.yul\":957:984   */\n  tag_50\n    /* \"#utility.yul\":979:983   */\n  dup3\n    /* \"#utility.yul\":957:984   */\n  tag_14\n  jump\t// in\ntag_50:\n    /* \"#utility.yul\":949:955   */\n  dup2\n    /* \"#utility.yul\":945:985   */\n  add\n    /* \"#utility.yul\":1087:1093   */\n  dup2\n    /* \"#utility.yul\":1075:1085   */\n  dup2\n    /* \"#utility.yul\":1072:1094   */\n  lt\n    /* \"#utility.yul\":1051:1069   */\n  0xffffffffffffffff\n    /* \"#utility.yul\":1039:1049   */\n  dup3\n    /* \"#utility.yul\":1036:1070   */\n  gt\n    /* \"#utility.yul\":1033:1095   */\n  or\n    /* \"#utility.yul\":1030:1118   */\n  iszero\n  tag_51\n  jumpi\n    /* \"#utility.yul\":1098:1116   */\n  tag_52\n  tag_15\n  jump\t// in\ntag_52:\n    /* \"#utility.yul\":1030:1118   */\ntag_51:\n    /* \"#utility.yul\":1138:1148   */\n  dup1\n    /* \"#utility.yul\":1134:1136   */\n  0x40\n    /* \"#utility.yul\":1127:1149   */\n  mstore\n    /* \"#utility.yul\":917:1155   */\n  pop\n    /* \"#utility.yul\":874:1155   */\n  pop\n  pop\n  jump\t// out\n    /* \"#utility.yul\":1161:1290   */\ntag_17:\n    /* \"#utility.yul\":1195:1201   */\n  0x00\n    /* \"#utility.yul\":1222:1242   */\n  tag_54\n  tag_9\n  jump\t// in\ntag_54:\n    /* \"#utility.yul\":1212:1242   */\n  swap1\n  pop\n    /* \"#utility.yul\":1251:1284   */\n  tag_55\n    /* \"#utility.yul\":1279:1283   */\n  dup3\n    /* \"#utility.yul\":1271:1277   */\n  dup3\n    /* \"#utility.yul\":1251:1284   */\n  tag_16\n  jump\t// in\ntag_55:\n    /* \"#utility.yul\":1161:1290   */\n  swap2\n  swap1\n  pop\n  jump\t// out\n    /* \"#utility.yul\":1296:1604   */\ntag_18:\n    /* \"#utility.yul\":1358:1362   */\n  0x00\n    /* \"#utility.yul\":1448:1466   */\n  0xffffffffffffffff\n    /* \"#utility.yul\":1440:1446   */\n  dup3\n    /* \"#utility.yul\":1437:1467   */\n  gt\n    /* \"#utility.yul\":1434:1490   */\n  iszero\n  tag_57\n  jumpi\n    /* \"#utility.yul\":1470:1488   */\n  tag_58\n  tag_15\n  jump\t// in\ntag_58:\n    /* \"#utility.yul\":1434:1490   */\ntag_57:\n    /* \"#utility.yul\":1508:1537   */\n  tag_59\n    /* \"#utility.yul\":1530:1536   */\n  dup3\n    /* \"#utility.yul\":1508:1537   */\n  tag_14\n  jump\t// in\ntag_59:\n    /* \"#utility.yul\":1500:1537   */\n  swap1\n  pop\n    /* \"#utility.yul\":1592:1596   */\n  0x20\n    /* \"#utility.yul\":1586:1590   */\n  dup2\n    /* \"#utility.yul\":1582:1597   */\n  add\n    /* \"#utility.yul\":1574:1597   */\n  swap1\n  pop\n    /* \"#utility.yul\":1296:1604   */\n  swap2\n  swap1\n  pop\n  jump\t// out\n    /* \"#utility.yul\":1610:1749   */\ntag_19:\n    /* \"#utility.yul\":1699:1705   */\n  dup3\n    /* \"#utility.yul\":1694:1697   */\n  dup2\n    /* \"#utility.yul\":1689:1692   */\n  dup4\n    /* \"#utility.yul\":1683:1706   */\n  mcopy\n    /* \"#utility.yul\":1740:1741   */\n  0x00\n    /* \"#utility.yul\":1731:1737   */\n  dup4\n    /* \"#utility.yul\":1726:1729   */\n  dup4\n    /* \"#utility.yul\":1722:1738   */\n  add\n    /* \"#utility.yul\":1715:1742   */\n  mstore\n    /* \"#utility.yul\":1610:1749   */\n  pop\n  pop\n  pop\n  jump\t// out\n    /* \"#utility.yul\":1755:2189   */\ntag_20:\n    /* \"#utility.yul\":1844:1849   */\n  0x00\n    /* \"#utility.yul\":1869:1935   */\n  tag_62\n    /* \"#utility.yul\":1885:1934   */\n  tag_63\n    /* \"#utility.yul\":1927:1933   */\n  dup5\n    /* \"#utility.yul\":1885:1934   */\n  tag_18\n  jump\t// in\ntag_63:\n    /* \"#utility.yul\":1869:1935   */\n  tag_17\n  jump\t// in\ntag_62:\n    /* \"#utility.yul\":1860:1935   */\n  swap1\n  pop\n    /* \"#utility.yul\":1958:1964   */\n  dup3\n    /* \"#utility.yul\":1951:1956   */\n  dup2\n    /* \"#utility.yul\":1944:1965   */\n  mstore\n    /* \"#utility.yul\":1996:2000   */\n  0x20\n    /* \"#utility.yul\":1989:1994   */\n  dup2\n    /* \"#utility.yul\":1985:2001   */\n  add\n    /* \"#utility.yul\":2034:2037   */\n  dup5\n    /* \"#utility.yul\":2025:2031   */\n  dup5\n    /* \"#utility.yul\":2020:2023   */\n  dup5\n    /* \"#utility.yul\":2016:2032   */\n  add\n    /* \"#utility.yul\":2013:2038   */\n  gt\n    /* \"#utility.yul\":2010:2122   */\n  iszero\n  tag_64\n  jumpi\n    /* \"#utility.yul\":2041:2120   */\n  tag_65\n  tag_13\n  jump\t// in\ntag_65:\n    /* \"#utility.yul\":2010:2122   */\ntag_64:\n    /* \"#utility.yul\":2131:2183   */\n  tag_66\n    /* \"#utility.yul\":2176:2182   */\n  dup5\n    /* \"#utility.yul\":2171:2174   */\n  dup3\n    /* \"#utility.yul\":2166:2169   */\n  dup6\n    /* \"#utility.yul\":2131:2183   */\n  tag_19\n  jump\t// in\ntag_66:\n    /* \"#utility.yul\":1850:2189   */\n  pop\n    /* \"#utility.yul\":1755:2189   */\n  swap4\n  swap3\n  pop\n  pop\n  pop\n  jump\t// out\n    /* \"#utility.yul\":2209:2564   */\ntag_21:\n    /* \"#utility.yul\":2276:2281   */\n  0x00\n    /* \"#utility.yul\":2325:2328   */\n  dup3\n    /* \"#utility.yul\":2318:2322   */\n  0x1f\n    /* \"#utility.yul\":2310:2316   */\n  dup4\n    /* \"#utility.yul\":2306:2323   */\n  add\n    /* \"#utility.yul\":2302:2329   */\n  slt\n    /* \"#utility.yul\":2292:2414   */\n  tag_68\n  jumpi\n    /* \"#utility.yul\":2333:2412   */\n  tag_69\n  tag_12\n  jump\t// in\ntag_69:\n    /* \"#utility.yul\":2292:2414   */\ntag_68:\n    /* \"#utility.yul\":2443:2449   */\n  dup2\n    /* \"#utility.yul\":2437:2450   */\n  mload\n    /* \"#utility.yul\":2468:2558   */\n  tag_70\n    /* \"#utility.yul\":2554:2557   */\n  dup5\n    /* \"#utility.yul\":2546:2552   */\n  dup3\n    /* \"#utility.yul\":2539:2543   */\n  0x20\n    /* \"#utility.yul\":2531:2537   */\n  dup7\n    /* \"#utility.yul\":2527:2544   */\n  add\n    /* \"#utility.yul\":2468:2558   */\n  tag_20\n  jump\t// in\ntag_70:\n    /* \"#utility.yul\":2459:2558   */\n  swap2\n  pop\n    /* \"#utility.yul\":2282:2564   */\n  pop\n    /* \"#utility.yul\":2209:2564   */\n  swap3\n  swap2\n  pop\n  pop\n  jump\t// out\n    /* \"#utility.yul\":2570:3094   */\ntag_3:\n    /* \"#utility.yul\":2650:2656   */\n  0x00\n    /* \"#utility.yul\":2699:2701   */\n  0x20\n    /* \"#utility.yul\":2687:2696   */\n  dup3\n    /* \"#utility.yul\":2678:2685   */\n  dup5\n    /* \"#utility.yul\":2674:2697   */\n  sub\n    /* \"#utility.yul\":2670:2702   */\n  slt\n    /* \"#utility.yul\":2667:2786   */\n  iszero\n  tag_72\n  jumpi\n    /* \"#utility.yul\":2705:2784   */\n  tag_73\n  tag_10\n  jump\t// in\ntag_73:\n    /* \"#utility.yul\":2667:2786   */\ntag_72:\n    /* \"#utility.yul\":2846:2847   */\n  0x00\n    /* \"#utility.yul\":2835:2844   */\n  dup3\n    /* \"#utility.yul\":2831:2848   */\n  add\n    /* \"#utility.yul\":2825:2849   */\n  mload\n    /* \"#utility.yul\":2876:2894   */\n  0xffffffffffffffff\n    /* \"#utility.yul\":2868:2874   */\n  dup2\n    /* \"#utility.yul\":2865:2895   */\n  gt\n    /* \"#utility.yul\":2862:2979   */\n  iszero\n  tag_74\n  jumpi\n    /* \"#utility.yul\":2898:2977   */\n  tag_75\n  tag_11\n  jump\t// in\ntag_75:\n    /* \"#utility.yul\":2862:2979   */\ntag_74:\n    /* \"#utility.yul\":3003:3077   */\n  tag_76\n    /* \"#utility.yul\":3069:3076   */\n  dup5\n    /* \"#utility.yul\":3060:3066   */\n  dup3\n    /* \"#utility.yul\":3049:3058   */\n  dup6\n    /* \"#utility.yul\":3045:3067   */\n  add\n    /* \"#utility.yul\":3003:3077   */\n  tag_21\n  jump\t// in\ntag_76:\n    /* \"#utility.yul\":2993:3077   */\n  swap2\n  pop\n    /* \"#utility.yul\":2796:3087   */\n  pop\n    /* \"#utility.yul\":2570:3094   */\n  swap3\n  swap2\n  pop\n  pop\n  jump\t// out\n    /* \"#utility.yul\":3100:3199   */\ntag_22:\n    /* \"#utility.yul\":3152:3158   */\n  0x00\n    /* \"#utility.yul\":3186:3191   */\n  dup2\n    /* \"#utility.yul\":3180:3192   */\n  mload\n    /* \"#utility.yul\":3170:3192   */\n  swap1\n  pop\n    /* \"#utility.yul\":3100:3199   */\n  swap2\n  swap1\n  pop\n  jump\t// out\n    /* \"#utility.yul\":3205:3385   */\ntag_23:\n    /* \"#utility.yul\":3253:3330   */\n  0x4e487b7100000000000000000000000000000000000000000000000000000000\n    /* \"#utility.yul\":3250:3251   */\n  0x00\n    /* \"#utility.yul\":3243:3331   */\n  mstore\n    /* \"#utility.yul\":3350:3354   */\n  0x22\n    /* \"#utility.yul\":3347:3348   */\n  0x04\n    /* \"#utility.yul\":3340:3355   */\n  mstore\n    /* \"#utility.yul\":3374:3378   */\n  0x24\n    /* \"#utility.yul\":3371:3372   */\n  0x00\n    /* \"#utility.yul\":3364:3379   */\n  revert\n    /* \"#utility.yul\":3391:3711   */\ntag_24:\n    /* \"#utility.yul\":3435:3441   */\n  0x00\n    /* \"#utility.yul\":3472:3473   */\n  0x02\n    /* \"#utility.yul\":3466:3470   */\n  dup3\n    /* \"#utility.yul\":3462:3474   */\n  div\n    /* \"#utility.yul\":3452:3474   */\n  swap1\n  pop\n    /* \"#utility.yul\":3519:3520   */\n  0x01\n    /* \"#utility.yul\":3513:3517   */\n  dup3\n    /* \"#utility.yul\":3509:3521   */\n  and\n    /* \"#utility.yul\":3540:3558   */\n  dup1\n    /* \"#utility.yul\":3530:3611   */\n  tag_80\n  jumpi\n    /* \"#utility.yul\":3596:3600   */\n  0x7f\n    /* \"#utility.yul\":3588:3594   */\n  dup3\n    /* \"#utility.yul\":3584:3601   */\n  and\n    /* \"#utility.yul\":3574:3601   */\n  swap2\n  pop\n    /* \"#utility.yul\":3530:3611   */\ntag_80:\n    /* \"#utility.yul\":3658:3660   */\n  0x20\n    /* \"#utility.yul\":3650:3656   */\n  dup3\n    /* \"#utility.yul\":3647:3661   */\n  lt\n    /* \"#utility.yul\":3627:3645   */\n  dup2\n    /* \"#utility.yul\":3624:3662   */\n  sub\n    /* \"#utility.yul\":3621:3705   */\n  tag_81\n  jumpi\n    /* \"#utility.yul\":3677:3695   */\n  tag_82\n  tag_23\n  jump\t// in\ntag_82:\n    /* \"#utility.yul\":3621:3705   */\ntag_81:\n    /* \"#utility.yul\":3442:3711   */\n  pop\n    /* \"#utility.yul\":3391:3711   */\n  swap2\n  swap1\n  pop\n  jump\t// out\n    /* \"#utility.yul\":3717:3858   */\ntag_25:\n    /* \"#utility.yul\":3766:3770   */\n  0x00\n    /* \"#utility.yul\":3789:3792   */\n  dup2\n    /* \"#utility.yul\":3781:3792   */\n  swap1\n  pop\n    /* \"#utility.yul\":3812:3815   */\n  dup2\n    /* \"#utility.yul\":3809:3810   */\n  0x00\n    /* \"#utility.yul\":3802:3816   */\n  mstore\n    /* \"#utility.yul\":3846:3850   */\n  0x20\n    /* \"#utility.yul\":3843:3844   */\n  0x00\n    /* \"#utility.yul\":3833:3851   */\n  keccak256\n    /* \"#utility.yul\":3825:3851   */\n  swap1\n  pop\n    /* \"#utility.yul\":3717:3858   */\n  swap2\n  swap1\n  pop\n  jump\t// out\n    /* \"#utility.yul\":3864:3957   */\ntag_26:\n    /* \"#utility.yul\":3901:3907   */\n  0x00\n    /* \"#utility.yul\":3948:3950   */\n  0x20\n    /* \"#utility.yul\":3943:3945   */\n  0x1f\n    /* \"#utility.yul\":3936:3941   */\n  dup4\n    /* \"#utility.yul\":3932:3946   */\n  add\n    /* \"#utility.yul\":3928:3951   */\n  div\n    /* \"#utility.yul\":3918:3951   */\n  swap1\n  pop\n    /* \"#utility.yul\":3864:3957   */\n  swap2\n  swap1\n  pop\n  jump\t// out\n    /* \"#utility.yul\":3963:4070   */\ntag_27:\n    /* \"#utility.yul\":4007:4015   */\n  0x00\n    /* \"#utility.yul\":4057:4062   */\n  dup3\n    /* \"#utility.yul\":4051:4055   */\n  dup3\n    /* \"#utility.yul\":4047:4063   */\n  shl\n    /* \"#utility.yul\":4026:4063   */\n  swap1\n  pop\n    /* \"#utility.yul\":3963:4070   */\n  swap3\n  swap2\n  pop\n  pop\n  jump\t// out\n    /* \"#utility.yul\":4076:4469   */\ntag_28:\n    /* \"#utility.yul\":4145:4151   */\n  0x00\n    /* \"#utility.yul\":4195:4196   */\n  0x08\n    /* \"#utility.yul\":4183:4193   */\n  dup4\n    /* \"#utility.yul\":4179:4197   */\n  mul\n    /* \"#utility.yul\":4218:4315   */\n  tag_87\n    /* \"#utility.yul\":4248:4314   */\n  0xffffffffffffffffffffffffffffffffffffffffffffffffffffffffffffffff\n    /* \"#utility.yul\":4237:4246   */\n  dup3\n    /* \"#utility.yul\":4218:4315   */\n  tag_27\n  jump\t// in\ntag_87:\n    /* \"#utility.yul\":4336:4375   */\n  tag_88\n    /* \"#utility.yul\":4366:4374   */\n  dup7\n    /* \"#utility.yul\":4355:4364   */\n  dup4\n    /* \"#utility.yul\":4336:4375   */\n  tag_27\n  jump\t// in\ntag_88:\n    /* \"#utility.yul\":4324:4375   */\n  swap6\n  pop\n    /* \"#utility.yul\":4408:4412   */\n  dup1\n    /* \"#utility.yul\":4404:4413   */\n  not\n    /* \"#utility.yul\":4397:4402   */\n  dup5\n    /* \"#utility.yul\":4393:4414   */\n  and\n    /* \"#utility.yul\":4384:4414   */\n  swap4\n  pop\n    /* \"#utility.yul\":4457:4461   */\n  dup1\n    /* \"#utility.yul\":4447:4455   */\n  dup7\n    /* \"#utility.yul\":4443:4462   */\n  and\n    /* \"#utility.yul\":4436:4441   */\n  dup5\n    /* \"#utility.yul\":4433:4463   */\n  or\n    /* \"#utility.yul\":4423:4463   */\n  swap3\n  pop\n    /* \"#utility.yul\":4152:4469   */\n  pop\n  pop\n    /* \"#utility.yul\":4076:4469   */\n  swap4\n  swap3\n  pop\n  pop\n  pop\n  jump\t// out\n    /* \"#utility.yul\":4475:4552   */\ntag_29:\n    /* \"#utility.yul\":4512:4519   */\n  0x00\n    /* \"#utility.yul\":4541:4546   */\n  dup2\n    /* \"#utility.yul\":4530:4546   */\n  swap1\n  pop\n    /* \"#utility.yul\":4475:4552   */\n  swap2\n  swap1\n  pop\n  jump\t// out\n    /* \"#utility.yul\":4558:4618   */\ntag_30:\n    /* \"#utility.yul\":4586:4589   */\n  0x00\n    /* \"#utility.yul\":4607:4612   */\n  dup2\n    /* \"#utility.yul\":4600:4612   */\n  swap1\n  pop\n    /* \"#utility.yul\":4558:4618   */\n  swap2\n  swap1\n  pop\n  jump\t// out\n    /* \"#utility.yul\":4624:4766   */\ntag_31:\n    /* \"#utility.yul\":4674:4683   */\n  0x00\n    /* \"#utility.yul\":4707:4760   */\n  tag_92\n    /* \"#utility.yul\":4725:4759   */\n  tag_93\n    /* \"#utility.yul\":4734:4758   */\n  tag_94\n    /* \"#utility.yul\":4752:4757   */\n  dup5\n    /* \"#utility.yul\":4734:4758   */\n  tag_29\n  jump\t// in\ntag_94:\n    /* \"#utility.yul\":4725:4759   */\n  tag_30\n  jump\t// in\ntag_93:\n    /* \"#utility.yul\":4707:4760   */\n  tag_29\n  jump\t// in\ntag_92:\n    /* \"#utility.yul\":4694:4760   */\n  swap1\n  pop\n    /* \"#utility.yul\":4624:4766   */\n  swap2\n  swap1\n  pop\n  jump\t// out\n    /* \"#utility.yul\":4772:4847   */\ntag_32:\n    /* \"#utility.yul\":4815:4818   */\n  0x00\n    /* \"#utility.yul\":4836:4841   */\n  dup2\n    /* \"#utility.yul\":4829:4841   */\n  swap1\n  pop\n    /* \"#utility.yul\":4772:4847   */\n  swap2\n  swap1\n  pop\n  jump\t// out\n    /* \"#utility.yul\":4853:5122   */\ntag_33:\n    /* \"#utility.yul\":4963:5002   */\n  tag_97\n    /* \"#utility.yul\":4994:5001   */\n  dup4\n    /* \"#utility.yul\":4963:5002   */\n  tag_31\n  jump\t// in\ntag_97:\n    /* \"#utility.yul\":5024:5115   */\n  tag_98\n    /* \"#utility.yul\":5073:5114   */\n  tag_99\n    /* \"#utility.yul\":5097:5113   */\n  dup3\n    /* \"#utility.yul\":5073:5114   */\n  tag_32\n  jump\t// in\ntag_99:\n    /* \"#utility.yul\":5065:5071   */\n  dup5\n    /* \"#utility.yul\":5058:5062   */\n  dup5\n    /* \"#utility.yul\":5052:5063   */\n  sload\n    /* \"#utility.yul\":5024:5115   */\n  tag_28\n  jump\t// in\ntag_98:\n    /* \"#utility.yul\":5018:5022   */\n  dup3\n    /* \"#utility.yul\":5011:5116   */\n  sstore\n    /* \"#utility.yul\":4929:5122   */\n  pop\n    /* \"#utility.yul\":4853:5122   */\n  pop\n  pop\n  pop\n  jump\t// out\n    /* \"#utility.yul\":5128:5201   */\ntag_34:\n    /* \"#utility.yul\":5173:5176   */\n  0x00\n    /* \"#utility.yul\":5128:5201   */\n  swap1\n  jump\t// out\n    /* \"#utility.yul\":5207:5396   */\ntag_35:\n    /* \"#utility.yul\":5284:5316   */\n  tag_102\n  tag_34\n  jump\t// in\ntag_102:\n    /* \"#utility.yul\":5325:5390   */\n  tag_103\n    /* \"#utility.yul\":5383:5389   */\n  dup2\n    /* \"#utility.yul\":5375:5381   */\n  dup5\n    /* \"#utility.yul\":5369:5373   */\n  dup5\n    /* \"#utility.yul\":5325:5390   */\n  tag_33\n  jump\t// in\ntag_103:\n    /* \"#utility.yul\":5260:5396   */\n  pop\n    /* \"#utility.yul\":5207:5396   */\n  pop\n  pop\n  jump\t// out\n    /* \"#utility.yul\":5402:5588   */\ntag_36:\n    /* \"#utility.yul\":5462:5582   */\ntag_105:\n    /* \"#utility.yul\":5479:5482   */\n  dup2\n    /* \"#utility.yul\":5472:5477   */\n  dup2\n    /* \"#utility.yul\":5469:5483   */\n  lt\n    /* \"#utility.yul\":5462:5582   */\n  iszero\n  tag_107\n  jumpi\n    /* \"#utility.yul\":5533:5572   */\n  tag_108\n    /* \"#utility.yul\":5570:5571   */\n  0x00\n    /* \"#utility.yul\":5563:5568   */\n  dup3\n    /* \"#utility.yul\":5533:5572   */\n  tag_35\n  jump\t// in\ntag_108:\n    /* \"#utility.yul\":5506:5507   */\n  0x01\n    /* \"#utility.yul\":5499:5504   */\n  dup2\n    /* \"#utility.yul\":5495:5508   */\n  add\n    /* \"#utility.yul\":5486:5508   */\n  swap1\n  pop\n    /* \"#utility.yul\":5462:5582   */\n  jump(tag_105)\ntag_107:\n    /* \"#utility.yul\":5402:5588   */\n  pop\n  pop\n  jump\t// out\n    /* \"#utility.yul\":5594:6137   */\ntag_37:\n    /* \"#utility.yul\":5695:5697   */\n  0x1f\n    /* \"#utility.yul\":5690:5693   */\n  dup3\n    /* \"#utility.yul\":5687:5698   */\n  gt\n    /* \"#utility.yul\":5684:6130   */\n  iszero\n  tag_110\n  jumpi\n    /* \"#utility.yul\":5729:5767   */\n  tag_111\n    /* \"#utility.yul\":5761:5766   */\n  dup2\n    /* \"#utility.yul\":5729:5767   */\n  tag_25\n  jump\t// in\ntag_111:\n    /* \"#utility.yul\":5813:5842   */\n  tag_112\n    /* \"#utility.yul\":5831:5841   */\n  dup5\n    /* \"#utility.yul\":5813:5842   */\n  tag_26\n  jump\t// in\ntag_112:\n    /* \"#utility.yul\":5803:5811   */\n  dup2\n    /* \"#utility.yul\":5799:5843   */\n  add\n    /* \"#utility.yul\":5996:5998   */\n  0x20\n    /* \"#utility.yul\":5984:5994   */\n  dup6\n    /* \"#utility.yul\":5981:5999   */\n  lt\n    /* \"#utility.yul\":5978:6027   */\n  iszero\n  tag_113\n  jumpi\n    /* \"#utility.yul\":6017:6025   */\n  dup2\n    /* \"#utility.yul\":6002:6025   */\n  swap1\n  pop\n    /* \"#utility.yul\":5978:6027   */\ntag_113:\n    /* \"#utility.yul\":6040:6120   */\n  tag_114\n    /* \"#utility.yul\":6096:6118   */\n  tag_115\n    /* \"#utility.yul\":6114:6117   */\n  dup6\n    /* \"#utility.yul\":6096:6118   */\n  tag_26\n  jump\t// in\ntag_115:\n    /* \"#utility.yul\":6086:6094   */\n  dup4\n    /* \"#utility.yul\":6082:6119   */\n  add\n    /* \"#utility.yul\":6069:6080   */\n  dup3\n    /* \"#utility.yul\":6040:6120   */\n  tag_36\n  jump\t// in\ntag_114:\n    /* \"#utility.yul\":5699:6130   */\n  pop\n  pop\n    /* \"#utility.yul\":5684:6130   */\ntag_110:\n    /* \"#utility.yul\":5594:6137   */\n  pop\n  pop\n  pop\n  jump\t// out\n    /* \"#utility.yul\":6143:6260   */\ntag_38:\n    /* \"#utility.yul\":6197:6205   */\n  0x00\n    /* \"#utility.yul\":6247:6252   */\n  dup3\n    /* \"#utility.yul\":6241:6245   */\n  dup3\n    /* \"#utility.yul\":6237:6253   */\n  shr\n    /* \"#utility.yul\":6216:6253   */\n  swap1\n  pop\n    /* \"#utility.yul\":6143:6260   */\n  swap3\n  swap2\n  pop\n  pop\n  jump\t// out\n    /* \"#utility.yul\":6266:6435   */\ntag_39:\n    /* \"#utility.yul\":6310:6316   */\n  0x00\n    /* \"#utility.yul\":6343:6394   */\n  tag_118\n    /* \"#utility.yul\":6391:6392   */\n  0x00\n    /* \"#utility.yul\":6387:6393   */\n  not\n    /* \"#utility.yul\":6379:6384   */\n  dup5\n    /* \"#utility.yul\":6376:6377   */\n  0x08\n    /* \"#utility.yul\":6372:6385   */\n  mul\n    /* \"#utility.yul\":6343:6394   */\n  tag_38\n  jump\t// in\ntag_118:\n    /* \"#utility.yul\":6339:6395   */\n  not\n    /* \"#utility.yul\":6424:6428   */\n  dup1\n    /* \"#utility.yul\":6418:6422   */\n  dup4\n    /* \"#utility.yul\":6414:6429   */\n  and\n    /* \"#utility.yul\":6404:6429   */\n  swap2\n  pop\n    /* \"#utility.yul\":6317:6435   */\n  pop\n    /* \"#utility.yul\":6266:6435   */\n  swap3\n  swap2\n  pop\n  pop\n  jump\t// out\n    /* \"#utility.yul\":6440:6735   */\ntag_40:\n    /* \"#utility.yul\":6516:6520   */\n  0x00\n    /* \"#utility.yul\":6662:6691   */\n  tag_120\n    /* \"#utility.yul\":6687:6690   */\n  dup4\n    /* \"#utility.yul\":6681:6685   */\n  dup4\n    /* \"#utility.yul\":6662:6691   */\n  tag_39\n  jump\t// in\ntag_120:\n    /* \"#utility.yul\":6654:6691   */\n  swap2\n  pop\n    /* \"#utility.yul\":6724:6727   */\n  dup3\n    /* \"#utility.yul\":6721:6722   */\n  0x02\n    /* \"#utility.yul\":6717:6728   */\n  mul\n    /* \"#utility.yul\":6711:6715   */\n  dup3\n    /* \"#utility.yul\":6708:6729   */\n  or\n    /* \"#utility.yul\":6700:6729   */\n  swap1\n  pop\n    /* \"#utility.yul\":6440:6735   */\n  swap3\n  swap2\n  pop\n  pop\n  jump\t// out\n    /* \"#utility.yul\":6740:8135   */\ntag_7:\n    /* \"#utility.yul\":6857:6894   */\n  tag_122\n    /* \"#utility.yul\":6890:6893   */\n  dup3\n    /* \"#utility.yul\":6857:6894   */\n  tag_22\n  jump\t// in\ntag_122:\n    /* \"#utility.yul\":6959:6977   */\n  0xffffffffffffffff\n    /* \"#utility.yul\":6951:6957   */\n  dup2\n    /* \"#utility.yul\":6948:6978   */\n  gt\n    /* \"#utility.yul\":6945:7001   */\n  iszero\n  tag_123\n  jumpi\n    /* \"#utility.yul\":6981:6999   */\n  tag_124\n  tag_15\n  jump\t// in\ntag_124:\n    /* \"#utility.yul\":6945:7001   */\ntag_123:\n    /* \"#utility.yul\":7025:7063   */\n  tag_125\n    /* \"#utility.yul\":7057:7061   */\n  dup3\n    /* \"#utility.yul\":7051:7062   */\n  sload\n    /* \"#utility.yul\":7025:7063   */\n  tag_24\n  jump\t// in\ntag_125:\n    /* \"#utility.yul\":7110:7177   */\n  tag_126\n    /* \"#utility.yul\":7170:7176   */\n  dup3\n    /* \"#utility.yul\":7162:7168   */\n  dup3\n    /* \"#utility.yul\":7156:7160   */\n  dup6\n    /* \"#utility.yul\":7110:7177   */\n  tag_37\n  jump\t// in\ntag_126:\n    /* \"#utility.yul\":7204:7205   */\n  0x00\n    /* \"#utility.yul\":7228:7232   */\n  0x20\n    /* \"#utility.yul\":7215:7232   */\n  swap1\n  pop\n    /* \"#utility.yul\":7260:7262   */\n  0x1f\n    /* \"#utility.yul\":7252:7258   */\n  dup4\n    /* \"#utility.yul\":7249:7263   */\n  gt\n    /* \"#utility.yul\":7277:7278   */\n  0x01\n    /* \"#utility.yul\":7272:7890   */\n  dup2\n  eq\n  tag_128\n  jumpi\n    /* \"#utility.yul\":7934:7935   */\n  0x00\n    /* \"#utility.yul\":7951:7957   */\n  dup5\n    /* \"#utility.yul\":7948:8025   */\n  iszero\n  tag_129\n  jumpi\n    /* \"#utility.yul\":8000:8009   */\n  dup3\n    /* \"#utility.yul\":7995:7998   */\n  dup8\n    /* \"#utility.yul\":7991:8010   */\n  add\n    /* \"#utility.yul\":7985:8011   */\n  mload\n    /* \"#utility.yul\":7976:8011   */\n  swap1\n  pop\n    /* \"#utility.yul\":7948:8025   */\ntag_129:\n    /* \"#utility.yul\":8051:8118   */\n  tag_130\n    /* \"#utility.yul\":8111:8117   */\n  dup6\n    /* \"#utility.yul\":8104:8109   */\n  dup3\n    /* \"#utility.yul\":8051:8118   */\n  tag_40\n  jump\t// in\ntag_130:\n    /* \"#utility.yul\":8045:8049   */\n  dup7\n    /* \"#utility.yul\":8038:8119   */\n  sstore\n    /* \"#utility.yul\":7907:8129   */\n  pop\n    /* \"#utility.yul\":7242:8129   */\n  jump(tag_127)\n    /* \"#utility.yul\":7272:7890   */\ntag_128:\n    /* \"#utility.yul\":7324:7328   */\n  0x1f\n    /* \"#utility.yul\":7320:7329   */\n  not\n    /* \"#utility.yul\":7312:7318   */\n  dup5\n    /* \"#utility.yul\":7308:7330   */\n  and\n    /* \"#utility.yul\":7358:7395   */\n  tag_131\n    /* \"#utility.yul\":7390:7394   */\n  dup7\n    /* \"#utility.yul\":7358:7395   */\n  tag_25\n  jump\t// in\ntag_131:\n    /* \"#utility.yul\":7417:7418   */\n  0x00\n    /* \"#utility.yul\":7431:7639   */\ntag_132:\n    /* \"#utility.yul\":7445:7452   */\n  dup3\n    /* \"#utility.yul\":7442:7443   */\n  dup2\n    /* \"#utility.yul\":7439:7453   */\n  lt\n    /* \"#utility.yul\":7431:7639   */\n  iszero\n  tag_134\n  jumpi\n    /* \"#utility.yul\":7524:7533   */\n  dup5\n    /* \"#utility.yul\":7519:7522   */\n  dup10\n    /* \"#utility.yul\":7515:7534   */\n  add\n    /* \"#utility.yul\":7509:7535   */\n  mload\n    /* \"#utility.yul\":7501:7507   */\n  dup3\n    /* \"#utility.yul\":7494:7536   */\n  sstore\n    /* \"#utility.yul\":7575:7576   */\n  0x01\n    /* \"#utility.yul\":7567:7573   */\n  dup3\n    /* \"#utility.yul\":7563:7577   */\n  add\n    /* \"#utility.yul\":7553:7577   */\n  swap2\n  pop\n    /* \"#utility.yul\":7622:7624   */\n  0x20\n    /* \"#utility.yul\":7611:7620   */\n  dup6\n    /* \"#utility.yul\":7607:7625   */\n  add\n    /* \"#utility.yul\":7594:7625   */\n  swap5\n  pop\n    /* \"#utility.yul\":7468:7472   */\n  0x20\n    /* \"#utility.yul\":7465:7466   */\n  dup2\n    /* \"#utility.yul\":7461:7473   */\n  add\n    /* \"#utility.yul\":7456:7473   */\n  swap1\n  pop\n    /* \"#utility.yul\":7431:7639   */\n  jump(tag_132)\ntag_134:\n    /* \"#utility.yul\":7667:7673   */\n  dup7\n    /* \"#utility.yul\":7658:7665   */\n  dup4\n    /* \"#utility.yul\":7655:7674   */\n  lt\n    /* \"#utility.yul\":7652:7831   */\n  iszero\n  tag_135\n  jumpi\n    /* \"#utility.yul\":7725:7734   */\n  dup5\n    /* \"#utility.yul\":7720:7723   */\n  dup10\n    /* \"#utility.yul\":7716:7735   */\n  add\n    /* \"#utility.yul\":7710:7736   */\n  mload\n    /* \"#utility.yul\":7768:7816   */\n  tag_136\n    /* \"#utility.yul\":7810:7814   */\n  0x1f\n    /* \"#utility.yul\":7802:7808   */\n  dup10\n    /* \"#utility.yul\":7798:7815   */\n  and\n    /* \"#utility.yul\":7787:7796   */\n  dup3\n    /* \"#utility.yul\":7768:7816   */\n  tag_39\n  jump\t// in\ntag_136:\n    /* \"#utility.yul\":7760:7766   */\n  dup4\n    /* \"#utility.yul\":7753:7817   */\n  sstore\n    /* \"#utility.yul\":7675:7831   */\n  pop\n    /* \"#utility.yul\":7652:7831   */\ntag_135:\n    /* \"#utility.yul\":7877:7878   */\n  0x01\n    /* \"#utility.yul\":7873:7874   */\n  0x02\n    /* \"#utility.yul\":7865:7871   */\n  dup9\n    /* \"#utility.yul\":7861:7875   */\n  mul\n    /* \"#utility.yul\":7857:7879   */\n  add\n    /* \"#utility.yul\":7851:7855   */\n  dup9\n    /* \"#utility.yul\":7844:7880   */\n  sstore\n    /* \"#utility.yul\":7279:7890   */\n  pop\n  pop\n  pop\n    /* \"#utility.yul\":7242:8129   */\ntag_127:\n  pop\n    /* \"#utility.yul\":6832:8135   */\n  pop\n  pop\n  pop\n    /* \"#utility.yul\":6740:8135   */\n  pop\n  pop\n  jump\t// out\n    /* \"Employee.sol\":59:1139  contract Employee {... */\ntag_8:\n  dataSize(sub_0)\n  dup1\n  dataOffset(sub_0)\n  0x00\n  codecopy\n  0x00\n  return\nstop\n\nsub_0: assembly {\n        /* \"Employee.sol\":59:1139  contract Employee {... */\n      mstore(0x40, 0x80)\n      callvalue\n      dup1\n      iszero\n      tag_1\n      jumpi\n      0x00\n      dup1\n      revert\n    tag_1:\n      pop\n      jumpi(tag_2, lt(calldatasize, 0x04))\n      shr(0xe0, calldataload(0x00))\n      dup1\n      0x2c62c181\n      eq\n      tag_3\n      jumpi\n      dup1\n      0x8da5cb5b\n      eq\n      tag_4\n      jumpi\n      dup1\n      0xa52242c9\n      eq\n      tag_5\n      jumpi\n      dup1\n      0xb0ee77c8\n      eq\n      tag_6\n      jumpi\n      dup1\n      0xc5a8fa73\n      eq\n      tag_7\n      jumpi\n    tag_2:\n      0x00\n      dup1\n      revert\n        /* \"Employee.sol\":532:959  function submitRequest(address companyAddress) public {... */\n    tag_3:\n      tag_8\n      0x04\n      dup1\n      calldatasize\n      sub\n      dup2\n      add\n      swap1\n      tag_9\n      swap2\n      swap1\n      tag_10\n      jump\t// in\n    tag_9:\n      tag_11\n      jump\t// in\n    tag_8:\n      stop\n        /* \"Employee.sol\":120:140  address public owner */\n    tag_4:\n      tag_12\n      tag_13\n      jump\t// in\n    tag_12:\n      mload(0x40)\n      tag_14\n      swap2\n      swap1\n      tag_15\n      jump\t// in\n    tag_14:\n      mload(0x40)\n      dup1\n      swap2\n      sub\n      swap1\n      return\n        /* \"Employee.sol\":300:369  mapping(address => ReferenceCheckResult) public referenceCheckHistory */\n    tag_5:\n      tag_16\n      0x04\n      dup1\n      calldatasize\n      sub\n      dup2\n      add\n      swap1\n      tag_17\n      swap2\n      swap1\n      tag_10\n      jump\t// in\n    tag_17:\n      tag_18\n      jump\t// in\n    tag_16:\n      mload(0x40)\n      tag_19\n      swap2\n      swap1\n      tag_20\n      jump\t// in\n    tag_19:\n      mload(0x40)\n      dup1\n      swap2\n      sub\n      swap1\n      return\n        /* \"Employee.sol\":995:1137  function storeResult(address companyAddress, bool verified) public {... */\n    tag_6:\n      tag_21\n      0x04\n      dup1\n      calldatasize\n      sub\n      dup2\n      add\n      swap1\n      tag_22\n      swap2\n      swap1\n      tag_23\n      jump\t// in\n    tag_22:\n      tag_24\n      jump\t// in\n    tag_21:\n      stop\n        /* \"Employee.sol\":200:228  string public nullifier_hash */\n    tag_7:\n      tag_25\n      tag_26\n      jump\t// in\n    tag_25:\n      mload(0x40)\n      tag_27\n      swap2\n      swap1\n      tag_28\n      jump\t// in\n    tag_27:\n      mload(0x40)\n      dup1\n      swap2\n      sub\n      swap1\n      return\n        /* \"Employee.sol\":532:959  function submitRequest(address companyAddress) public {... */\n    tag_11:\n        /* \"Employee.sol\":596:613  Employer employer */\n      0x00\n        /* \"Employee.sol\":625:639  companyAddress */\n      dup2\n        /* \"Employee.sol\":596:640  Employer employer = Employer(companyAddress) */\n      swap1\n      pop\n        /* \"Employee.sol\":650:678  bool isValidEmployerInstance */\n      0x00\n        /* \"Employee.sol\":702:716  companyAddress */\n      dup3\n        /* \"Employee.sol\":681:716  address(employer) == companyAddress */\n      0xffffffffffffffffffffffffffffffffffffffff\n      and\n        /* \"Employee.sol\":689:697  employer */\n      dup3\n        /* \"Employee.sol\":681:716  address(employer) == companyAddress */\n      0xffffffffffffffffffffffffffffffffffffffff\n      and\n      eq\n        /* \"Employee.sol\":650:716  bool isValidEmployerInstance = address(employer) == companyAddress */\n      swap1\n      pop\n        /* \"Employee.sol\":734:757  isValidEmployerInstance */\n      dup1\n        /* \"Employee.sol\":726:787  require(isValidEmployerInstance, \"Invalid employer instance\") */\n      tag_30\n      jumpi\n      mload(0x40)\n      0x08c379a000000000000000000000000000000000000000000000000000000000\n      dup2\n      mstore\n      0x04\n      add\n      tag_31\n      swap1\n      tag_32\n      jump\t// in\n    tag_31:\n      mload(0x40)\n      dup1\n      swap2\n      sub\n      swap1\n      revert\n    tag_30:\n        /* \"Employee.sol\":798:806  employer */\n      dup2\n        /* \"Employee.sol\":798:817  employer.newRequest */\n      0xffffffffffffffffffffffffffffffffffffffff\n      and\n      0xc97edb48\n        /* \"Employee.sol\":818:823  owner */\n      0x00\n      dup1\n      sload\n      swap1\n      0x0100\n      exp\n      swap1\n      div\n      0xffffffffffffffffffffffffffffffffffffffff\n      and\n        /* \"Employee.sol\":825:839  nullifier_hash */\n      0x01\n        /* \"Employee.sol\":798:840  employer.newRequest(owner, nullifier_hash) */\n      mload(0x40)\n      dup4\n      0xffffffff\n      and\n      0xe0\n      shl\n      dup2\n      mstore\n      0x04\n      add\n      tag_33\n      swap3\n      swap2\n      swap1\n      tag_34\n      jump\t// in\n    tag_33:\n      0x00\n      mload(0x40)\n      dup1\n      dup4\n      sub\n      dup2\n      0x00\n      dup8\n      dup1\n      extcodesize\n      iszero\n      dup1\n      iszero\n      tag_35\n      jumpi\n      0x00\n      dup1\n      revert\n    tag_35:\n      pop\n      gas\n      call\n      iszero\n      dup1\n      iszero\n      tag_37\n      jumpi\n      returndatasize\n      0x00\n      dup1\n      returndatacopy\n      revert(0x00, returndatasize)\n    tag_37:\n      pop\n      pop\n      pop\n      pop\n        /* \"Employee.sol\":890:952  ReferenceCheckResult({... */\n      mload(0x40)\n      dup1\n      0x20\n      add\n      0x40\n      mstore\n      dup1\n        /* \"Employee.sol\":936:941  false */\n      0x00\n        /* \"Employee.sol\":890:952  ReferenceCheckResult({... */\n      iszero\n      iszero\n      dup2\n      mstore\n      pop\n        /* \"Employee.sol\":850:871  referenceCheckHistory */\n      0x02\n        /* \"Employee.sol\":850:887  referenceCheckHistory[companyAddress] */\n      0x00\n        /* \"Employee.sol\":872:886  companyAddress */\n      dup6\n        /* \"Employee.sol\":850:887  referenceCheckHistory[companyAddress] */\n      0xffffffffffffffffffffffffffffffffffffffff\n      and\n      0xffffffffffffffffffffffffffffffffffffffff\n      and\n      dup2\n      mstore\n      0x20\n      add\n      swap1\n      dup2\n      mstore\n      0x20\n      add\n      0x00\n      keccak256\n        /* \"Employee.sol\":850:952  referenceCheckHistory[companyAddress] = ReferenceCheckResult({... */\n      0x00\n      dup3\n      add\n      mload\n      dup2\n      0x00\n      add\n      exp(0x0100, 0x00)\n      dup2\n      sload\n      dup2\n      0xff\n      mul\n      not\n      and\n      swap1\n      dup4\n      iszero\n      iszero\n      mul\n      or\n      swap1\n      sstore\n      pop\n      swap1\n      pop\n      pop\n        /* \"Employee.sol\":586:959  {... */\n      pop\n      pop\n        /* \"Employee.sol\":532:959  function submitRequest(address companyAddress) public {... */\n      pop\n      jump\t// out\n        /* \"Employee.sol\":120:140  address public owner */\n    tag_13:\n      0x00\n      dup1\n      sload\n      swap1\n      0x0100\n      exp\n      swap1\n      div\n      0xffffffffffffffffffffffffffffffffffffffff\n      and\n      dup2\n      jump\t// out\n        /* \"Employee.sol\":300:369  mapping(address => ReferenceCheckResult) public referenceCheckHistory */\n    tag_18:\n      mstore(0x20, 0x02)\n      dup1\n      0x00\n      mstore\n      keccak256(0x00, 0x40)\n      0x00\n      swap2\n      pop\n      swap1\n      pop\n      dup1\n      0x00\n      add\n      0x00\n      swap1\n      sload\n      swap1\n      0x0100\n      exp\n      swap1\n      div\n      0xff\n      and\n      swap1\n      pop\n      dup2\n      jump\t// out\n        /* \"Employee.sol\":995:1137  function storeResult(address companyAddress, bool verified) public {... */\n    tag_24:\n        /* \"Employee.sol\":1122:1130  verified */\n      dup1\n        /* \"Employee.sol\":1072:1093  referenceCheckHistory */\n      0x02\n        /* \"Employee.sol\":1072:1109  referenceCheckHistory[companyAddress] */\n      0x00\n        /* \"Employee.sol\":1094:1108  companyAddress */\n      dup5\n        /* \"Employee.sol\":1072:1109  referenceCheckHistory[companyAddress] */\n      0xffffffffffffffffffffffffffffffffffffffff\n      and\n      0xffffffffffffffffffffffffffffffffffffffff\n      and\n      dup2\n      mstore\n      0x20\n      add\n      swap1\n      dup2\n      mstore\n      0x20\n      add\n      0x00\n      keccak256\n        /* \"Employee.sol\":1072:1119  referenceCheckHistory[companyAddress]._verified */\n      0x00\n      add\n      0x00\n        /* \"Employee.sol\":1072:1130  referenceCheckHistory[companyAddress]._verified = verified */\n      0x0100\n      exp\n      dup2\n      sload\n      dup2\n      0xff\n      mul\n      not\n      and\n      swap1\n      dup4\n      iszero\n      iszero\n      mul\n      or\n      swap1\n      sstore\n      pop\n        /* \"Employee.sol\":995:1137  function storeResult(address companyAddress, bool verified) public {... */\n      pop\n      pop\n      jump\t// out\n        /* \"Employee.sol\":200:228  string public nullifier_hash */\n    tag_26:\n      0x01\n      dup1\n      sload\n      tag_39\n      swap1\n      tag_40\n      jump\t// in\n    tag_39:\n      dup1\n      0x1f\n      add\n      0x20\n      dup1\n      swap2\n      div\n      mul\n      0x20\n      add\n      mload(0x40)\n      swap1\n      dup2\n      add\n      0x40\n      mstore\n      dup1\n      swap3\n      swap2\n      swap1\n      dup2\n      dup2\n      mstore\n      0x20\n      add\n      dup3\n      dup1\n      sload\n      tag_41\n      swap1\n      tag_40\n      jump\t// in\n    tag_41:\n      dup1\n      iszero\n      tag_42\n      jumpi\n      dup1\n      0x1f\n      lt\n      tag_43\n      jumpi\n      0x0100\n      dup1\n      dup4\n      sload\n      div\n      mul\n      dup4\n      mstore\n      swap2\n      0x20\n      add\n      swap2\n      jump(tag_42)\n    tag_43:\n      dup3\n      add\n      swap2\n      swap1\n      0x00\n      mstore\n      keccak256(0x00, 0x20)\n      swap1\n    tag_44:\n      dup2\n      sload\n      dup2\n      mstore\n      swap1\n      0x01\n      add\n      swap1\n      0x20\n      add\n      dup1\n      dup4\n      gt\n      tag_44\n      jumpi\n      dup3\n      swap1\n      sub\n      0x1f\n      and\n      dup3\n      add\n      swap2\n    tag_42:\n      pop\n      pop\n      pop\n      pop\n      pop\n      dup2\n      jump\t// out\n        /* \"#utility.yul\":88:205   */\n    tag_46:\n        /* \"#utility.yul\":197:198   */\n      0x00\n        /* \"#utility.yul\":194:195   */\n      dup1\n        /* \"#utility.yul\":187:199   */\n      revert\n        /* \"#utility.yul\":334:460   */\n    tag_48:\n        /* \"#utility.yul\":371:378   */\n      0x00\n        /* \"#utility.yul\":411:453   */\n      0xffffffffffffffffffffffffffffffffffffffff\n        /* \"#utility.yul\":404:409   */\n      dup3\n        /* \"#utility.yul\":400:454   */\n      and\n        /* \"#utility.yul\":389:454   */\n      swap1\n      pop\n        /* \"#utility.yul\":334:460   */\n      swap2\n      swap1\n      pop\n      jump\t// out\n        /* \"#utility.yul\":466:562   */\n    tag_49:\n        /* \"#utility.yul\":503:510   */\n      0x00\n        /* \"#utility.yul\":532:556   */\n      tag_73\n        /* \"#utility.yul\":550:555   */\n      dup3\n        /* \"#utility.yul\":532:556   */\n      tag_48\n      jump\t// in\n    tag_73:\n        /* \"#utility.yul\":521:556   */\n      swap1\n      pop\n        /* \"#utility.yul\":466:562   */\n      swap2\n      swap1\n      pop\n      jump\t// out\n        /* \"#utility.yul\":568:690   */\n    tag_50:\n        /* \"#utility.yul\":641:665   */\n      tag_75\n        /* \"#utility.yul\":659:664   */\n      dup2\n        /* \"#utility.yul\":641:665   */\n      tag_49\n      jump\t// in\n    tag_75:\n        /* \"#utility.yul\":634:639   */\n      dup2\n        /* \"#utility.yul\":631:666   */\n      eq\n        /* \"#utility.yul\":621:684   */\n      tag_76\n      jumpi\n        /* \"#utility.yul\":680:681   */\n      0x00\n        /* \"#utility.yul\":677:678   */\n      dup1\n        /* \"#utility.yul\":670:682   */\n      revert\n        /* \"#utility.yul\":621:684   */\n    tag_76:\n        /* \"#utility.yul\":568:690   */\n      pop\n      jump\t// out\n        /* \"#utility.yul\":696:835   */\n    tag_51:\n        /* \"#utility.yul\":742:747   */\n      0x00\n        /* \"#utility.yul\":780:786   */\n      dup2\n        /* \"#utility.yul\":767:787   */\n      calldataload\n        /* \"#utility.yul\":758:787   */\n      swap1\n      pop\n        /* \"#utility.yul\":796:829   */\n      tag_78\n        /* \"#utility.yul\":823:828   */\n      dup2\n        /* \"#utility.yul\":796:829   */\n      tag_50\n      jump\t// in\n    tag_78:\n        /* \"#utility.yul\":696:835   */\n      swap3\n      swap2\n      pop\n      pop\n      jump\t// out\n        /* \"#utility.yul\":841:1170   */\n    tag_10:\n        /* \"#utility.yul\":900:906   */\n      0x00\n        /* \"#utility.yul\":949:951   */\n      0x20\n        /* \"#utility.yul\":937:946   */\n      dup3\n        /* \"#utility.yul\":928:935   */\n      dup5\n        /* \"#utility.yul\":924:947   */\n      sub\n        /* \"#utility.yul\":920:952   */\n      slt\n        /* \"#utility.yul\":917:1036   */\n      iszero\n      tag_80\n      jumpi\n        /* \"#utility.yul\":955:1034   */\n      tag_81\n      tag_46\n      jump\t// in\n    tag_81:\n        /* \"#utility.yul\":917:1036   */\n    tag_80:\n        /* \"#utility.yul\":1075:1076   */\n      0x00\n        /* \"#utility.yul\":1100:1153   */\n      tag_82\n        /* \"#utility.yul\":1145:1152   */\n      dup5\n        /* \"#utility.yul\":1136:1142   */\n      dup3\n        /* \"#utility.yul\":1125:1134   */\n      dup6\n        /* \"#utility.yul\":1121:1143   */\n      add\n        /* \"#utility.yul\":1100:1153   */\n      tag_51\n      jump\t// in\n    tag_82:\n        /* \"#utility.yul\":1090:1153   */\n      swap2\n      pop\n        /* \"#utility.yul\":1046:1163   */\n      pop\n        /* \"#utility.yul\":841:1170   */\n      swap3\n      swap2\n      pop\n      pop\n      jump\t// out\n        /* \"#utility.yul\":1176:1294   */\n    tag_52:\n        /* \"#utility.yul\":1263:1287   */\n      tag_84\n        /* \"#utility.yul\":1281:1286   */\n      dup2\n        /* \"#utility.yul\":1263:1287   */\n      tag_49\n      jump\t// in\n    tag_84:\n        /* \"#utility.yul\":1258:1261   */\n      dup3\n        /* \"#utility.yul\":1251:1288   */\n      mstore\n        /* \"#utility.yul\":1176:1294   */\n      pop\n      pop\n      jump\t// out\n        /* \"#utility.yul\":1300:1522   */\n    tag_15:\n        /* \"#utility.yul\":1393:1397   */\n      0x00\n        /* \"#utility.yul\":1431:1433   */\n      0x20\n        /* \"#utility.yul\":1420:1429   */\n      dup3\n        /* \"#utility.yul\":1416:1434   */\n      add\n        /* \"#utility.yul\":1408:1434   */\n      swap1\n      pop\n        /* \"#utility.yul\":1444:1515   */\n      tag_86\n        /* \"#utility.yul\":1512:1513   */\n      0x00\n        /* \"#utility.yul\":1501:1510   */\n      dup4\n        /* \"#utility.yul\":1497:1514   */\n      add\n        /* \"#utility.yul\":1488:1494   */\n      dup5\n        /* \"#utility.yul\":1444:1515   */\n      tag_52\n      jump\t// in\n    tag_86:\n        /* \"#utility.yul\":1300:1522   */\n      swap3\n      swap2\n      pop\n      pop\n      jump\t// out\n        /* \"#utility.yul\":1528:1618   */\n    tag_53:\n        /* \"#utility.yul\":1562:1569   */\n      0x00\n        /* \"#utility.yul\":1605:1610   */\n      dup2\n        /* \"#utility.yul\":1598:1611   */\n      iszero\n        /* \"#utility.yul\":1591:1612   */\n      iszero\n        /* \"#utility.yul\":1580:1612   */\n      swap1\n      pop\n        /* \"#utility.yul\":1528:1618   */\n      swap2\n      swap1\n      pop\n      jump\t// out\n        /* \"#utility.yul\":1624:1733   */\n    tag_54:\n        /* \"#utility.yul\":1705:1726   */\n      tag_89\n        /* \"#utility.yul\":1720:1725   */\n      dup2\n        /* \"#utility.yul\":1705:1726   */\n      tag_53\n      jump\t// in\n    tag_89:\n        /* \"#utility.yul\":1700:1703   */\n      dup3\n        /* \"#utility.yul\":1693:1727   */\n      mstore\n        /* \"#utility.yul\":1624:1733   */\n      pop\n      pop\n      jump\t// out\n        /* \"#utility.yul\":1739:1949   */\n    tag_20:\n        /* \"#utility.yul\":1826:1830   */\n      0x00\n        /* \"#utility.yul\":1864:1866   */\n      0x20\n        /* \"#utility.yul\":1853:1862   */\n      dup3\n        /* \"#utility.yul\":1849:1867   */\n      add\n        /* \"#utility.yul\":1841:1867   */\n      swap1\n      pop\n        /* \"#utility.yul\":1877:1942   */\n      tag_91\n        /* \"#utility.yul\":1939:1940   */\n      0x00\n        /* \"#utility.yul\":1928:1937   */\n      dup4\n        /* \"#utility.yul\":1924:1941   */\n      add\n        /* \"#utility.yul\":1915:1921   */\n      dup5\n        /* \"#utility.yul\":1877:1942   */\n      tag_54\n      jump\t// in\n    tag_91:\n        /* \"#utility.yul\":1739:1949   */\n      swap3\n      swap2\n      pop\n      pop\n      jump\t// out\n        /* \"#utility.yul\":1955:2071   */\n    tag_55:\n        /* \"#utility.yul\":2025:2046   */\n      tag_93\n        /* \"#utility.yul\":2040:2045   */\n      dup2\n        /* \"#utility.yul\":2025:2046   */\n      tag_53\n      jump\t// in\n    tag_93:\n        /* \"#utility.yul\":2018:2023   */\n      dup2\n        /* \"#utility.yul\":2015:2047   */\n      eq\n        /* \"#utility.yul\":2005:2065   */\n      tag_94\n      jumpi\n        /* \"#utility.yul\":2061:2062   */\n      0x00\n        /* \"#utility.yul\":2058:2059   */\n      dup1\n        /* \"#utility.yul\":2051:2063   */\n      revert\n        /* \"#utility.yul\":2005:2065   */\n    tag_94:\n        /* \"#utility.yul\":1955:2071   */\n      pop\n      jump\t// out\n        /* \"#utility.yul\":2077:2210   */\n    tag_56:\n        /* \"#utility.yul\":2120:2125   */\n      0x00\n        /* \"#utility.yul\":2158:2164   */\n      dup2\n        /* \"#utility.yul\":2145:2165   */\n      calldataload\n        /* \"#utility.yul\":2136:2165   */\n      swap1\n      pop\n        /* \"#utility.yul\":2174:2204   */\n      tag_96\n        /* \"#utility.yul\":2198:2203   */\n      dup2\n        /* \"#utility.yul\":2174:2204   */\n      tag_55\n      jump\t// in\n    tag_96:\n        /* \"#utility.yul\":2077:2210   */\n      swap3\n      swap2\n      pop\n      pop\n      jump\t// out\n        /* \"#utility.yul\":2216:2684   */\n    tag_23:\n        /* \"#utility.yul\":2281:2287   */\n      0x00\n        /* \"#utility.yul\":2289:2295   */\n      dup1\n        /* \"#utility.yul\":2338:2340   */\n      0x40\n        /* \"#utility.yul\":2326:2335   */\n      dup4\n        /* \"#utility.yul\":2317:2324   */\n      dup6\n        /* \"#utility.yul\":2313:2336   */\n      sub\n        /* \"#utility.yul\":2309:2341   */\n      slt\n        /* \"#utility.yul\":2306:2425   */\n      iszero\n      tag_98\n      jumpi\n        /* \"#utility.yul\":2344:2423   */\n      tag_99\n      tag_46\n      jump\t// in\n    tag_99:\n        /* \"#utility.yul\":2306:2425   */\n    tag_98:\n        /* \"#utility.yul\":2464:2465   */\n      0x00\n        /* \"#utility.yul\":2489:2542   */\n      tag_100\n        /* \"#utility.yul\":2534:2541   */\n      dup6\n        /* \"#utility.yul\":2525:2531   */\n      dup3\n        /* \"#utility.yul\":2514:2523   */\n      dup7\n        /* \"#utility.yul\":2510:2532   */\n      add\n        /* \"#utility.yul\":2489:2542   */\n      tag_51\n      jump\t// in\n    tag_100:\n        /* \"#utility.yul\":2479:2542   */\n      swap3\n      pop\n        /* \"#utility.yul\":2435:2552   */\n      pop\n        /* \"#utility.yul\":2591:2593   */\n      0x20\n        /* \"#utility.yul\":2617:2667   */\n      tag_101\n        /* \"#utility.yul\":2659:2666   */\n      dup6\n        /* \"#utility.yul\":2650:2656   */\n      dup3\n        /* \"#utility.yul\":2639:2648   */\n      dup7\n        /* \"#utility.yul\":2635:2657   */\n      add\n        /* \"#utility.yul\":2617:2667   */\n      tag_56\n      jump\t// in\n    tag_101:\n        /* \"#utility.yul\":2607:2667   */\n      swap2\n      pop\n        /* \"#utility.yul\":2562:2677   */\n      pop\n        /* \"#utility.yul\":2216:2684   */\n      swap3\n      pop\n      swap3\n      swap1\n      pop\n      jump\t// out\n        /* \"#utility.yul\":2690:2789   */\n    tag_57:\n        /* \"#utility.yul\":2742:2748   */\n      0x00\n        /* \"#utility.yul\":2776:2781   */\n      dup2\n        /* \"#utility.yul\":2770:2782   */\n      mload\n        /* \"#utility.yul\":2760:2782   */\n      swap1\n      pop\n        /* \"#utility.yul\":2690:2789   */\n      swap2\n      swap1\n      pop\n      jump\t// out\n        /* \"#utility.yul\":2795:2964   */\n    tag_58:\n        /* \"#utility.yul\":2879:2890   */\n      0x00\n        /* \"#utility.yul\":2913:2919   */\n      dup3\n        /* \"#utility.yul\":2908:2911   */\n      dup3\n        /* \"#utility.yul\":2901:2920   */\n      mstore\n        /* \"#utility.yul\":2953:2957   */\n      0x20\n        /* \"#utility.yul\":2948:2951   */\n      dup3\n        /* \"#utility.yul\":2944:2958   */\n      add\n        /* \"#utility.yul\":2929:2958   */\n      swap1\n      pop\n        /* \"#utility.yul\":2795:2964   */\n      swap3\n      swap2\n      pop\n      pop\n      jump\t// out\n        /* \"#utility.yul\":2970:3109   */\n    tag_59:\n        /* \"#utility.yul\":3059:3065   */\n      dup3\n        /* \"#utility.yul\":3054:3057   */\n      dup2\n        /* \"#utility.yul\":3049:3052   */\n      dup4\n        /* \"#utility.yul\":3043:3066   */\n      mcopy\n        /* \"#utility.yul\":3100:3101   */\n      0x00\n        /* \"#utility.yul\":3091:3097   */\n      dup4\n        /* \"#utility.yul\":3086:3089   */\n      dup4\n        /* \"#utility.yul\":3082:3098   */\n      add\n        /* \"#utility.yul\":3075:3102   */\n      mstore\n        /* \"#utility.yul\":2970:3109   */\n      pop\n      pop\n      pop\n      jump\t// out\n        /* \"#utility.yul\":3115:3217   */\n    tag_60:\n        /* \"#utility.yul\":3156:3162   */\n      0x00\n        /* \"#utility.yul\":3207:3209   */\n      0x1f\n        /* \"#utility.yul\":3203:3210   */\n      not\n        /* \"#utility.yul\":3198:3200   */\n      0x1f\n        /* \"#utility.yul\":3191:3196   */\n      dup4\n        /* \"#utility.yul\":3187:3201   */\n      add\n        /* \"#utility.yul\":3183:3211   */\n      and\n        /* \"#utility.yul\":3173:3211   */\n      swap1\n      pop\n        /* \"#utility.yul\":3115:3217   */\n      swap2\n      swap1\n      pop\n      jump\t// out\n        /* \"#utility.yul\":3223:3600   */\n    tag_61:\n        /* \"#utility.yul\":3311:3314   */\n      0x00\n        /* \"#utility.yul\":3339:3378   */\n      tag_107\n        /* \"#utility.yul\":3372:3377   */\n      dup3\n        /* \"#utility.yul\":3339:3378   */\n      tag_57\n      jump\t// in\n    tag_107:\n        /* \"#utility.yul\":3394:3465   */\n      tag_108\n        /* \"#utility.yul\":3458:3464   */\n      dup2\n        /* \"#utility.yul\":3453:3456   */\n      dup6\n        /* \"#utility.yul\":3394:3465   */\n      tag_58\n      jump\t// in\n    tag_108:\n        /* \"#utility.yul\":3387:3465   */\n      swap4\n      pop\n        /* \"#utility.yul\":3474:3539   */\n      tag_109\n        /* \"#utility.yul\":3532:3538   */\n      dup2\n        /* \"#utility.yul\":3527:3530   */\n      dup6\n        /* \"#utility.yul\":3520:3524   */\n      0x20\n        /* \"#utility.yul\":3513:3518   */\n      dup7\n        /* \"#utility.yul\":3509:3525   */\n      add\n        /* \"#utility.yul\":3474:3539   */\n      tag_59\n      jump\t// in\n    tag_109:\n        /* \"#utility.yul\":3564:3593   */\n      tag_110\n        /* \"#utility.yul\":3586:3592   */\n      dup2\n        /* \"#utility.yul\":3564:3593   */\n      tag_60\n      jump\t// in\n    tag_110:\n        /* \"#utility.yul\":3559:3562   */\n      dup5\n        /* \"#utility.yul\":3555:3594   */\n      add\n        /* \"#utility.yul\":3548:3594   */\n      swap2\n      pop\n        /* \"#utility.yul\":3315:3600   */\n      pop\n        /* \"#utility.yul\":3223:3600   */\n      swap3\n      swap2\n      pop\n      pop\n      jump\t// out\n        /* \"#utility.yul\":3606:3919   */\n    tag_28:\n        /* \"#utility.yul\":3719:3723   */\n      0x00\n        /* \"#utility.yul\":3757:3759   */\n      0x20\n        /* \"#utility.yul\":3746:3755   */\n      dup3\n        /* \"#utility.yul\":3742:3760   */\n      add\n        /* \"#utility.yul\":3734:3760   */\n      swap1\n      pop\n        /* \"#utility.yul\":3806:3815   */\n      dup2\n        /* \"#utility.yul\":3800:3804   */\n      dup2\n        /* \"#utility.yul\":3796:3816   */\n      sub\n        /* \"#utility.yul\":3792:3793   */\n      0x00\n        /* \"#utility.yul\":3781:3790   */\n      dup4\n        /* \"#utility.yul\":3777:3794   */\n      add\n        /* \"#utility.yul\":3770:3817   */\n      mstore\n        /* \"#utility.yul\":3834:3912   */\n      tag_112\n        /* \"#utility.yul\":3907:3911   */\n      dup2\n        /* \"#utility.yul\":3898:3904   */\n      dup5\n        /* \"#utility.yul\":3834:3912   */\n      tag_61\n      jump\t// in\n    tag_112:\n        /* \"#utility.yul\":3826:3912   */\n      swap1\n      pop\n        /* \"#utility.yul\":3606:3919   */\n      swap3\n      swap2\n      pop\n      pop\n      jump\t// out\n        /* \"#utility.yul\":3925:4100   */\n    tag_62:\n        /* \"#utility.yul\":4065:4092   */\n      0x496e76616c696420656d706c6f79657220696e7374616e636500000000000000\n        /* \"#utility.yul\":4061:4062   */\n      0x00\n        /* \"#utility.yul\":4053:4059   */\n      dup3\n        /* \"#utility.yul\":4049:4063   */\n      add\n        /* \"#utility.yul\":4042:4093   */\n      mstore\n        /* \"#utility.yul\":3925:4100   */\n      pop\n      jump\t// out\n        /* \"#utility.yul\":4106:4472   */\n    tag_63:\n        /* \"#utility.yul\":4248:4251   */\n      0x00\n        /* \"#utility.yul\":4269:4336   */\n      tag_115\n        /* \"#utility.yul\":4333:4335   */\n      0x19\n        /* \"#utility.yul\":4328:4331   */\n      dup4\n        /* \"#utility.yul\":4269:4336   */\n      tag_58\n      jump\t// in\n    tag_115:\n        /* \"#utility.yul\":4262:4336   */\n      swap2\n      pop\n        /* \"#utility.yul\":4345:4438   */\n      tag_116\n        /* \"#utility.yul\":4434:4437   */\n      dup3\n        /* \"#utility.yul\":4345:4438   */\n      tag_62\n      jump\t// in\n    tag_116:\n        /* \"#utility.yul\":4463:4465   */\n      0x20\n        /* \"#utility.yul\":4458:4461   */\n      dup3\n        /* \"#utility.yul\":4454:4466   */\n      add\n        /* \"#utility.yul\":4447:4466   */\n      swap1\n      pop\n        /* \"#utility.yul\":4106:4472   */\n      swap2\n      swap1\n      pop\n      jump\t// out\n        /* \"#utility.yul\":4478:4897   */\n    tag_32:\n        /* \"#utility.yul\":4644:4648   */\n      0x00\n        /* \"#utility.yul\":4682:4684   */\n      0x20\n        /* \"#utility.yul\":4671:4680   */\n      dup3\n        /* \"#utility.yul\":4667:4685   */\n      add\n        /* \"#utility.yul\":4659:4685   */\n      swap1\n      pop\n        /* \"#utility.yul\":4731:4740   */\n      dup2\n        /* \"#utility.yul\":4725:4729   */\n      dup2\n        /* \"#utility.yul\":4721:4741   */\n      sub\n        /* \"#utility.yul\":4717:4718   */\n      0x00\n        /* \"#utility.yul\":4706:4715   */\n      dup4\n        /* \"#utility.yul\":4702:4719   */\n      add\n        /* \"#utility.yul\":4695:4742   */\n      mstore\n        /* \"#utility.yul\":4759:4890   */\n      tag_118\n        /* \"#utility.yul\":4885:4889   */\n      dup2\n        /* \"#utility.yul\":4759:4890   */\n      tag_63\n      jump\t// in\n    tag_118:\n        /* \"#utility.yul\":4751:4890   */\n      swap1\n      pop\n        /* \"#utility.yul\":4478:4897   */\n      swap2\n      swap1\n      pop\n      jump\t// out\n        /* \"#utility.yul\":4903:5083   */\n    tag_64:\n        /* \"#utility.yul\":4951:5028   */\n      0x4e487b7100000000000000000000000000000000000000000000000000000000\n        /* \"#utility.yul\":4948:4949   */\n      0x00\n        /* \"#utility.yul\":4941:5029   */\n      mstore\n        /* \"#utility.yul\":5048:5052   */\n      0x22\n        /* \"#utility.yul\":5045:5046   */\n      0x04\n        /* \"#utility.yul\":5038:5053   */\n      mstore\n        /* \"#utility.yul\":5072:5076   */\n      0x24\n        /* \"#utility.yul\":5069:5070   */\n      0x00\n        /* \"#utility.yul\":5062:5077   */\n      revert\n        /* \"#utility.yul\":5089:5409   */\n    tag_40:\n        /* \"#utility.yul\":5133:5139   */\n      0x00\n        /* \"#utility.yul\":5170:5171   */\n      0x02\n        /* \"#utility.yul\":5164:5168   */\n      dup3\n        /* \"#utility.yul\":5160:5172   */\n      div\n        /* \"#utility.yul\":5150:5172   */\n      swap1\n      pop\n        /* \"#utility.yul\":5217:5218   */\n      0x01\n        /* \"#utility.yul\":5211:5215   */\n      dup3\n        /* \"#utility.yul\":5207:5219   */\n      and\n        /* \"#utility.yul\":5238:5256   */\n      dup1\n        /* \"#utility.yul\":5228:5309   */\n      tag_121\n      jumpi\n        /* \"#utility.yul\":5294:5298   */\n      0x7f\n        /* \"#utility.yul\":5286:5292   */\n      dup3\n        /* \"#utility.yul\":5282:5299   */\n      and\n        /* \"#utility.yul\":5272:5299   */\n      swap2\n      pop\n        /* \"#utility.yul\":5228:5309   */\n    tag_121:\n        /* \"#utility.yul\":5356:5358   */\n      0x20\n        /* \"#utility.yul\":5348:5354   */\n      dup3\n        /* \"#utility.yul\":5345:5359   */\n      lt\n        /* \"#utility.yul\":5325:5343   */\n      dup2\n        /* \"#utility.yul\":5322:5360   */\n      sub\n        /* \"#utility.yul\":5319:5403   */\n      tag_122\n      jumpi\n        /* \"#utility.yul\":5375:5393   */\n      tag_123\n      tag_64\n      jump\t// in\n    tag_123:\n        /* \"#utility.yul\":5319:5403   */\n    tag_122:\n        /* \"#utility.yul\":5140:5409   */\n      pop\n        /* \"#utility.yul\":5089:5409   */\n      swap2\n      swap1\n      pop\n      jump\t// out\n        /* \"#utility.yul\":5415:5556   */\n    tag_65:\n        /* \"#utility.yul\":5464:5468   */\n      0x00\n        /* \"#utility.yul\":5487:5490   */\n      dup2\n        /* \"#utility.yul\":5479:5490   */\n      swap1\n      pop\n        /* \"#utility.yul\":5510:5513   */\n      dup2\n        /* \"#utility.yul\":5507:5508   */\n      0x00\n        /* \"#utility.yul\":5500:5514   */\n      mstore\n        /* \"#utility.yul\":5544:5548   */\n      0x20\n        /* \"#utility.yul\":5541:5542   */\n      0x00\n        /* \"#utility.yul\":5531:5549   */\n      keccak256\n        /* \"#utility.yul\":5523:5549   */\n      swap1\n      pop\n        /* \"#utility.yul\":5415:5556   */\n      swap2\n      swap1\n      pop\n      jump\t// out\n        /* \"#utility.yul\":5586:6417   */\n    tag_66:\n        /* \"#utility.yul\":5671:5674   */\n      0x00\n        /* \"#utility.yul\":5708:5713   */\n      dup2\n        /* \"#utility.yul\":5702:5714   */\n      sload\n        /* \"#utility.yul\":5737:5773   */\n      tag_126\n        /* \"#utility.yul\":5763:5772   */\n      dup2\n        /* \"#utility.yul\":5737:5773   */\n      tag_40\n      jump\t// in\n    tag_126:\n        /* \"#utility.yul\":5789:5860   */\n      tag_127\n        /* \"#utility.yul\":5853:5859   */\n      dup2\n        /* \"#utility.yul\":5848:5851   */\n      dup7\n        /* \"#utility.yul\":5789:5860   */\n      tag_58\n      jump\t// in\n    tag_127:\n        /* \"#utility.yul\":5782:5860   */\n      swap5\n      pop\n        /* \"#utility.yul\":5891:5892   */\n      0x01\n        /* \"#utility.yul\":5880:5889   */\n      dup3\n        /* \"#utility.yul\":5876:5893   */\n      and\n        /* \"#utility.yul\":5907:5908   */\n      0x00\n        /* \"#utility.yul\":5902:6066   */\n      dup2\n      eq\n      tag_129\n      jumpi\n        /* \"#utility.yul\":6080:6081   */\n      0x01\n        /* \"#utility.yul\":6075:6411   */\n      dup2\n      eq\n      tag_130\n      jumpi\n        /* \"#utility.yul\":5869:6411   */\n      jump(tag_128)\n        /* \"#utility.yul\":5902:6066   */\n    tag_129:\n        /* \"#utility.yul\":5986:5990   */\n      0xff\n        /* \"#utility.yul\":5982:5991   */\n      not\n        /* \"#utility.yul\":5971:5980   */\n      dup4\n        /* \"#utility.yul\":5967:5992   */\n      and\n        /* \"#utility.yul\":5962:5965   */\n      dup7\n        /* \"#utility.yul\":5955:5993   */\n      mstore\n        /* \"#utility.yul\":6046:6052   */\n      dup2\n        /* \"#utility.yul\":6039:6053   */\n      iszero\n        /* \"#utility.yul\":6032:6054   */\n      iszero\n        /* \"#utility.yul\":6026:6030   */\n      0x20\n        /* \"#utility.yul\":6022:6055   */\n      mul\n        /* \"#utility.yul\":6017:6020   */\n      dup7\n        /* \"#utility.yul\":6013:6056   */\n      add\n        /* \"#utility.yul\":6006:6056   */\n      swap4\n      pop\n        /* \"#utility.yul\":5902:6066   */\n      jump(tag_128)\n        /* \"#utility.yul\":6075:6411   */\n    tag_130:\n        /* \"#utility.yul\":6142:6180   */\n      tag_131\n        /* \"#utility.yul\":6174:6179   */\n      dup6\n        /* \"#utility.yul\":6142:6180   */\n      tag_65\n      jump\t// in\n    tag_131:\n        /* \"#utility.yul\":6202:6203   */\n      0x00\n        /* \"#utility.yul\":6216:6370   */\n    tag_132:\n        /* \"#utility.yul\":6230:6236   */\n      dup4\n        /* \"#utility.yul\":6227:6228   */\n      dup2\n        /* \"#utility.yul\":6224:6237   */\n      lt\n        /* \"#utility.yul\":6216:6370   */\n      iszero\n      tag_134\n      jumpi\n        /* \"#utility.yul\":6304:6311   */\n      dup2\n        /* \"#utility.yul\":6298:6312   */\n      sload\n        /* \"#utility.yul\":6294:6295   */\n      dup2\n        /* \"#utility.yul\":6289:6292   */\n      dup10\n        /* \"#utility.yul\":6285:6296   */\n      add\n        /* \"#utility.yul\":6278:6313   */\n      mstore\n        /* \"#utility.yul\":6354:6355   */\n      0x01\n        /* \"#utility.yul\":6345:6352   */\n      dup3\n        /* \"#utility.yul\":6341:6356   */\n      add\n        /* \"#utility.yul\":6330:6356   */\n      swap2\n      pop\n        /* \"#utility.yul\":6252:6256   */\n      0x20\n        /* \"#utility.yul\":6249:6250   */\n      dup2\n        /* \"#utility.yul\":6245:6257   */\n      add\n        /* \"#utility.yul\":6240:6257   */\n      swap1\n      pop\n        /* \"#utility.yul\":6216:6370   */\n      jump(tag_132)\n    tag_134:\n        /* \"#utility.yul\":6399:6400   */\n      dup1\n        /* \"#utility.yul\":6394:6397   */\n      dup9\n        /* \"#utility.yul\":6390:6401   */\n      add\n        /* \"#utility.yul\":6383:6401   */\n      swap6\n      pop\n        /* \"#utility.yul\":6082:6411   */\n      pop\n      pop\n        /* \"#utility.yul\":5869:6411   */\n    tag_128:\n      pop\n        /* \"#utility.yul\":5675:6417   */\n      pop\n      pop\n        /* \"#utility.yul\":5586:6417   */\n      swap3\n      swap2\n      pop\n      pop\n      jump\t// out\n        /* \"#utility.yul\":6423:6840   */\n    tag_34:\n        /* \"#utility.yul\":6561:6565   */\n      0x00\n        /* \"#utility.yul\":6599:6601   */\n      0x40\n        /* \"#utility.yul\":6588:6597   */\n      dup3\n        /* \"#utility.yul\":6584:6602   */\n      add\n        /* \"#utility.yul\":6576:6602   */\n      swap1\n      pop\n        /* \"#utility.yul\":6612:6683   */\n      tag_136\n        /* \"#utility.yul\":6680:6681   */\n      0x00\n        /* \"#utility.yul\":6669:6678   */\n      dup4\n        /* \"#utility.yul\":6665:6682   */\n      add\n        /* \"#utility.yul\":6656:6662   */\n      dup6\n        /* \"#utility.yul\":6612:6683   */\n      tag_52\n      jump\t// in\n    tag_136:\n        /* \"#utility.yul\":6730:6739   */\n      dup2\n        /* \"#utility.yul\":6724:6728   */\n      dup2\n        /* \"#utility.yul\":6720:6740   */\n      sub\n        /* \"#utility.yul\":6715:6717   */\n      0x20\n        /* \"#utility.yul\":6704:6713   */\n      dup4\n        /* \"#utility.yul\":6700:6718   */\n      add\n        /* \"#utility.yul\":6693:6741   */\n      mstore\n        /* \"#utility.yul\":6758:6833   */\n      tag_137\n        /* \"#utility.yul\":6828:6832   */\n      dup2\n        /* \"#utility.yul\":6819:6825   */\n      dup5\n        /* \"#utility.yul\":6758:6833   */\n      tag_66\n      jump\t// in\n    tag_137:\n        /* \"#utility.yul\":6750:6833   */\n      swap1\n      pop\n        /* \"#utility.yul\":6423:6840   */\n      swap4\n      swap3\n      pop\n      pop\n      pop\n      jump\t// out\n\n    auxdata: 0xa2646970667358221220448dfa39e8c0fc08c161b1a48a914c5a10f22a064955542ddc83e730e70a58c864736f6c63430008190033\n}\n","bytecode":{"linkReferences":{},"object":"608060405234801561000f575f80fd5b50604051610c38380380610c38833981810160405281019061003191906101d3565b80600190816100409190610427565b50335f806101000a81548173ffffffffffffffffffffffffffffffffffffffff021916908373ffffffffffffffffffffffffffffffffffffffff160217905550506104f6565b5f604051905090565b5f80fd5b5f80fd5b5f80fd5b5f80fd5b5f601f19601f8301169050919050565b7f4e487b71000000000000000000000000000000000000000000000000000000005f52604160045260245ffd5b6100e58261009f565b810181811067ffffffffffffffff82111715610104576101036100af565b5b80604052505050565b5f610116610086565b905061012282826100dc565b919050565b5f67ffffffffffffffff821115610141576101406100af565b5b61014a8261009f565b9050602081019050919050565b8281835e5f83830152505050565b5f61017761017284610127565b61010d565b9050828152602081018484840111156101935761019261009b565b5b61019e848285610157565b509392505050565b5f82601f8301126101ba576101b9610097565b5b81516101ca848260208601610165565b91505092915050565b5f602082840312156101e8576101e761008f565b5b5f82015167ffffffffffffffff81111561020557610204610093565b5b610211848285016101a6565b91505092915050565b5f81519050919050565b7f4e487b71000000000000000000000000000000000000000000000000000000005f52602260045260245ffd5b5f600282049050600182168061026857607f821691505b60208210810361027b5761027a610224565b5b50919050565b5f819050815f5260205f209050919050565b5f6020601f8301049050919050565b5f82821b905092915050565b5f600883026102dd7fffffffffffffffffffffffffffffffffffffffffffffffffffffffffffffffff826102a2565b6102e786836102a2565b95508019841693508086168417925050509392505050565b5f819050919050565b5f819050919050565b5f61032b610326610321846102ff565b610308565b6102ff565b9050919050565b5f819050919050565b61034483610311565b61035861035082610332565b8484546102ae565b825550505050565b5f90565b61036c610360565b61037781848461033b565b505050565b5b8181101561039a5761038f5f82610364565b60018101905061037d565b5050565b601f8211156103df576103b081610281565b6103b984610293565b810160208510156103c8578190505b6103dc6103d485610293565b83018261037c565b50505b505050565b5f82821c905092915050565b5f6103ff5f19846008026103e4565b1980831691505092915050565b5f61041783836103f0565b9150826002028217905092915050565b6104308261021a565b67ffffffffffffffff811115610449576104486100af565b5b6104538254610251565b61045e82828561039e565b5f60209050601f83116001811461048f575f841561047d578287015190505b610487858261040c565b8655506104ee565b601f19841661049d86610281565b5f5b828110156104c45784890151825560018201915060208501945060208101905061049f565b868310156104e157848901516104dd601f8916826103f0565b8355505b6001600288020188555050505b505050505050565b610735806105035f395ff3fe608060405234801561000f575f80fd5b5060043610610055575f3560e01c80632c62c181146100595780638da5cb5b14610075578063a52242c914610093578063b0ee77c8146100c3578063c5a8fa73146100df575b5f80fd5b610073600480360381019061006e91906103fb565b6100fd565b005b61007d61026e565b60405161008a9190610435565b60405180910390f35b6100ad60048036038101906100a891906103fb565b610291565b6040516100ba9190610468565b60405180910390f35b6100dd60048036038101906100d891906104ab565b6102b7565b005b6100e7610311565b6040516100f49190610559565b60405180910390f35b5f8190505f8273ffffffffffffffffffffffffffffffffffffffff168273ffffffffffffffffffffffffffffffffffffffff1614905080610173576040517f08c379a000000000000000000000000000000000000000000000000000000000815260040161016a906105c3565b60405180910390fd5b8173ffffffffffffffffffffffffffffffffffffffff1663c97edb485f8054906101000a900473ffffffffffffffffffffffffffffffffffffffff1660016040518363ffffffff1660e01b81526004016101ce9291906106d1565b5f604051808303815f87803b1580156101e5575f80fd5b505af11580156101f7573d5f803e3d5ffd5b5050505060405180602001604052805f151581525060025f8573ffffffffffffffffffffffffffffffffffffffff1673ffffffffffffffffffffffffffffffffffffffff1681526020019081526020015f205f820151815f015f6101000a81548160ff021916908315150217905550905050505050565b5f8054906101000a900473ffffffffffffffffffffffffffffffffffffffff1681565b6002602052805f5260405f205f91509050805f015f9054906101000a900460ff16905081565b8060025f8473ffffffffffffffffffffffffffffffffffffffff1673ffffffffffffffffffffffffffffffffffffffff1681526020019081526020015f205f015f6101000a81548160ff0219169083151502179055505050565b6001805461031e9061060e565b80601f016020809104026020016040519081016040528092919081815260200182805461034a9061060e565b80156103955780601f1061036c57610100808354040283529160200191610395565b820191905f5260205f20905b81548152906001019060200180831161037857829003601f168201915b505050505081565b5f80fd5b5f73ffffffffffffffffffffffffffffffffffffffff82169050919050565b5f6103ca826103a1565b9050919050565b6103da816103c0565b81146103e4575f80fd5b50565b5f813590506103f5816103d1565b92915050565b5f602082840312156104105761040f61039d565b5b5f61041d848285016103e7565b91505092915050565b61042f816103c0565b82525050565b5f6020820190506104485f830184610426565b92915050565b5f8115159050919050565b6104628161044e565b82525050565b5f60208201905061047b5f830184610459565b92915050565b61048a8161044e565b8114610494575f80fd5b50565b5f813590506104a581610481565b92915050565b5f80604083850312156104c1576104c061039d565b5b5f6104ce858286016103e7565b92505060206104df85828601610497565b9150509250929050565b5f81519050919050565b5f82825260208201905092915050565b8281835e5f83830152505050565b5f601f19601f8301169050919050565b5f61052b826104e9565b61053581856104f3565b9350610545818560208601610503565b61054e81610511565b840191505092915050565b5f6020820190508181035f8301526105718184610521565b905092915050565b7f496e76616c696420656d706c6f79657220696e7374616e6365000000000000005f82015250565b5f6105ad6019836104f3565b91506105b882610579565b602082019050919050565b5f6020820190508181035f8301526105da816105a1565b9050919050565b7f4e487b71000000000000000000000000000000000000000000000000000000005f52602260045260245ffd5b5f600282049050600182168061062557607f821691505b602082108103610638576106376105e1565b5b50919050565b5f819050815f5260205f209050919050565b5f815461065c8161060e565b61066681866104f3565b9450600182165f81146106805760018114610696576106c8565b60ff1983168652811515602002860193506106c8565b61069f8561063e565b5f5b838110156106c0578154818901526001820191506020810190506106a1565b808801955050505b50505092915050565b5f6040820190506106e45f830185610426565b81810360208301526106f68184610650565b9050939250505056fea2646970667358221220448dfa39e8c0fc08c161b1a48a914c5a10f22a064955542ddc83e730e70a58c864736f6c63430008190033","opcodes":"PUSH1 0x80 PUSH1 0x40 MSTORE CALLVALUE DUP1 ISZERO PUSH2 0xF JUMPI PUSH0 DUP1 REVERT JUMPDEST POP PUSH1 0x40 MLOAD PUSH2 0xC38 CODESIZE SUB DUP1 PUSH2 0xC38 DUP4 CODECOPY DUP2 DUP2 ADD PUSH1 0x40 MSTORE DUP2 ADD SWAP1 PUSH2 0x31 SWAP2 SWAP1 PUSH2 0x1D3 JUMP JUMPDEST DUP1 PUSH1 0x1 SWAP1 DUP2 PUSH2 0x40 SWAP2 SWAP1 PUSH2 0x427 JUMP JUMPDEST POP CALLER PUSH0 DUP1 PUSH2 0x100 EXP DUP2 SLOAD DUP2 PUSH20 0xFFFFFFFFFFFFFFFFFFFFFFFFFFFFFFFFFFFFFFFF MUL NOT AND SWAP1 DUP4 PUSH20 0xFFFFFFFFFFFFFFFFFFFFFFFFFFFFFFFFFFFFFFFF AND MUL OR SWAP1 SSTORE POP POP PUSH2 0x4F6 JUMP JUMPDEST PUSH0 PUSH1 0x40 MLOAD SWAP1 POP SWAP1 JUMP JUMPDEST PUSH0 DUP1 REVERT JUMPDEST PUSH0 DUP1 REVERT JUMPDEST PUSH0 DUP1 REVERT JUMPDEST PUSH0 DUP1 REVERT JUMPDEST PUSH0 PUSH1 0x1F NOT PUSH1 0x1F DUP4 ADD AND SWAP1 POP SWAP2 SWAP1 POP JUMP JUMPDEST PUSH32 0x4E487B7100000000000000000000000000000000000000000000000000000000 PUSH0 MSTORE PUSH1 0x41 PUSH1 0x4 MSTORE PUSH1 0x24 PUSH0 REVERT JUMPDEST PUSH2 0xE5 DUP3 PUSH2 0x9F JUMP JUMPDEST DUP2 ADD DUP2 DUP2 LT PUSH8 0xFFFFFFFFFFFFFFFF DUP3 GT OR ISZERO PUSH2 0x104 JUMPI PUSH2 0x103 PUSH2 0xAF JUMP JUMPDEST JUMPDEST DUP1 PUSH1 0x40 MSTORE POP POP POP JUMP JUMPDEST PUSH0 PUSH2 0x116 PUSH2 0x86 JUMP JUMPDEST SWAP1 POP PUSH2 0x122 DUP3 DUP3 PUSH2 0xDC JUMP JUMPDEST SWAP2 SWAP1 POP JUMP JUMPDEST PUSH0 PUSH8 0xFFFFFFFFFFFFFFFF DUP3 GT ISZERO PUSH2 0x141 JUMPI PUSH2 0x140 PUSH2 0xAF JUMP JUMPDEST JUMPDEST PUSH2 0x14A DUP3 PUSH2 0x9F JUMP JUMPDEST SWAP1 POP PUSH1 0x20 DUP2 ADD SWAP1 POP SWAP2 SWAP1 POP JUMP JUMPDEST DUP3 DUP2 DUP4 MCOPY PUSH0 DUP4 DUP4 ADD MSTORE POP POP POP JUMP JUMPDEST PUSH0 PUSH2 0x177 PUSH2 0x172 DUP5 PUSH2 0x127 JUMP JUMPDEST PUSH2 0x10D JUMP JUMPDEST SWAP1 POP DUP3 DUP2 MSTORE PUSH1 0x20 DUP2 ADD DUP5 DUP5 DUP5 ADD GT ISZERO PUSH2 0x193 JUMPI PUSH2 0x192 PUSH2 0x9B JUMP JUMPDEST JUMPDEST PUSH2 0x19E DUP5 DUP3 DUP6 PUSH2 0x157 JUMP JUMPDEST POP SWAP4 SWAP3 POP POP POP JUMP JUMPDEST PUSH0 DUP3 PUSH1 0x1F DUP4 ADD SLT PUSH2 0x1BA JUMPI PUSH2 0x1B9 PUSH2 0x97 JUMP JUMPDEST JUMPDEST DUP2 MLOAD PUSH2 0x1CA DUP5 DUP3 PUSH1 0x20 DUP7 ADD PUSH2 0x165 JUMP JUMPDEST SWAP2 POP POP SWAP3 SWAP2 POP POP JUMP JUMPDEST PUSH0 PUSH1 0x20 DUP3 DUP5 SUB SLT ISZERO PUSH2 0x1E8 JUMPI PUSH2 0x1E7 PUSH2 0x8F JUMP JUMPDEST JUMPDEST PUSH0 DUP3 ADD MLOAD PUSH8 0xFFFFFFFFFFFFFFFF DUP2 GT ISZERO PUSH2 0x205 JUMPI PUSH2 0x204 PUSH2 0x93 JUMP JUMPDEST JUMPDEST PUSH2 0x211 DUP5 DUP3 DUP6 ADD PUSH2 0x1A6 JUMP JUMPDEST SWAP2 POP POP SWAP3 SWAP2 POP POP JUMP JUMPDEST PUSH0 DUP2 MLOAD SWAP1 POP SWAP2 SWAP1 POP JUMP JUMPDEST PUSH32 0x4E487B7100000000000000000000000000000000000000000000000000000000 PUSH0 MSTORE PUSH1 0x22 PUSH1 0x4 MSTORE PUSH1 0x24 PUSH0 REVERT JUMPDEST PUSH0 PUSH1 0x2 DUP3 DIV SWAP1 POP PUSH1 0x1 DUP3 AND DUP1 PUSH2 0x268 JUMPI PUSH1 0x7F DUP3 AND SWAP2 POP JUMPDEST PUSH1 0x20 DUP3 LT DUP2 SUB PUSH2 0x27B JUMPI PUSH2 0x27A PUSH2 0x224 JUMP JUMPDEST JUMPDEST POP SWAP2 SWAP1 POP JUMP JUMPDEST PUSH0 DUP2 SWAP1 POP DUP2 PUSH0 MSTORE PUSH1 0x20 PUSH0 KECCAK256 SWAP1 POP SWAP2 SWAP1 POP JUMP JUMPDEST PUSH0 PUSH1 0x20 PUSH1 0x1F DUP4 ADD DIV SWAP1 POP SWAP2 SWAP1 POP JUMP JUMPDEST PUSH0 DUP3 DUP3 SHL SWAP1 POP SWAP3 SWAP2 POP POP JUMP JUMPDEST PUSH0 PUSH1 0x8 DUP4 MUL PUSH2 0x2DD PUSH32 0xFFFFFFFFFFFFFFFFFFFFFFFFFFFFFFFFFFFFFFFFFFFFFFFFFFFFFFFFFFFFFFFF DUP3 PUSH2 0x2A2 JUMP JUMPDEST PUSH2 0x2E7 DUP7 DUP4 PUSH2 0x2A2 JUMP JUMPDEST SWAP6 POP DUP1 NOT DUP5 AND SWAP4 POP DUP1 DUP7 AND DUP5 OR SWAP3 POP POP POP SWAP4 SWAP3 POP POP POP JUMP JUMPDEST PUSH0 DUP2 SWAP1 POP SWAP2 SWAP1 POP JUMP JUMPDEST PUSH0 DUP2 SWAP1 POP SWAP2 SWAP1 POP JUMP JUMPDEST PUSH0 PUSH2 0x32B PUSH2 0x326 PUSH2 0x321 DUP5 PUSH2 0x2FF JUMP JUMPDEST PUSH2 0x308 JUMP JUMPDEST PUSH2 0x2FF JUMP JUMPDEST SWAP1 POP SWAP2 SWAP1 POP JUMP JUMPDEST PUSH0 DUP2 SWAP1 POP SWAP2 SWAP1 POP JUMP JUMPDEST PUSH2 0x344 DUP4 PUSH2 0x311 JUMP JUMPDEST PUSH2 0x358 PUSH2 0x350 DUP3 PUSH2 0x332 JUMP JUMPDEST DUP5 DUP5 SLOAD PUSH2 0x2AE JUMP JUMPDEST DUP3 SSTORE POP POP POP POP JUMP JUMPDEST PUSH0 SWAP1 JUMP JUMPDEST PUSH2 0x36C PUSH2 0x360 JUMP JUMPDEST PUSH2 0x377 DUP2 DUP5 DUP5 PUSH2 0x33B JUMP JUMPDEST POP POP POP JUMP JUMPDEST JUMPDEST DUP2 DUP2 LT ISZERO PUSH2 0x39A JUMPI PUSH2 0x38F PUSH0 DUP3 PUSH2 0x364 JUMP JUMPDEST PUSH1 0x1 DUP2 ADD SWAP1 POP PUSH2 0x37D JUMP JUMPDEST POP POP JUMP JUMPDEST PUSH1 0x1F DUP3 GT ISZERO PUSH2 0x3DF JUMPI PUSH2 0x3B0 DUP2 PUSH2 0x281 JUMP JUMPDEST PUSH2 0x3B9 DUP5 PUSH2 0x293 JUMP JUMPDEST DUP2 ADD PUSH1 0x20 DUP6 LT ISZERO PUSH2 0x3C8 JUMPI DUP2 SWAP1 POP JUMPDEST PUSH2 0x3DC PUSH2 0x3D4 DUP6 PUSH2 0x293 JUMP JUMPDEST DUP4 ADD DUP3 PUSH2 0x37C JUMP JUMPDEST POP POP JUMPDEST POP POP POP JUMP JUMPDEST PUSH0 DUP3 DUP3 SHR SWAP1 POP SWAP3 SWAP2 POP POP JUMP JUMPDEST PUSH0 PUSH2 0x3FF PUSH0 NOT DUP5 PUSH1 0x8 MUL PUSH2 0x3E4 JUMP JUMPDEST NOT DUP1 DUP4 AND SWAP2 POP POP SWAP3 SWAP2 POP POP JUMP JUMPDEST PUSH0 PUSH2 0x417 DUP4 DUP4 PUSH2 0x3F0 JUMP JUMPDEST SWAP2 POP DUP3 PUSH1 0x2 MUL DUP3 OR SWAP1 POP SWAP3 SWAP2 POP POP JUMP JUMPDEST PUSH2 0x430 DUP3 PUSH2 0x21A JUMP JUMPDEST PUSH8 0xFFFFFFFFFFFFFFFF DUP2 GT ISZERO PUSH2 0x449 JUMPI PUSH2 0x448 PUSH2 0xAF JUMP JUMPDEST JUMPDEST PUSH2 0x453 DUP3 SLOAD PUSH2 0x251 JUMP JUMPDEST PUSH2 0x45E DUP3 DUP3 DUP6 PUSH2 0x39E JUMP JUMPDEST PUSH0 PUSH1 0x20 SWAP1 POP PUSH1 0x1F DUP4 GT PUSH1 0x1 DUP2 EQ PUSH2 0x48F JUMPI PUSH0 DUP5 ISZERO PUSH2 0x47D JUMPI DUP3 DUP8 ADD MLOAD SWAP1 POP JUMPDEST PUSH2 0x487 DUP6 DUP3 PUSH2 0x40C JUMP JUMPDEST DUP7 SSTORE POP PUSH2 0x4EE JUMP JUMPDEST PUSH1 0x1F NOT DUP5 AND PUSH2 0x49D DUP7 PUSH2 0x281 JUMP JUMPDEST PUSH0 JUMPDEST DUP3 DUP2 LT ISZERO PUSH2 0x4C4 JUMPI DUP5 DUP10 ADD MLOAD DUP3 SSTORE PUSH1 0x1 DUP3 ADD SWAP2 POP PUSH1 0x20 DUP6 ADD SWAP5 POP PUSH1 0x20 DUP2 ADD SWAP1 POP PUSH2 0x49F JUMP JUMPDEST DUP7 DUP4 LT ISZERO PUSH2 0x4E1 JUMPI DUP5 DUP10 ADD MLOAD PUSH2 0x4DD PUSH1 0x1F DUP10 AND DUP3 PUSH2 0x3F0 JUMP JUMPDEST DUP4 SSTORE POP JUMPDEST PUSH1 0x1 PUSH1 0x2 DUP9 MUL ADD DUP9 SSTORE POP POP POP JUMPDEST POP POP POP POP POP POP JUMP JUMPDEST PUSH2 0x735 DUP1 PUSH2 0x503 PUSH0 CODECOPY PUSH0 RETURN INVALID PUSH1 0x80 PUSH1 0x40 MSTORE CALLVALUE DUP1 ISZERO PUSH2 0xF JUMPI PUSH0 DUP1 REVERT JUMPDEST POP PUSH1 0x4 CALLDATASIZE LT PUSH2 0x55 JUMPI PUSH0 CALLDATALOAD PUSH1 0xE0 SHR DUP1 PUSH4 0x2C62C181 EQ PUSH2 0x59 JUMPI DUP1 PUSH4 0x8DA5CB5B EQ PUSH2 0x75 JUMPI DUP1 PUSH4 0xA52242C9 EQ PUSH2 0x93 JUMPI DUP1 PUSH4 0xB0EE77C8 EQ PUSH2 0xC3 JUMPI DUP1 PUSH4 0xC5A8FA73 EQ PUSH2 0xDF JUMPI JUMPDEST PUSH0 DUP1 REVERT JUMPDEST PUSH2 0x73 PUSH1 0x4 DUP1 CALLDATASIZE SUB DUP2 ADD SWAP1 PUSH2 0x6E SWAP2 SWAP1 PUSH2 0x3FB JUMP JUMPDEST PUSH2 0xFD JUMP JUMPDEST STOP JUMPDEST PUSH2 0x7D PUSH2 0x26E JUMP JUMPDEST PUSH1 0x40 MLOAD PUSH2 0x8A SWAP2 SWAP1 PUSH2 0x435 JUMP JUMPDEST PUSH1 0x40 MLOAD DUP1 SWAP2 SUB SWAP1 RETURN JUMPDEST PUSH2 0xAD PUSH1 0x4 DUP1 CALLDATASIZE SUB DUP2 ADD SWAP1 PUSH2 0xA8 SWAP2 SWAP1 PUSH2 0x3FB JUMP JUMPDEST PUSH2 0x291 JUMP JUMPDEST PUSH1 0x40 MLOAD PUSH2 0xBA SWAP2 SWAP1 PUSH2 0x468 JUMP JUMPDEST PUSH1 0x40 MLOAD DUP1 SWAP2 SUB SWAP1 RETURN JUMPDEST PUSH2 0xDD PUSH1 0x4 DUP1 CALLDATASIZE SUB DUP2 ADD SWAP1 PUSH2 0xD8 SWAP2 SWAP1 PUSH2 0x4AB JUMP JUMPDEST PUSH2 0x2B7 JUMP JUMPDEST STOP JUMPDEST PUSH2 0xE7 PUSH2 0x311 JUMP JUMPDEST PUSH1 0x40 MLOAD PUSH2 0xF4 SWAP2 SWAP1 PUSH2 0x559 JUMP JUMPDEST PUSH1 0x40 MLOAD DUP1 SWAP2 SUB SWAP1 RETURN JUMPDEST PUSH0 DUP2 SWAP1 POP PUSH0 DUP3 PUSH20 0xFFFFFFFFFFFFFFFFFFFFFFFFFFFFFFFFFFFFFFFF AND DUP3 PUSH20 0xFFFFFFFFFFFFFFFFFFFFFFFFFFFFFFFFFFFFFFFF AND EQ SWAP1 POP DUP1 PUSH2 0x173 JUMPI PUSH1 0x40 MLOAD PUSH32 0x8C379A000000000000000000000000000000000000000000000000000000000 DUP2 MSTORE PUSH1 0x4 ADD PUSH2 0x16A SWAP1 PUSH2 0x5C3 JUMP JUMPDEST PUSH1 0x40 MLOAD DUP1 SWAP2 SUB SWAP1 REVERT JUMPDEST DUP2 PUSH20 0xFFFFFFFFFFFFFFFFFFFFFFFFFFFFFFFFFFFFFFFF AND PUSH4 0xC97EDB48 PUSH0 DUP1 SLOAD SWAP1 PUSH2 0x100 EXP SWAP1 DIV PUSH20 0xFFFFFFFFFFFFFFFFFFFFFFFFFFFFFFFFFFFFFFFF AND PUSH1 0x1 PUSH1 0x40 MLOAD DUP4 PUSH4 0xFFFFFFFF AND PUSH1 0xE0 SHL DUP2 MSTORE PUSH1 0x4 ADD PUSH2 0x1CE SWAP3 SWAP2 SWAP1 PUSH2 0x6D1 JUMP JUMPDEST PUSH0 PUSH1 0x40 MLOAD DUP1 DUP4 SUB DUP2 PUSH0 DUP8 DUP1 EXTCODESIZE ISZERO DUP1 ISZERO PUSH2 0x1E5 JUMPI PUSH0 DUP1 REVERT JUMPDEST POP GAS CALL ISZERO DUP1 ISZERO PUSH2 0x1F7 JUMPI RETURNDATASIZE PUSH0 DUP1 RETURNDATACOPY RETURNDATASIZE PUSH0 REVERT JUMPDEST POP POP POP POP PUSH1 0x40 MLOAD DUP1 PUSH1 0x20 ADD PUSH1 0x40 MSTORE DUP1 PUSH0 ISZERO ISZERO DUP2 MSTORE POP PUSH1 0x2 PUSH0 DUP6 PUSH20 0xFFFFFFFFFFFFFFFFFFFFFFFFFFFFFFFFFFFFFFFF AND PUSH20 0xFFFFFFFFFFFFFFFFFFFFFFFFFFFFFFFFFFFFFFFF AND DUP2 MSTORE PUSH1 0x20 ADD SWAP1 DUP2 MSTORE PUSH1 0x20 ADD PUSH0 KECCAK256 PUSH0 DUP3 ADD MLOAD DUP2 PUSH0 ADD PUSH0 PUSH2 0x100 EXP DUP2 SLOAD DUP2 PUSH1 0xFF MUL NOT AND SWAP1 DUP4 ISZERO ISZERO MUL OR SWAP1 SSTORE POP SWAP1 POP POP POP POP POP JUMP JUMPDEST PUSH0 DUP1 SLOAD SWAP1 PUSH2 0x100 EXP SWAP1 DIV PUSH20 0xFFFFFFFFFFFFFFFFFFFFFFFFFFFFFFFFFFFFFFFF AND DUP2 JUMP JUMPDEST PUSH1 0x2 PUSH1 0x20 MSTORE DUP1 PUSH0 MSTORE PUSH1 0x40 PUSH0 KECCAK256 PUSH0 SWAP2 POP SWAP1 POP DUP1 PUSH0 ADD PUSH0 SWAP1 SLOAD SWAP1 PUSH2 0x100 EXP SWAP1 DIV PUSH1 0xFF AND SWAP1 POP DUP2 JUMP JUMPDEST DUP1 PUSH1 0x2 PUSH0 DUP5 PUSH20 0xFFFFFFFFFFFFFFFFFFFFFFFFFFFFFFFFFFFFFFFF AND PUSH20 0xFFFFFFFFFFFFFFFFFFFFFFFFFFFFFFFFFFFFFFFF AND DUP2 MSTORE PUSH1 0x20 ADD SWAP1 DUP2 MSTORE PUSH1 0x20 ADD PUSH0 KECCAK256 PUSH0 ADD PUSH0 PUSH2 0x100 EXP DUP2 SLOAD DUP2 PUSH1 0xFF MUL NOT AND SWAP1 DUP4 ISZERO ISZERO MUL OR SWAP1 SSTORE POP POP POP JUMP JUMPDEST PUSH1 0x1 DUP1 SLOAD PUSH2 0x31E SWAP1 PUSH2 0x60E JUMP JUMPDEST DUP1 PUSH1 0x1F ADD PUSH1 0x20 DUP1 SWAP2 DIV MUL PUSH1 0x20 ADD PUSH1 0x40 MLOAD SWAP1 DUP2 ADD PUSH1 0x40 MSTORE DUP1 SWAP3 SWAP2 SWAP1 DUP2 DUP2 MSTORE PUSH1 0x20 ADD DUP3 DUP1 SLOAD PUSH2 0x34A SWAP1 PUSH2 0x60E JUMP JUMPDEST DUP1 ISZERO PUSH2 0x395 JUMPI DUP1 PUSH1 0x1F LT PUSH2 0x36C JUMPI PUSH2 0x100 DUP1 DUP4 SLOAD DIV MUL DUP4 MSTORE SWAP2 PUSH1 0x20 ADD SWAP2 PUSH2 0x395 JUMP JUMPDEST DUP3 ADD SWAP2 SWAP1 PUSH0 MSTORE PUSH1 0x20 PUSH0 KECCAK256 SWAP1 JUMPDEST DUP2 SLOAD DUP2 MSTORE SWAP1 PUSH1 0x1 ADD SWAP1 PUSH1 0x20 ADD DUP1 DUP4 GT PUSH2 0x378 JUMPI DUP3 SWAP1 SUB PUSH1 0x1F AND DUP3 ADD SWAP2 JUMPDEST POP POP POP POP POP DUP2 JUMP JUMPDEST PUSH0 DUP1 REVERT JUMPDEST PUSH0 PUSH20 0xFFFFFFFFFFFFFFFFFFFFFFFFFFFFFFFFFFFFFFFF DUP3 AND SWAP1 POP SWAP2 SWAP1 POP JUMP JUMPDEST PUSH0 PUSH2 0x3CA DUP3 PUSH2 0x3A1 JUMP JUMPDEST SWAP1 POP SWAP2 SWAP1 POP JUMP JUMPDEST PUSH2 0x3DA DUP2 PUSH2 0x3C0 JUMP JUMPDEST DUP2 EQ PUSH2 0x3E4 JUMPI PUSH0 DUP1 REVERT JUMPDEST POP JUMP JUMPDEST PUSH0 DUP2 CALLDATALOAD SWAP1 POP PUSH2 0x3F5 DUP2 PUSH2 0x3D1 JUMP JUMPDEST SWAP3 SWAP2 POP POP JUMP JUMPDEST PUSH0 PUSH1 0x20 DUP3 DUP5 SUB SLT ISZERO PUSH2 0x410 JUMPI PUSH2 0x40F PUSH2 0x39D JUMP JUMPDEST JUMPDEST PUSH0 PUSH2 0x41D DUP5 DUP3 DUP6 ADD PUSH2 0x3E7 JUMP JUMPDEST SWAP2 POP POP SWAP3 SWAP2 POP POP JUMP JUMPDEST PUSH2 0x42F DUP2 PUSH2 0x3C0 JUMP JUMPDEST DUP3 MSTORE POP POP JUMP JUMPDEST PUSH0 PUSH1 0x20 DUP3 ADD SWAP1 POP PUSH2 0x448 PUSH0 DUP4 ADD DUP5 PUSH2 0x426 JUMP JUMPDEST SWAP3 SWAP2 POP POP JUMP JUMPDEST PUSH0 DUP2 ISZERO ISZERO SWAP1 POP SWAP2 SWAP1 POP JUMP JUMPDEST PUSH2 0x462 DUP2 PUSH2 0x44E JUMP JUMPDEST DUP3 MSTORE POP POP JUMP JUMPDEST PUSH0 PUSH1 0x20 DUP3 ADD SWAP1 POP PUSH2 0x47B PUSH0 DUP4 ADD DUP5 PUSH2 0x459 JUMP JUMPDEST SWAP3 SWAP2 POP POP JUMP JUMPDEST PUSH2 0x48A DUP2 PUSH2 0x44E JUMP JUMPDEST DUP2 EQ PUSH2 0x494 JUMPI PUSH0 DUP1 REVERT JUMPDEST POP JUMP JUMPDEST PUSH0 DUP2 CALLDATALOAD SWAP1 POP PUSH2 0x4A5 DUP2 PUSH2 0x481 JUMP JUMPDEST SWAP3 SWAP2 POP POP JUMP JUMPDEST PUSH0 DUP1 PUSH1 0x40 DUP4 DUP6 SUB SLT ISZERO PUSH2 0x4C1 JUMPI PUSH2 0x4C0 PUSH2 0x39D JUMP JUMPDEST JUMPDEST PUSH0 PUSH2 0x4CE DUP6 DUP3 DUP7 ADD PUSH2 0x3E7 JUMP JUMPDEST SWAP3 POP POP PUSH1 0x20 PUSH2 0x4DF DUP6 DUP3 DUP7 ADD PUSH2 0x497 JUMP JUMPDEST SWAP2 POP POP SWAP3 POP SWAP3 SWAP1 POP JUMP JUMPDEST PUSH0 DUP2 MLOAD SWAP1 POP SWAP2 SWAP1 POP JUMP JUMPDEST PUSH0 DUP3 DUP3 MSTORE PUSH1 0x20 DUP3 ADD SWAP1 POP SWAP3 SWAP2 POP POP JUMP JUMPDEST DUP3 DUP2 DUP4 MCOPY PUSH0 DUP4 DUP4 ADD MSTORE POP POP POP JUMP JUMPDEST PUSH0 PUSH1 0x1F NOT PUSH1 0x1F DUP4 ADD AND SWAP1 POP SWAP2 SWAP1 POP JUMP JUMPDEST PUSH0 PUSH2 0x52B DUP3 PUSH2 0x4E9 JUMP JUMPDEST PUSH2 0x535 DUP2 DUP6 PUSH2 0x4F3 JUMP JUMPDEST SWAP4 POP PUSH2 0x545 DUP2 DUP6 PUSH1 0x20 DUP7 ADD PUSH2 0x503 JUMP JUMPDEST PUSH2 0x54E DUP2 PUSH2 0x511 JUMP JUMPDEST DUP5 ADD SWAP2 POP POP SWAP3 SWAP2 POP POP JUMP JUMPDEST PUSH0 PUSH1 0x20 DUP3 ADD SWAP1 POP DUP2 DUP2 SUB PUSH0 DUP4 ADD MSTORE PUSH2 0x571 DUP2 DUP5 PUSH2 0x521 JUMP JUMPDEST SWAP1 POP SWAP3 SWAP2 POP POP JUMP JUMPDEST PUSH32 0x496E76616C696420656D706C6F79657220696E7374616E636500000000000000 PUSH0 DUP3 ADD MSTORE POP JUMP JUMPDEST PUSH0 PUSH2 0x5AD PUSH1 0x19 DUP4 PUSH2 0x4F3 JUMP JUMPDEST SWAP2 POP PUSH2 0x5B8 DUP3 PUSH2 0x579 JUMP JUMPDEST PUSH1 0x20 DUP3 ADD SWAP1 POP SWAP2 SWAP1 POP JUMP JUMPDEST PUSH0 PUSH1 0x20 DUP3 ADD SWAP1 POP DUP2 DUP2 SUB PUSH0 DUP4 ADD MSTORE PUSH2 0x5DA DUP2 PUSH2 0x5A1 JUMP JUMPDEST SWAP1 POP SWAP2 SWAP1 POP JUMP JUMPDEST PUSH32 0x4E487B7100000000000000000000000000000000000000000000000000000000 PUSH0 MSTORE PUSH1 0x22 PUSH1 0x4 MSTORE PUSH1 0x24 PUSH0 REVERT JUMPDEST PUSH0 PUSH1 0x2 DUP3 DIV SWAP1 POP PUSH1 0x1 DUP3 AND DUP1 PUSH2 0x625 JUMPI PUSH1 0x7F DUP3 AND SWAP2 POP JUMPDEST PUSH1 0x20 DUP3 LT DUP2 SUB PUSH2 0x638 JUMPI PUSH2 0x637 PUSH2 0x5E1 JUMP JUMPDEST JUMPDEST POP SWAP2 SWAP1 POP JUMP JUMPDEST PUSH0 DUP2 SWAP1 POP DUP2 PUSH0 MSTORE PUSH1 0x20 PUSH0 KECCAK256 SWAP1 POP SWAP2 SWAP1 POP JUMP JUMPDEST PUSH0 DUP2 SLOAD PUSH2 0x65C DUP2 PUSH2 0x60E JUMP JUMPDEST PUSH2 0x666 DUP2 DUP7 PUSH2 0x4F3 JUMP JUMPDEST SWAP5 POP PUSH1 0x1 DUP3 AND PUSH0 DUP2 EQ PUSH2 0x680 JUMPI PUSH1 0x1 DUP2 EQ PUSH2 0x696 JUMPI PUSH2 0x6C8 JUMP JUMPDEST PUSH1 0xFF NOT DUP4 AND DUP7 MSTORE DUP2 ISZERO ISZERO PUSH1 0x20 MUL DUP7 ADD SWAP4 POP PUSH2 0x6C8 JUMP JUMPDEST PUSH2 0x69F DUP6 PUSH2 0x63E JUMP JUMPDEST PUSH0 JUMPDEST DUP4 DUP2 LT ISZERO PUSH2 0x6C0 JUMPI DUP2 SLOAD DUP2 DUP10 ADD MSTORE PUSH1 0x1 DUP3 ADD SWAP2 POP PUSH1 0x20 DUP2 ADD SWAP1 POP PUSH2 0x6A1 JUMP JUMPDEST DUP1 DUP9 ADD SWAP6 POP POP POP JUMPDEST POP POP POP SWAP3 SWAP2 POP POP JUMP JUMPDEST PUSH0 PUSH1 0x40 DUP3 ADD SWAP1 POP PUSH2 0x6E4 PUSH0 DUP4 ADD DUP6 PUSH2 0x426 JUMP JUMPDEST DUP2 DUP2 SUB PUSH1 0x20 DUP4 ADD MSTORE PUSH2 0x6F6 DUP2 DUP5 PUSH2 0x650 JUMP JUMPDEST SWAP1 POP SWAP4 SWAP3 POP POP POP JUMP INVALID LOG2 PUSH5 0x6970667358 0x22 SLT KECCAK256 PREVRANDAO DUP14 STATICCALL CODECOPY 0xE8 0xC0 0xFC ADDMOD 0xC1 PUSH2 0xB1A4 DUP11 SWAP2 0x4C GAS LT CALLCODE 0x2A MOD BLOBHASH SSTORE SLOAD 0x2D 0xDC DUP4 0xE7 ADDRESS 0xE7 EXP PC 0xC8 PUSH5 0x736F6C6343 STOP ADDMOD NOT STOP CALLER "},"gasEstimates":{"creation":{"codeDepositCost":"369000","executionCost":"infinite","totalCost":"infinite"},"external":{"nullifier_hash()":"infinite","owner()":"2505","referenceCheckHistory(address)":"2878","storeResult(address,bool)":"25029","submitRequest(address)":"infinite"}},"methodIdentifiers":{"nullifier_hash()":"c5a8fa73","owner()":"8da5cb5b","referenceCheckHistory(address)":"a52242c9","storeResult(address,bool)":"b0ee77c8","submitRequest(address)":"2c62c181"}},"storageLayout":{"storage":[{"astId":3,"contract":"Employee.sol:Employee","label":"owner","offset":0,"slot":"0","type":"t_address"},{"astId":5,"contract":"Employee.sol:Employee","label":"nullifier_hash","offset":0,"slot":"1","type":"t_string_storage"},{"astId":13,"contract":"Employee.sol:Employee","label":"referenceCheckHistory","offset":0,"slot":"2","type":"t_mapping(t_address,t_struct(ReferenceCheckResult)8_storage)"}],"types":{"t_address":{"encoding":"inplace","label":"address","numberOfBytes":"20"},"t_bool":{"encoding":"inplace","label":"bool","numberOfBytes":"1"},"t_mapping(t_address,t_struct(ReferenceCheckResult)8_storage)":{"encoding":"mapping","key":"t_address","label":"mapping(address => struct Employee.ReferenceCheckResult)","numberOfBytes":"32","value":"t_struct(ReferenceCheckResult)8_storage"},"t_string_storage":{"encoding":"bytes","label":"string","numberOfBytes":"32"},"t_struct(ReferenceCheckResult)8_storage":{"encoding":"inplace","label":"struct Employee.ReferenceCheckResult","members":[{"astId":7,"contract":"Employee.sol:Employee","label":"_verified","offset":0,"slot":"0","type":"t_bool"}],"numberOfBytes":"32"}}},"userdoc":{"kind":"user","methods":{},"version":1}}