{"abi":[{"inputs":[],"stateMutability":"nonpayable","type":"constructor"},{"inputs":[{"internalType":"address","name":"requesterAddress","type":"address"}],"name":"approve","outputs":[],"stateMutability":"nonpayable","type":"function"},{"inputs":[{"internalType":"address","name":"requesterAddress","type":"address"}],"name":"decline","outputs":[],"stateMutability":"nonpayable","type":"function"},{"inputs":[{"internalType":"address","name":"_key","type":"address"}],"name":"isKeyExists","outputs":[{"internalType":"bool","name":"","type":"bool"}],"stateMutability":"view","type":"function"},{"inputs":[{"internalType":"address","name":"requester","type":"address"},{"internalType":"string","name":"nullifier_hash","type":"string"}],"name":"newRequest","outputs":[],"stateMutability":"nonpayable","type":"function"},{"inputs":[],"name":"owner","outputs":[{"internalType":"address","name":"","type":"address"}],"stateMutability":"view","type":"function"},{"inputs":[{"internalType":"address","name":"","type":"address"}],"name":"pendingRequests","outputs":[{"internalType":"string","name":"_nullifier_hash","type":"string"},{"internalType":"address","name":"_employee","type":"address"},{"internalType":"bool","name":"_verified","type":"bool"}],"stateMutability":"view","type":"function"}],"devdoc":{"kind":"dev","methods":{},"version":1},"evm":{"assembly":"    /* \"Employee.sol\":1141:3135  contract Employer {... */\n  mstore(0x40, 0x80)\n    /* \"Employee.sol\":1582:1631  constructor() {... */\n  callvalue\n  dup1\n  iszero\n  tag_1\n  jumpi\n  0x00\n  dup1\n  revert\ntag_1:\n  pop\n    /* \"Employee.sol\":1614:1624  msg.sender */\n  caller\n    /* \"Employee.sol\":1606:1611  owner */\n  0x00\n  dup1\n    /* \"Employee.sol\":1606:1624  owner = msg.sender */\n  0x0100\n  exp\n  dup2\n  sload\n  dup2\n  0xffffffffffffffffffffffffffffffffffffffff\n  mul\n  not\n  and\n  swap1\n  dup4\n  0xffffffffffffffffffffffffffffffffffffffff\n  and\n  mul\n  or\n  swap1\n  sstore\n  pop\n    /* \"Employee.sol\":1141:3135  contract Employer {... */\n  dataSize(sub_0)\n  dup1\n  dataOffset(sub_0)\n  0x00\n  codecopy\n  0x00\n  return\nstop\n\nsub_0: assembly {\n        /* \"Employee.sol\":1141:3135  contract Employer {... */\n      mstore(0x40, 0x80)\n      callvalue\n      dup1\n      iszero\n      tag_1\n      jumpi\n      0x00\n      dup1\n      revert\n    tag_1:\n      pop\n      jumpi(tag_2, lt(calldatasize, 0x04))\n      shr(0xe0, calldataload(0x00))\n      dup1\n      0x10e29cf9\n      eq\n      tag_3\n      jumpi\n      dup1\n      0x5552d07d\n      eq\n      tag_4\n      jumpi\n      dup1\n      0x8da5cb5b\n      eq\n      tag_5\n      jumpi\n      dup1\n      0xc97edb48\n      eq\n      tag_6\n      jumpi\n      dup1\n      0xdaea85c5\n      eq\n      tag_7\n      jumpi\n      dup1\n      0xfb22e651\n      eq\n      tag_8\n      jumpi\n    tag_2:\n      0x00\n      dup1\n      revert\n        /* \"Employee.sol\":2576:2958  function decline(address requesterAddress) public {... */\n    tag_3:\n      tag_9\n      0x04\n      dup1\n      calldatasize\n      sub\n      dup2\n      add\n      swap1\n      tag_10\n      swap2\n      swap1\n      tag_11\n      jump\t// in\n    tag_10:\n      tag_12\n      jump\t// in\n    tag_9:\n      stop\n        /* \"Employee.sol\":2964:3133  function isKeyExists(address _key) public view returns (bool) {... */\n    tag_4:\n      tag_13\n      0x04\n      dup1\n      calldatasize\n      sub\n      dup2\n      add\n      swap1\n      tag_14\n      swap2\n      swap1\n      tag_11\n      jump\t// in\n    tag_14:\n      tag_15\n      jump\t// in\n    tag_13:\n      mload(0x40)\n      tag_16\n      swap2\n      swap1\n      tag_17\n      jump\t// in\n    tag_16:\n      mload(0x40)\n      dup1\n      swap2\n      sub\n      swap1\n      return\n        /* \"Employee.sol\":1201:1221  address public owner */\n    tag_5:\n      tag_18\n      tag_19\n      jump\t// in\n    tag_18:\n      mload(0x40)\n      tag_20\n      swap2\n      swap1\n      tag_21\n      jump\t// in\n    tag_20:\n      mload(0x40)\n      dup1\n      swap2\n      sub\n      swap1\n      return\n        /* \"Employee.sol\":1637:2183  function newRequest(address requester, string memory nullifier_hash ) public {... */\n    tag_6:\n      tag_22\n      0x04\n      dup1\n      calldatasize\n      sub\n      dup2\n      add\n      swap1\n      tag_23\n      swap2\n      swap1\n      tag_24\n      jump\t// in\n    tag_23:\n      tag_25\n      jump\t// in\n    tag_22:\n      stop\n        /* \"Employee.sol\":2189:2570  function approve(address requesterAddress) public {... */\n    tag_7:\n      tag_26\n      0x04\n      dup1\n      calldatasize\n      sub\n      dup2\n      add\n      swap1\n      tag_27\n      swap2\n      swap1\n      tag_11\n      jump\t// in\n    tag_27:\n      tag_28\n      jump\t// in\n    tag_26:\n      stop\n        /* \"Employee.sol\":1511:1575  mapping(address => ReferenceCheckRequest) public pendingRequests */\n    tag_8:\n      tag_29\n      0x04\n      dup1\n      calldatasize\n      sub\n      dup2\n      add\n      swap1\n      tag_30\n      swap2\n      swap1\n      tag_11\n      jump\t// in\n    tag_30:\n      tag_31\n      jump\t// in\n    tag_29:\n      mload(0x40)\n      tag_32\n      swap4\n      swap3\n      swap2\n      swap1\n      tag_33\n      jump\t// in\n    tag_32:\n      mload(0x40)\n      dup1\n      swap2\n      sub\n      swap1\n      return\n        /* \"Employee.sol\":2576:2958  function decline(address requesterAddress) public {... */\n    tag_12:\n        /* \"Employee.sol\":2658:2663  owner */\n      0x00\n      dup1\n      sload\n      swap1\n      0x0100\n      exp\n      swap1\n      div\n      0xffffffffffffffffffffffffffffffffffffffff\n      and\n        /* \"Employee.sol\":2644:2663  msg.sender == owner */\n      0xffffffffffffffffffffffffffffffffffffffff\n      and\n        /* \"Employee.sol\":2644:2654  msg.sender */\n      caller\n        /* \"Employee.sol\":2644:2663  msg.sender == owner */\n      0xffffffffffffffffffffffffffffffffffffffff\n      and\n      eq\n        /* \"Employee.sol\":2636:2698  require(msg.sender == owner, \"Only company owner can decline\") */\n      tag_35\n      jumpi\n      mload(0x40)\n      0x08c379a000000000000000000000000000000000000000000000000000000000\n      dup2\n      mstore\n      0x04\n      add\n      tag_36\n      swap1\n      tag_37\n      jump\t// in\n    tag_36:\n      mload(0x40)\n      dup1\n      swap2\n      sub\n      swap1\n      revert\n    tag_35:\n        /* \"Employee.sol\":2716:2745  isKeyExists(requesterAddress) */\n      tag_38\n        /* \"Employee.sol\":2728:2744  requesterAddress */\n      dup2\n        /* \"Employee.sol\":2716:2727  isKeyExists */\n      tag_15\n        /* \"Employee.sol\":2716:2745  isKeyExists(requesterAddress) */\n      jump\t// in\n    tag_38:\n        /* \"Employee.sol\":2708:2794  require(isKeyExists(requesterAddress), \"No reference check request from this address\") */\n      tag_39\n      jumpi\n      mload(0x40)\n      0x08c379a000000000000000000000000000000000000000000000000000000000\n      dup2\n      mstore\n      0x04\n      add\n      tag_40\n      swap1\n      tag_41\n      jump\t// in\n    tag_40:\n      mload(0x40)\n      dup1\n      swap2\n      sub\n      swap1\n      revert\n    tag_39:\n        /* \"Employee.sol\":2805:2822  Employee employee */\n      0x00\n        /* \"Employee.sol\":2834:2850  requesterAddress */\n      dup2\n        /* \"Employee.sol\":2805:2851  Employee employee = Employee(requesterAddress) */\n      swap1\n      pop\n        /* \"Employee.sol\":2861:2869  employee */\n      dup1\n        /* \"Employee.sol\":2861:2881  employee.storeResult */\n      0xffffffffffffffffffffffffffffffffffffffff\n      and\n      0xb0ee77c8\n        /* \"Employee.sol\":2882:2892  msg.sender */\n      caller\n        /* \"Employee.sol\":2894:2899  false */\n      0x00\n        /* \"Employee.sol\":2861:2900  employee.storeResult(msg.sender, false) */\n      mload(0x40)\n      dup4\n      0xffffffff\n      and\n      0xe0\n      shl\n      dup2\n      mstore\n      0x04\n      add\n      tag_42\n      swap3\n      swap2\n      swap1\n      tag_43\n      jump\t// in\n    tag_42:\n      0x00\n      mload(0x40)\n      dup1\n      dup4\n      sub\n      dup2\n      0x00\n      dup8\n      dup1\n      extcodesize\n      iszero\n      dup1\n      iszero\n      tag_44\n      jumpi\n      0x00\n      dup1\n      revert\n    tag_44:\n      pop\n      gas\n      call\n      iszero\n      dup1\n      iszero\n      tag_46\n      jumpi\n      returndatasize\n      0x00\n      dup1\n      returndatacopy\n      revert(0x00, returndatasize)\n    tag_46:\n      pop\n      pop\n      pop\n      pop\n        /* \"Employee.sol\":2918:2933  pendingRequests */\n      0x01\n        /* \"Employee.sol\":2918:2951  pendingRequests[requesterAddress] */\n      0x00\n        /* \"Employee.sol\":2934:2950  requesterAddress */\n      dup4\n        /* \"Employee.sol\":2918:2951  pendingRequests[requesterAddress] */\n      0xffffffffffffffffffffffffffffffffffffffff\n      and\n      0xffffffffffffffffffffffffffffffffffffffff\n      and\n      dup2\n      mstore\n      0x20\n      add\n      swap1\n      dup2\n      mstore\n      0x20\n      add\n      0x00\n      keccak256\n      0x00\n        /* \"Employee.sol\":2911:2951  delete pendingRequests[requesterAddress] */\n      dup1\n      dup3\n      add\n      0x00\n      tag_47\n      swap2\n      swap1\n      tag_48\n      jump\t// in\n    tag_47:\n      0x01\n      dup3\n      add\n      exp(0x0100, 0x00)\n      dup2\n      sload\n      swap1\n      0xffffffffffffffffffffffffffffffffffffffff\n      mul\n      not\n      and\n      swap1\n      sstore\n      0x01\n      dup3\n      add\n      exp(0x0100, 0x14)\n      dup2\n      sload\n      swap1\n      0xff\n      mul\n      not\n      and\n      swap1\n      sstore\n      pop\n      pop\n        /* \"Employee.sol\":2626:2958  {... */\n      pop\n        /* \"Employee.sol\":2576:2958  function decline(address requesterAddress) public {... */\n      pop\n      jump\t// out\n        /* \"Employee.sol\":2964:3133  function isKeyExists(address _key) public view returns (bool) {... */\n    tag_15:\n        /* \"Employee.sol\":3020:3024  bool */\n      0x00\n        /* \"Employee.sol\":3113:3126  keccak256(\"\") */\n      0xc5d2460186f7233c927e7db2dcc703c0e500b653ca82273b7bfad8045d85a470\n        /* \"Employee.sol\":3070:3085  pendingRequests */\n      0x01\n        /* \"Employee.sol\":3070:3091  pendingRequests[_key] */\n      0x00\n        /* \"Employee.sol\":3086:3090  _key */\n      dup5\n        /* \"Employee.sol\":3070:3091  pendingRequests[_key] */\n      0xffffffffffffffffffffffffffffffffffffffff\n      and\n      0xffffffffffffffffffffffffffffffffffffffff\n      and\n      dup2\n      mstore\n      0x20\n      add\n      swap1\n      dup2\n      mstore\n      0x20\n      add\n      0x00\n      keccak256\n        /* \"Employee.sol\":3070:3107  pendingRequests[_key]._nullifier_hash */\n      0x00\n      add\n        /* \"Employee.sol\":3053:3108  abi.encodePacked(pendingRequests[_key]._nullifier_hash) */\n      add(0x20, mload(0x40))\n      tag_50\n      swap2\n      swap1\n      tag_51\n      jump\t// in\n    tag_50:\n      mload(0x40)\n      0x20\n      dup2\n      dup4\n      sub\n      sub\n      dup2\n      mstore\n      swap1\n      0x40\n      mstore\n        /* \"Employee.sol\":3043:3109  keccak256(abi.encodePacked(pendingRequests[_key]._nullifier_hash)) */\n      dup1\n      mload\n      swap1\n      0x20\n      add\n      keccak256\n        /* \"Employee.sol\":3043:3126  keccak256(abi.encodePacked(pendingRequests[_key]._nullifier_hash)) != keccak256(\"\") */\n      eq\n      iszero\n        /* \"Employee.sol\":3036:3126  return keccak256(abi.encodePacked(pendingRequests[_key]._nullifier_hash)) != keccak256(\"\") */\n      swap1\n      pop\n        /* \"Employee.sol\":2964:3133  function isKeyExists(address _key) public view returns (bool) {... */\n      swap2\n      swap1\n      pop\n      jump\t// out\n        /* \"Employee.sol\":1201:1221  address public owner */\n    tag_19:\n      0x00\n      dup1\n      sload\n      swap1\n      0x0100\n      exp\n      swap1\n      div\n      0xffffffffffffffffffffffffffffffffffffffff\n      and\n      dup2\n      jump\t// out\n        /* \"Employee.sol\":1637:2183  function newRequest(address requester, string memory nullifier_hash ) public {... */\n    tag_25:\n        /* \"Employee.sol\":1724:1741  Employee employee */\n      0x00\n        /* \"Employee.sol\":1753:1762  requester */\n      dup3\n        /* \"Employee.sol\":1724:1763  Employee employee = Employee(requester) */\n      swap1\n      pop\n        /* \"Employee.sol\":1773:1801  bool isValidEmployeeInstance */\n      0x00\n        /* \"Employee.sol\":1825:1834  requester */\n      dup4\n        /* \"Employee.sol\":1804:1834  address(employee) == requester */\n      0xffffffffffffffffffffffffffffffffffffffff\n      and\n        /* \"Employee.sol\":1812:1820  employee */\n      dup3\n        /* \"Employee.sol\":1804:1834  address(employee) == requester */\n      0xffffffffffffffffffffffffffffffffffffffff\n      and\n      eq\n        /* \"Employee.sol\":1773:1834  bool isValidEmployeeInstance = address(employee) == requester */\n      swap1\n      pop\n        /* \"Employee.sol\":1852:1875  isValidEmployeeInstance */\n      dup1\n        /* \"Employee.sol\":1844:1905  require(isValidEmployeeInstance, \"Invalid employee instance\") */\n      tag_53\n      jumpi\n      mload(0x40)\n      0x08c379a000000000000000000000000000000000000000000000000000000000\n      dup2\n      mstore\n      0x04\n      add\n      tag_54\n      swap1\n      tag_55\n      jump\t// in\n    tag_54:\n      mload(0x40)\n      dup1\n      swap2\n      sub\n      swap1\n      revert\n    tag_53:\n        /* \"Employee.sol\":1925:1947  isKeyExists(requester) */\n      tag_56\n        /* \"Employee.sol\":1937:1946  requester */\n      dup5\n        /* \"Employee.sol\":1925:1936  isKeyExists */\n      tag_15\n        /* \"Employee.sol\":1925:1947  isKeyExists(requester) */\n      jump\t// in\n    tag_56:\n        /* \"Employee.sol\":1924:1947  !isKeyExists(requester) */\n      iszero\n        /* \"Employee.sol\":1916:1994  require(!isKeyExists(requester), \"You already submit reference check request\") */\n      tag_57\n      jumpi\n      mload(0x40)\n      0x08c379a000000000000000000000000000000000000000000000000000000000\n      dup2\n      mstore\n      0x04\n      add\n      tag_58\n      swap1\n      tag_59\n      jump\t// in\n    tag_58:\n      mload(0x40)\n      dup1\n      swap2\n      sub\n      swap1\n      revert\n    tag_57:\n        /* \"Employee.sol\":2034:2176  ReferenceCheckRequest({... */\n      mload(0x40)\n      dup1\n      0x60\n      add\n      0x40\n      mstore\n      dup1\n        /* \"Employee.sol\":2087:2101  nullifier_hash */\n      dup5\n        /* \"Employee.sol\":2034:2176  ReferenceCheckRequest({... */\n      dup2\n      mstore\n      0x20\n      add\n        /* \"Employee.sol\":2126:2135  requester */\n      dup6\n        /* \"Employee.sol\":2034:2176  ReferenceCheckRequest({... */\n      0xffffffffffffffffffffffffffffffffffffffff\n      and\n      dup2\n      mstore\n      0x20\n      add\n        /* \"Employee.sol\":2160:2165  false */\n      0x00\n        /* \"Employee.sol\":2034:2176  ReferenceCheckRequest({... */\n      iszero\n      iszero\n      dup2\n      mstore\n      pop\n        /* \"Employee.sol\":2005:2020  pendingRequests */\n      0x01\n        /* \"Employee.sol\":2005:2031  pendingRequests[requester] */\n      0x00\n        /* \"Employee.sol\":2021:2030  requester */\n      dup7\n        /* \"Employee.sol\":2005:2031  pendingRequests[requester] */\n      0xffffffffffffffffffffffffffffffffffffffff\n      and\n      0xffffffffffffffffffffffffffffffffffffffff\n      and\n      dup2\n      mstore\n      0x20\n      add\n      swap1\n      dup2\n      mstore\n      0x20\n      add\n      0x00\n      keccak256\n        /* \"Employee.sol\":2005:2176  pendingRequests[requester] = ReferenceCheckRequest({... */\n      0x00\n      dup3\n      add\n      mload\n      dup2\n      0x00\n      add\n      swap1\n      dup2\n      tag_60\n      swap2\n      swap1\n      tag_61\n      jump\t// in\n    tag_60:\n      pop\n      0x20\n      dup3\n      add\n      mload\n      dup2\n      0x01\n      add\n      exp(0x0100, 0x00)\n      dup2\n      sload\n      dup2\n      0xffffffffffffffffffffffffffffffffffffffff\n      mul\n      not\n      and\n      swap1\n      dup4\n      0xffffffffffffffffffffffffffffffffffffffff\n      and\n      mul\n      or\n      swap1\n      sstore\n      pop\n      0x40\n      dup3\n      add\n      mload\n      dup2\n      0x01\n      add\n      exp(0x0100, 0x14)\n      dup2\n      sload\n      dup2\n      0xff\n      mul\n      not\n      and\n      swap1\n      dup4\n      iszero\n      iszero\n      mul\n      or\n      swap1\n      sstore\n      pop\n      swap1\n      pop\n      pop\n        /* \"Employee.sol\":1714:2183  {... */\n      pop\n      pop\n        /* \"Employee.sol\":1637:2183  function newRequest(address requester, string memory nullifier_hash ) public {... */\n      pop\n      pop\n      jump\t// out\n        /* \"Employee.sol\":2189:2570  function approve(address requesterAddress) public {... */\n    tag_28:\n        /* \"Employee.sol\":2271:2276  owner */\n      0x00\n      dup1\n      sload\n      swap1\n      0x0100\n      exp\n      swap1\n      div\n      0xffffffffffffffffffffffffffffffffffffffff\n      and\n        /* \"Employee.sol\":2257:2276  msg.sender == owner */\n      0xffffffffffffffffffffffffffffffffffffffff\n      and\n        /* \"Employee.sol\":2257:2267  msg.sender */\n      caller\n        /* \"Employee.sol\":2257:2276  msg.sender == owner */\n      0xffffffffffffffffffffffffffffffffffffffff\n      and\n      eq\n        /* \"Employee.sol\":2249:2311  require(msg.sender == owner, \"Only company owner can approve\") */\n      tag_63\n      jumpi\n      mload(0x40)\n      0x08c379a000000000000000000000000000000000000000000000000000000000\n      dup2\n      mstore\n      0x04\n      add\n      tag_64\n      swap1\n      tag_65\n      jump\t// in\n    tag_64:\n      mload(0x40)\n      dup1\n      swap2\n      sub\n      swap1\n      revert\n    tag_63:\n        /* \"Employee.sol\":2329:2358  isKeyExists(requesterAddress) */\n      tag_66\n        /* \"Employee.sol\":2341:2357  requesterAddress */\n      dup2\n        /* \"Employee.sol\":2329:2340  isKeyExists */\n      tag_15\n        /* \"Employee.sol\":2329:2358  isKeyExists(requesterAddress) */\n      jump\t// in\n    tag_66:\n        /* \"Employee.sol\":2321:2407  require(isKeyExists(requesterAddress), \"No reference check request from this address\") */\n      tag_67\n      jumpi\n      mload(0x40)\n      0x08c379a000000000000000000000000000000000000000000000000000000000\n      dup2\n      mstore\n      0x04\n      add\n      tag_68\n      swap1\n      tag_41\n      jump\t// in\n    tag_68:\n      mload(0x40)\n      dup1\n      swap2\n      sub\n      swap1\n      revert\n    tag_67:\n        /* \"Employee.sol\":2418:2435  Employee employee */\n      0x00\n        /* \"Employee.sol\":2447:2463  requesterAddress */\n      dup2\n        /* \"Employee.sol\":2418:2464  Employee employee = Employee(requesterAddress) */\n      swap1\n      pop\n        /* \"Employee.sol\":2474:2482  employee */\n      dup1\n        /* \"Employee.sol\":2474:2494  employee.storeResult */\n      0xffffffffffffffffffffffffffffffffffffffff\n      and\n      0xb0ee77c8\n        /* \"Employee.sol\":2495:2505  msg.sender */\n      caller\n        /* \"Employee.sol\":2507:2511  true */\n      0x01\n        /* \"Employee.sol\":2474:2512  employee.storeResult(msg.sender, true) */\n      mload(0x40)\n      dup4\n      0xffffffff\n      and\n      0xe0\n      shl\n      dup2\n      mstore\n      0x04\n      add\n      tag_69\n      swap3\n      swap2\n      swap1\n      tag_43\n      jump\t// in\n    tag_69:\n      0x00\n      mload(0x40)\n      dup1\n      dup4\n      sub\n      dup2\n      0x00\n      dup8\n      dup1\n      extcodesize\n      iszero\n      dup1\n      iszero\n      tag_70\n      jumpi\n      0x00\n      dup1\n      revert\n    tag_70:\n      pop\n      gas\n      call\n      iszero\n      dup1\n      iszero\n      tag_72\n      jumpi\n      returndatasize\n      0x00\n      dup1\n      returndatacopy\n      revert(0x00, returndatasize)\n    tag_72:\n      pop\n      pop\n      pop\n      pop\n        /* \"Employee.sol\":2530:2545  pendingRequests */\n      0x01\n        /* \"Employee.sol\":2530:2563  pendingRequests[requesterAddress] */\n      0x00\n        /* \"Employee.sol\":2546:2562  requesterAddress */\n      dup4\n        /* \"Employee.sol\":2530:2563  pendingRequests[requesterAddress] */\n      0xffffffffffffffffffffffffffffffffffffffff\n      and\n      0xffffffffffffffffffffffffffffffffffffffff\n      and\n      dup2\n      mstore\n      0x20\n      add\n      swap1\n      dup2\n      mstore\n      0x20\n      add\n      0x00\n      keccak256\n      0x00\n        /* \"Employee.sol\":2523:2563  delete pendingRequests[requesterAddress] */\n      dup1\n      dup3\n      add\n      0x00\n      tag_73\n      swap2\n      swap1\n      tag_48\n      jump\t// in\n    tag_73:\n      0x01\n      dup3\n      add\n      exp(0x0100, 0x00)\n      dup2\n      sload\n      swap1\n      0xffffffffffffffffffffffffffffffffffffffff\n      mul\n      not\n      and\n      swap1\n      sstore\n      0x01\n      dup3\n      add\n      exp(0x0100, 0x14)\n      dup2\n      sload\n      swap1\n      0xff\n      mul\n      not\n      and\n      swap1\n      sstore\n      pop\n      pop\n        /* \"Employee.sol\":2239:2570  {... */\n      pop\n        /* \"Employee.sol\":2189:2570  function approve(address requesterAddress) public {... */\n      pop\n      jump\t// out\n        /* \"Employee.sol\":1511:1575  mapping(address => ReferenceCheckRequest) public pendingRequests */\n    tag_31:\n      mstore(0x20, 0x01)\n      dup1\n      0x00\n      mstore\n      keccak256(0x00, 0x40)\n      0x00\n      swap2\n      pop\n      swap1\n      pop\n      dup1\n      0x00\n      add\n      dup1\n      sload\n      tag_74\n      swap1\n      tag_75\n      jump\t// in\n    tag_74:\n      dup1\n      0x1f\n      add\n      0x20\n      dup1\n      swap2\n      div\n      mul\n      0x20\n      add\n      mload(0x40)\n      swap1\n      dup2\n      add\n      0x40\n      mstore\n      dup1\n      swap3\n      swap2\n      swap1\n      dup2\n      dup2\n      mstore\n      0x20\n      add\n      dup3\n      dup1\n      sload\n      tag_76\n      swap1\n      tag_75\n      jump\t// in\n    tag_76:\n      dup1\n      iszero\n      tag_77\n      jumpi\n      dup1\n      0x1f\n      lt\n      tag_78\n      jumpi\n      0x0100\n      dup1\n      dup4\n      sload\n      div\n      mul\n      dup4\n      mstore\n      swap2\n      0x20\n      add\n      swap2\n      jump(tag_77)\n    tag_78:\n      dup3\n      add\n      swap2\n      swap1\n      0x00\n      mstore\n      keccak256(0x00, 0x20)\n      swap1\n    tag_79:\n      dup2\n      sload\n      dup2\n      mstore\n      swap1\n      0x01\n      add\n      swap1\n      0x20\n      add\n      dup1\n      dup4\n      gt\n      tag_79\n      jumpi\n      dup3\n      swap1\n      sub\n      0x1f\n      and\n      dup3\n      add\n      swap2\n    tag_77:\n      pop\n      pop\n      pop\n      pop\n      pop\n      swap1\n      dup1\n      0x01\n      add\n      0x00\n      swap1\n      sload\n      swap1\n      0x0100\n      exp\n      swap1\n      div\n      0xffffffffffffffffffffffffffffffffffffffff\n      and\n      swap1\n      dup1\n      0x01\n      add\n      0x14\n      swap1\n      sload\n      swap1\n      0x0100\n      exp\n      swap1\n      div\n      0xff\n      and\n      swap1\n      pop\n      dup4\n      jump\t// out\n    tag_48:\n      pop\n      dup1\n      sload\n      tag_80\n      swap1\n      tag_75\n      jump\t// in\n    tag_80:\n      0x00\n      dup3\n      sstore\n      dup1\n      0x1f\n      lt\n      tag_82\n      jumpi\n      pop\n      jump(tag_81)\n    tag_82:\n      0x1f\n      add\n      0x20\n      swap1\n      div\n      swap1\n      0x00\n      mstore\n      keccak256(0x00, 0x20)\n      swap1\n      dup2\n      add\n      swap1\n      tag_83\n      swap2\n      swap1\n      tag_84\n      jump\t// in\n    tag_83:\n    tag_81:\n      pop\n      jump\t// out\n    tag_84:\n    tag_85:\n      dup1\n      dup3\n      gt\n      iszero\n      tag_86\n      jumpi\n      0x00\n      dup2\n      0x00\n      swap1\n      sstore\n      pop\n      0x01\n      add\n      jump(tag_85)\n    tag_86:\n      pop\n      swap1\n      jump\t// out\n        /* \"#utility.yul\":7:82   */\n    tag_87:\n        /* \"#utility.yul\":40:46   */\n      0x00\n        /* \"#utility.yul\":73:75   */\n      0x40\n        /* \"#utility.yul\":67:76   */\n      mload\n        /* \"#utility.yul\":57:76   */\n      swap1\n      pop\n        /* \"#utility.yul\":7:82   */\n      swap1\n      jump\t// out\n        /* \"#utility.yul\":88:205   */\n    tag_88:\n        /* \"#utility.yul\":197:198   */\n      0x00\n        /* \"#utility.yul\":194:195   */\n      dup1\n        /* \"#utility.yul\":187:199   */\n      revert\n        /* \"#utility.yul\":211:328   */\n    tag_89:\n        /* \"#utility.yul\":320:321   */\n      0x00\n        /* \"#utility.yul\":317:318   */\n      dup1\n        /* \"#utility.yul\":310:322   */\n      revert\n        /* \"#utility.yul\":334:460   */\n    tag_90:\n        /* \"#utility.yul\":371:378   */\n      0x00\n        /* \"#utility.yul\":411:453   */\n      0xffffffffffffffffffffffffffffffffffffffff\n        /* \"#utility.yul\":404:409   */\n      dup3\n        /* \"#utility.yul\":400:454   */\n      and\n        /* \"#utility.yul\":389:454   */\n      swap1\n      pop\n        /* \"#utility.yul\":334:460   */\n      swap2\n      swap1\n      pop\n      jump\t// out\n        /* \"#utility.yul\":466:562   */\n    tag_91:\n        /* \"#utility.yul\":503:510   */\n      0x00\n        /* \"#utility.yul\":532:556   */\n      tag_146\n        /* \"#utility.yul\":550:555   */\n      dup3\n        /* \"#utility.yul\":532:556   */\n      tag_90\n      jump\t// in\n    tag_146:\n        /* \"#utility.yul\":521:556   */\n      swap1\n      pop\n        /* \"#utility.yul\":466:562   */\n      swap2\n      swap1\n      pop\n      jump\t// out\n        /* \"#utility.yul\":568:690   */\n    tag_92:\n        /* \"#utility.yul\":641:665   */\n      tag_148\n        /* \"#utility.yul\":659:664   */\n      dup2\n        /* \"#utility.yul\":641:665   */\n      tag_91\n      jump\t// in\n    tag_148:\n        /* \"#utility.yul\":634:639   */\n      dup2\n        /* \"#utility.yul\":631:666   */\n      eq\n        /* \"#utility.yul\":621:684   */\n      tag_149\n      jumpi\n        /* \"#utility.yul\":680:681   */\n      0x00\n        /* \"#utility.yul\":677:678   */\n      dup1\n        /* \"#utility.yul\":670:682   */\n      revert\n        /* \"#utility.yul\":621:684   */\n    tag_149:\n        /* \"#utility.yul\":568:690   */\n      pop\n      jump\t// out\n        /* \"#utility.yul\":696:835   */\n    tag_93:\n        /* \"#utility.yul\":742:747   */\n      0x00\n        /* \"#utility.yul\":780:786   */\n      dup2\n        /* \"#utility.yul\":767:787   */\n      calldataload\n        /* \"#utility.yul\":758:787   */\n      swap1\n      pop\n        /* \"#utility.yul\":796:829   */\n      tag_151\n        /* \"#utility.yul\":823:828   */\n      dup2\n        /* \"#utility.yul\":796:829   */\n      tag_92\n      jump\t// in\n    tag_151:\n        /* \"#utility.yul\":696:835   */\n      swap3\n      swap2\n      pop\n      pop\n      jump\t// out\n        /* \"#utility.yul\":841:1170   */\n    tag_11:\n        /* \"#utility.yul\":900:906   */\n      0x00\n        /* \"#utility.yul\":949:951   */\n      0x20\n        /* \"#utility.yul\":937:946   */\n      dup3\n        /* \"#utility.yul\":928:935   */\n      dup5\n        /* \"#utility.yul\":924:947   */\n      sub\n        /* \"#utility.yul\":920:952   */\n      slt\n        /* \"#utility.yul\":917:1036   */\n      iszero\n      tag_153\n      jumpi\n        /* \"#utility.yul\":955:1034   */\n      tag_154\n      tag_88\n      jump\t// in\n    tag_154:\n        /* \"#utility.yul\":917:1036   */\n    tag_153:\n        /* \"#utility.yul\":1075:1076   */\n      0x00\n        /* \"#utility.yul\":1100:1153   */\n      tag_155\n        /* \"#utility.yul\":1145:1152   */\n      dup5\n        /* \"#utility.yul\":1136:1142   */\n      dup3\n        /* \"#utility.yul\":1125:1134   */\n      dup6\n        /* \"#utility.yul\":1121:1143   */\n      add\n        /* \"#utility.yul\":1100:1153   */\n      tag_93\n      jump\t// in\n    tag_155:\n        /* \"#utility.yul\":1090:1153   */\n      swap2\n      pop\n        /* \"#utility.yul\":1046:1163   */\n      pop\n        /* \"#utility.yul\":841:1170   */\n      swap3\n      swap2\n      pop\n      pop\n      jump\t// out\n        /* \"#utility.yul\":1176:1266   */\n    tag_94:\n        /* \"#utility.yul\":1210:1217   */\n      0x00\n        /* \"#utility.yul\":1253:1258   */\n      dup2\n        /* \"#utility.yul\":1246:1259   */\n      iszero\n        /* \"#utility.yul\":1239:1260   */\n      iszero\n        /* \"#utility.yul\":1228:1260   */\n      swap1\n      pop\n        /* \"#utility.yul\":1176:1266   */\n      swap2\n      swap1\n      pop\n      jump\t// out\n        /* \"#utility.yul\":1272:1381   */\n    tag_95:\n        /* \"#utility.yul\":1353:1374   */\n      tag_158\n        /* \"#utility.yul\":1368:1373   */\n      dup2\n        /* \"#utility.yul\":1353:1374   */\n      tag_94\n      jump\t// in\n    tag_158:\n        /* \"#utility.yul\":1348:1351   */\n      dup3\n        /* \"#utility.yul\":1341:1375   */\n      mstore\n        /* \"#utility.yul\":1272:1381   */\n      pop\n      pop\n      jump\t// out\n        /* \"#utility.yul\":1387:1597   */\n    tag_17:\n        /* \"#utility.yul\":1474:1478   */\n      0x00\n        /* \"#utility.yul\":1512:1514   */\n      0x20\n        /* \"#utility.yul\":1501:1510   */\n      dup3\n        /* \"#utility.yul\":1497:1515   */\n      add\n        /* \"#utility.yul\":1489:1515   */\n      swap1\n      pop\n        /* \"#utility.yul\":1525:1590   */\n      tag_160\n        /* \"#utility.yul\":1587:1588   */\n      0x00\n        /* \"#utility.yul\":1576:1585   */\n      dup4\n        /* \"#utility.yul\":1572:1589   */\n      add\n        /* \"#utility.yul\":1563:1569   */\n      dup5\n        /* \"#utility.yul\":1525:1590   */\n      tag_95\n      jump\t// in\n    tag_160:\n        /* \"#utility.yul\":1387:1597   */\n      swap3\n      swap2\n      pop\n      pop\n      jump\t// out\n        /* \"#utility.yul\":1603:1721   */\n    tag_96:\n        /* \"#utility.yul\":1690:1714   */\n      tag_162\n        /* \"#utility.yul\":1708:1713   */\n      dup2\n        /* \"#utility.yul\":1690:1714   */\n      tag_91\n      jump\t// in\n    tag_162:\n        /* \"#utility.yul\":1685:1688   */\n      dup3\n        /* \"#utility.yul\":1678:1715   */\n      mstore\n        /* \"#utility.yul\":1603:1721   */\n      pop\n      pop\n      jump\t// out\n        /* \"#utility.yul\":1727:1949   */\n    tag_21:\n        /* \"#utility.yul\":1820:1824   */\n      0x00\n        /* \"#utility.yul\":1858:1860   */\n      0x20\n        /* \"#utility.yul\":1847:1856   */\n      dup3\n        /* \"#utility.yul\":1843:1861   */\n      add\n        /* \"#utility.yul\":1835:1861   */\n      swap1\n      pop\n        /* \"#utility.yul\":1871:1942   */\n      tag_164\n        /* \"#utility.yul\":1939:1940   */\n      0x00\n        /* \"#utility.yul\":1928:1937   */\n      dup4\n        /* \"#utility.yul\":1924:1941   */\n      add\n        /* \"#utility.yul\":1915:1921   */\n      dup5\n        /* \"#utility.yul\":1871:1942   */\n      tag_96\n      jump\t// in\n    tag_164:\n        /* \"#utility.yul\":1727:1949   */\n      swap3\n      swap2\n      pop\n      pop\n      jump\t// out\n        /* \"#utility.yul\":1955:2072   */\n    tag_97:\n        /* \"#utility.yul\":2064:2065   */\n      0x00\n        /* \"#utility.yul\":2061:2062   */\n      dup1\n        /* \"#utility.yul\":2054:2066   */\n      revert\n        /* \"#utility.yul\":2078:2195   */\n    tag_98:\n        /* \"#utility.yul\":2187:2188   */\n      0x00\n        /* \"#utility.yul\":2184:2185   */\n      dup1\n        /* \"#utility.yul\":2177:2189   */\n      revert\n        /* \"#utility.yul\":2201:2303   */\n    tag_99:\n        /* \"#utility.yul\":2242:2248   */\n      0x00\n        /* \"#utility.yul\":2293:2295   */\n      0x1f\n        /* \"#utility.yul\":2289:2296   */\n      not\n        /* \"#utility.yul\":2284:2286   */\n      0x1f\n        /* \"#utility.yul\":2277:2282   */\n      dup4\n        /* \"#utility.yul\":2273:2287   */\n      add\n        /* \"#utility.yul\":2269:2297   */\n      and\n        /* \"#utility.yul\":2259:2297   */\n      swap1\n      pop\n        /* \"#utility.yul\":2201:2303   */\n      swap2\n      swap1\n      pop\n      jump\t// out\n        /* \"#utility.yul\":2309:2489   */\n    tag_100:\n        /* \"#utility.yul\":2357:2434   */\n      0x4e487b7100000000000000000000000000000000000000000000000000000000\n        /* \"#utility.yul\":2354:2355   */\n      0x00\n        /* \"#utility.yul\":2347:2435   */\n      mstore\n        /* \"#utility.yul\":2454:2458   */\n      0x41\n        /* \"#utility.yul\":2451:2452   */\n      0x04\n        /* \"#utility.yul\":2444:2459   */\n      mstore\n        /* \"#utility.yul\":2478:2482   */\n      0x24\n        /* \"#utility.yul\":2475:2476   */\n      0x00\n        /* \"#utility.yul\":2468:2483   */\n      revert\n        /* \"#utility.yul\":2495:2776   */\n    tag_101:\n        /* \"#utility.yul\":2578:2605   */\n      tag_170\n        /* \"#utility.yul\":2600:2604   */\n      dup3\n        /* \"#utility.yul\":2578:2605   */\n      tag_99\n      jump\t// in\n    tag_170:\n        /* \"#utility.yul\":2570:2576   */\n      dup2\n        /* \"#utility.yul\":2566:2606   */\n      add\n        /* \"#utility.yul\":2708:2714   */\n      dup2\n        /* \"#utility.yul\":2696:2706   */\n      dup2\n        /* \"#utility.yul\":2693:2715   */\n      lt\n        /* \"#utility.yul\":2672:2690   */\n      0xffffffffffffffff\n        /* \"#utility.yul\":2660:2670   */\n      dup3\n        /* \"#utility.yul\":2657:2691   */\n      gt\n        /* \"#utility.yul\":2654:2716   */\n      or\n        /* \"#utility.yul\":2651:2739   */\n      iszero\n      tag_171\n      jumpi\n        /* \"#utility.yul\":2719:2737   */\n      tag_172\n      tag_100\n      jump\t// in\n    tag_172:\n        /* \"#utility.yul\":2651:2739   */\n    tag_171:\n        /* \"#utility.yul\":2759:2769   */\n      dup1\n        /* \"#utility.yul\":2755:2757   */\n      0x40\n        /* \"#utility.yul\":2748:2770   */\n      mstore\n        /* \"#utility.yul\":2538:2776   */\n      pop\n        /* \"#utility.yul\":2495:2776   */\n      pop\n      pop\n      jump\t// out\n        /* \"#utility.yul\":2782:2911   */\n    tag_102:\n        /* \"#utility.yul\":2816:2822   */\n      0x00\n        /* \"#utility.yul\":2843:2863   */\n      tag_174\n      tag_87\n      jump\t// in\n    tag_174:\n        /* \"#utility.yul\":2833:2863   */\n      swap1\n      pop\n        /* \"#utility.yul\":2872:2905   */\n      tag_175\n        /* \"#utility.yul\":2900:2904   */\n      dup3\n        /* \"#utility.yul\":2892:2898   */\n      dup3\n        /* \"#utility.yul\":2872:2905   */\n      tag_101\n      jump\t// in\n    tag_175:\n        /* \"#utility.yul\":2782:2911   */\n      swap2\n      swap1\n      pop\n      jump\t// out\n        /* \"#utility.yul\":2917:3225   */\n    tag_103:\n        /* \"#utility.yul\":2979:2983   */\n      0x00\n        /* \"#utility.yul\":3069:3087   */\n      0xffffffffffffffff\n        /* \"#utility.yul\":3061:3067   */\n      dup3\n        /* \"#utility.yul\":3058:3088   */\n      gt\n        /* \"#utility.yul\":3055:3111   */\n      iszero\n      tag_177\n      jumpi\n        /* \"#utility.yul\":3091:3109   */\n      tag_178\n      tag_100\n      jump\t// in\n    tag_178:\n        /* \"#utility.yul\":3055:3111   */\n    tag_177:\n        /* \"#utility.yul\":3129:3158   */\n      tag_179\n        /* \"#utility.yul\":3151:3157   */\n      dup3\n        /* \"#utility.yul\":3129:3158   */\n      tag_99\n      jump\t// in\n    tag_179:\n        /* \"#utility.yul\":3121:3158   */\n      swap1\n      pop\n        /* \"#utility.yul\":3213:3217   */\n      0x20\n        /* \"#utility.yul\":3207:3211   */\n      dup2\n        /* \"#utility.yul\":3203:3218   */\n      add\n        /* \"#utility.yul\":3195:3218   */\n      swap1\n      pop\n        /* \"#utility.yul\":2917:3225   */\n      swap2\n      swap1\n      pop\n      jump\t// out\n        /* \"#utility.yul\":3231:3379   */\n    tag_104:\n        /* \"#utility.yul\":3329:3335   */\n      dup3\n        /* \"#utility.yul\":3324:3327   */\n      dup2\n        /* \"#utility.yul\":3319:3322   */\n      dup4\n        /* \"#utility.yul\":3306:3336   */\n      calldatacopy\n        /* \"#utility.yul\":3370:3371   */\n      0x00\n        /* \"#utility.yul\":3361:3367   */\n      dup4\n        /* \"#utility.yul\":3356:3359   */\n      dup4\n        /* \"#utility.yul\":3352:3368   */\n      add\n        /* \"#utility.yul\":3345:3372   */\n      mstore\n        /* \"#utility.yul\":3231:3379   */\n      pop\n      pop\n      pop\n      jump\t// out\n        /* \"#utility.yul\":3385:3810   */\n    tag_105:\n        /* \"#utility.yul\":3463:3468   */\n      0x00\n        /* \"#utility.yul\":3488:3554   */\n      tag_182\n        /* \"#utility.yul\":3504:3553   */\n      tag_183\n        /* \"#utility.yul\":3546:3552   */\n      dup5\n        /* \"#utility.yul\":3504:3553   */\n      tag_103\n      jump\t// in\n    tag_183:\n        /* \"#utility.yul\":3488:3554   */\n      tag_102\n      jump\t// in\n    tag_182:\n        /* \"#utility.yul\":3479:3554   */\n      swap1\n      pop\n        /* \"#utility.yul\":3577:3583   */\n      dup3\n        /* \"#utility.yul\":3570:3575   */\n      dup2\n        /* \"#utility.yul\":3563:3584   */\n      mstore\n        /* \"#utility.yul\":3615:3619   */\n      0x20\n        /* \"#utility.yul\":3608:3613   */\n      dup2\n        /* \"#utility.yul\":3604:3620   */\n      add\n        /* \"#utility.yul\":3653:3656   */\n      dup5\n        /* \"#utility.yul\":3644:3650   */\n      dup5\n        /* \"#utility.yul\":3639:3642   */\n      dup5\n        /* \"#utility.yul\":3635:3651   */\n      add\n        /* \"#utility.yul\":3632:3657   */\n      gt\n        /* \"#utility.yul\":3629:3741   */\n      iszero\n      tag_184\n      jumpi\n        /* \"#utility.yul\":3660:3739   */\n      tag_185\n      tag_98\n      jump\t// in\n    tag_185:\n        /* \"#utility.yul\":3629:3741   */\n    tag_184:\n        /* \"#utility.yul\":3750:3804   */\n      tag_186\n        /* \"#utility.yul\":3797:3803   */\n      dup5\n        /* \"#utility.yul\":3792:3795   */\n      dup3\n        /* \"#utility.yul\":3787:3790   */\n      dup6\n        /* \"#utility.yul\":3750:3804   */\n      tag_104\n      jump\t// in\n    tag_186:\n        /* \"#utility.yul\":3469:3810   */\n      pop\n        /* \"#utility.yul\":3385:3810   */\n      swap4\n      swap3\n      pop\n      pop\n      pop\n      jump\t// out\n        /* \"#utility.yul\":3830:4170   */\n    tag_106:\n        /* \"#utility.yul\":3886:3891   */\n      0x00\n        /* \"#utility.yul\":3935:3938   */\n      dup3\n        /* \"#utility.yul\":3928:3932   */\n      0x1f\n        /* \"#utility.yul\":3920:3926   */\n      dup4\n        /* \"#utility.yul\":3916:3933   */\n      add\n        /* \"#utility.yul\":3912:3939   */\n      slt\n        /* \"#utility.yul\":3902:4024   */\n      tag_188\n      jumpi\n        /* \"#utility.yul\":3943:4022   */\n      tag_189\n      tag_97\n      jump\t// in\n    tag_189:\n        /* \"#utility.yul\":3902:4024   */\n    tag_188:\n        /* \"#utility.yul\":4060:4066   */\n      dup2\n        /* \"#utility.yul\":4047:4067   */\n      calldataload\n        /* \"#utility.yul\":4085:4164   */\n      tag_190\n        /* \"#utility.yul\":4160:4163   */\n      dup5\n        /* \"#utility.yul\":4152:4158   */\n      dup3\n        /* \"#utility.yul\":4145:4149   */\n      0x20\n        /* \"#utility.yul\":4137:4143   */\n      dup7\n        /* \"#utility.yul\":4133:4150   */\n      add\n        /* \"#utility.yul\":4085:4164   */\n      tag_105\n      jump\t// in\n    tag_190:\n        /* \"#utility.yul\":4076:4164   */\n      swap2\n      pop\n        /* \"#utility.yul\":3892:4170   */\n      pop\n        /* \"#utility.yul\":3830:4170   */\n      swap3\n      swap2\n      pop\n      pop\n      jump\t// out\n        /* \"#utility.yul\":4176:4830   */\n    tag_24:\n        /* \"#utility.yul\":4254:4260   */\n      0x00\n        /* \"#utility.yul\":4262:4268   */\n      dup1\n        /* \"#utility.yul\":4311:4313   */\n      0x40\n        /* \"#utility.yul\":4299:4308   */\n      dup4\n        /* \"#utility.yul\":4290:4297   */\n      dup6\n        /* \"#utility.yul\":4286:4309   */\n      sub\n        /* \"#utility.yul\":4282:4314   */\n      slt\n        /* \"#utility.yul\":4279:4398   */\n      iszero\n      tag_192\n      jumpi\n        /* \"#utility.yul\":4317:4396   */\n      tag_193\n      tag_88\n      jump\t// in\n    tag_193:\n        /* \"#utility.yul\":4279:4398   */\n    tag_192:\n        /* \"#utility.yul\":4437:4438   */\n      0x00\n        /* \"#utility.yul\":4462:4515   */\n      tag_194\n        /* \"#utility.yul\":4507:4514   */\n      dup6\n        /* \"#utility.yul\":4498:4504   */\n      dup3\n        /* \"#utility.yul\":4487:4496   */\n      dup7\n        /* \"#utility.yul\":4483:4505   */\n      add\n        /* \"#utility.yul\":4462:4515   */\n      tag_93\n      jump\t// in\n    tag_194:\n        /* \"#utility.yul\":4452:4515   */\n      swap3\n      pop\n        /* \"#utility.yul\":4408:4525   */\n      pop\n        /* \"#utility.yul\":4592:4594   */\n      0x20\n        /* \"#utility.yul\":4581:4590   */\n      dup4\n        /* \"#utility.yul\":4577:4595   */\n      add\n        /* \"#utility.yul\":4564:4596   */\n      calldataload\n        /* \"#utility.yul\":4623:4641   */\n      0xffffffffffffffff\n        /* \"#utility.yul\":4615:4621   */\n      dup2\n        /* \"#utility.yul\":4612:4642   */\n      gt\n        /* \"#utility.yul\":4609:4726   */\n      iszero\n      tag_195\n      jumpi\n        /* \"#utility.yul\":4645:4724   */\n      tag_196\n      tag_89\n      jump\t// in\n    tag_196:\n        /* \"#utility.yul\":4609:4726   */\n    tag_195:\n        /* \"#utility.yul\":4750:4813   */\n      tag_197\n        /* \"#utility.yul\":4805:4812   */\n      dup6\n        /* \"#utility.yul\":4796:4802   */\n      dup3\n        /* \"#utility.yul\":4785:4794   */\n      dup7\n        /* \"#utility.yul\":4781:4803   */\n      add\n        /* \"#utility.yul\":4750:4813   */\n      tag_106\n      jump\t// in\n    tag_197:\n        /* \"#utility.yul\":4740:4813   */\n      swap2\n      pop\n        /* \"#utility.yul\":4535:4823   */\n      pop\n        /* \"#utility.yul\":4176:4830   */\n      swap3\n      pop\n      swap3\n      swap1\n      pop\n      jump\t// out\n        /* \"#utility.yul\":4836:4935   */\n    tag_107:\n        /* \"#utility.yul\":4888:4894   */\n      0x00\n        /* \"#utility.yul\":4922:4927   */\n      dup2\n        /* \"#utility.yul\":4916:4928   */\n      mload\n        /* \"#utility.yul\":4906:4928   */\n      swap1\n      pop\n        /* \"#utility.yul\":4836:4935   */\n      swap2\n      swap1\n      pop\n      jump\t// out\n        /* \"#utility.yul\":4941:5110   */\n    tag_108:\n        /* \"#utility.yul\":5025:5036   */\n      0x00\n        /* \"#utility.yul\":5059:5065   */\n      dup3\n        /* \"#utility.yul\":5054:5057   */\n      dup3\n        /* \"#utility.yul\":5047:5066   */\n      mstore\n        /* \"#utility.yul\":5099:5103   */\n      0x20\n        /* \"#utility.yul\":5094:5097   */\n      dup3\n        /* \"#utility.yul\":5090:5104   */\n      add\n        /* \"#utility.yul\":5075:5104   */\n      swap1\n      pop\n        /* \"#utility.yul\":4941:5110   */\n      swap3\n      swap2\n      pop\n      pop\n      jump\t// out\n        /* \"#utility.yul\":5116:5255   */\n    tag_109:\n        /* \"#utility.yul\":5205:5211   */\n      dup3\n        /* \"#utility.yul\":5200:5203   */\n      dup2\n        /* \"#utility.yul\":5195:5198   */\n      dup4\n        /* \"#utility.yul\":5189:5212   */\n      mcopy\n        /* \"#utility.yul\":5246:5247   */\n      0x00\n        /* \"#utility.yul\":5237:5243   */\n      dup4\n        /* \"#utility.yul\":5232:5235   */\n      dup4\n        /* \"#utility.yul\":5228:5244   */\n      add\n        /* \"#utility.yul\":5221:5248   */\n      mstore\n        /* \"#utility.yul\":5116:5255   */\n      pop\n      pop\n      pop\n      jump\t// out\n        /* \"#utility.yul\":5261:5638   */\n    tag_110:\n        /* \"#utility.yul\":5349:5352   */\n      0x00\n        /* \"#utility.yul\":5377:5416   */\n      tag_202\n        /* \"#utility.yul\":5410:5415   */\n      dup3\n        /* \"#utility.yul\":5377:5416   */\n      tag_107\n      jump\t// in\n    tag_202:\n        /* \"#utility.yul\":5432:5503   */\n      tag_203\n        /* \"#utility.yul\":5496:5502   */\n      dup2\n        /* \"#utility.yul\":5491:5494   */\n      dup6\n        /* \"#utility.yul\":5432:5503   */\n      tag_108\n      jump\t// in\n    tag_203:\n        /* \"#utility.yul\":5425:5503   */\n      swap4\n      pop\n        /* \"#utility.yul\":5512:5577   */\n      tag_204\n        /* \"#utility.yul\":5570:5576   */\n      dup2\n        /* \"#utility.yul\":5565:5568   */\n      dup6\n        /* \"#utility.yul\":5558:5562   */\n      0x20\n        /* \"#utility.yul\":5551:5556   */\n      dup7\n        /* \"#utility.yul\":5547:5563   */\n      add\n        /* \"#utility.yul\":5512:5577   */\n      tag_109\n      jump\t// in\n    tag_204:\n        /* \"#utility.yul\":5602:5631   */\n      tag_205\n        /* \"#utility.yul\":5624:5630   */\n      dup2\n        /* \"#utility.yul\":5602:5631   */\n      tag_99\n      jump\t// in\n    tag_205:\n        /* \"#utility.yul\":5597:5600   */\n      dup5\n        /* \"#utility.yul\":5593:5632   */\n      add\n        /* \"#utility.yul\":5586:5632   */\n      swap2\n      pop\n        /* \"#utility.yul\":5353:5638   */\n      pop\n        /* \"#utility.yul\":5261:5638   */\n      swap3\n      swap2\n      pop\n      pop\n      jump\t// out\n        /* \"#utility.yul\":5644:6165   */\n    tag_33:\n        /* \"#utility.yul\":5807:5811   */\n      0x00\n        /* \"#utility.yul\":5845:5847   */\n      0x60\n        /* \"#utility.yul\":5834:5843   */\n      dup3\n        /* \"#utility.yul\":5830:5848   */\n      add\n        /* \"#utility.yul\":5822:5848   */\n      swap1\n      pop\n        /* \"#utility.yul\":5894:5903   */\n      dup2\n        /* \"#utility.yul\":5888:5892   */\n      dup2\n        /* \"#utility.yul\":5884:5904   */\n      sub\n        /* \"#utility.yul\":5880:5881   */\n      0x00\n        /* \"#utility.yul\":5869:5878   */\n      dup4\n        /* \"#utility.yul\":5865:5882   */\n      add\n        /* \"#utility.yul\":5858:5905   */\n      mstore\n        /* \"#utility.yul\":5922:6000   */\n      tag_207\n        /* \"#utility.yul\":5995:5999   */\n      dup2\n        /* \"#utility.yul\":5986:5992   */\n      dup7\n        /* \"#utility.yul\":5922:6000   */\n      tag_110\n      jump\t// in\n    tag_207:\n        /* \"#utility.yul\":5914:6000   */\n      swap1\n      pop\n        /* \"#utility.yul\":6010:6082   */\n      tag_208\n        /* \"#utility.yul\":6078:6080   */\n      0x20\n        /* \"#utility.yul\":6067:6076   */\n      dup4\n        /* \"#utility.yul\":6063:6081   */\n      add\n        /* \"#utility.yul\":6054:6060   */\n      dup6\n        /* \"#utility.yul\":6010:6082   */\n      tag_96\n      jump\t// in\n    tag_208:\n        /* \"#utility.yul\":6092:6158   */\n      tag_209\n        /* \"#utility.yul\":6154:6156   */\n      0x40\n        /* \"#utility.yul\":6143:6152   */\n      dup4\n        /* \"#utility.yul\":6139:6157   */\n      add\n        /* \"#utility.yul\":6130:6136   */\n      dup5\n        /* \"#utility.yul\":6092:6158   */\n      tag_95\n      jump\t// in\n    tag_209:\n        /* \"#utility.yul\":5644:6165   */\n      swap5\n      swap4\n      pop\n      pop\n      pop\n      pop\n      jump\t// out\n        /* \"#utility.yul\":6171:6351   */\n    tag_111:\n        /* \"#utility.yul\":6311:6343   */\n      0x4f6e6c7920636f6d70616e79206f776e65722063616e206465636c696e650000\n        /* \"#utility.yul\":6307:6308   */\n      0x00\n        /* \"#utility.yul\":6299:6305   */\n      dup3\n        /* \"#utility.yul\":6295:6309   */\n      add\n        /* \"#utility.yul\":6288:6344   */\n      mstore\n        /* \"#utility.yul\":6171:6351   */\n      pop\n      jump\t// out\n        /* \"#utility.yul\":6357:6723   */\n    tag_112:\n        /* \"#utility.yul\":6499:6502   */\n      0x00\n        /* \"#utility.yul\":6520:6587   */\n      tag_212\n        /* \"#utility.yul\":6584:6586   */\n      0x1e\n        /* \"#utility.yul\":6579:6582   */\n      dup4\n        /* \"#utility.yul\":6520:6587   */\n      tag_108\n      jump\t// in\n    tag_212:\n        /* \"#utility.yul\":6513:6587   */\n      swap2\n      pop\n        /* \"#utility.yul\":6596:6689   */\n      tag_213\n        /* \"#utility.yul\":6685:6688   */\n      dup3\n        /* \"#utility.yul\":6596:6689   */\n      tag_111\n      jump\t// in\n    tag_213:\n        /* \"#utility.yul\":6714:6716   */\n      0x20\n        /* \"#utility.yul\":6709:6712   */\n      dup3\n        /* \"#utility.yul\":6705:6717   */\n      add\n        /* \"#utility.yul\":6698:6717   */\n      swap1\n      pop\n        /* \"#utility.yul\":6357:6723   */\n      swap2\n      swap1\n      pop\n      jump\t// out\n        /* \"#utility.yul\":6729:7148   */\n    tag_37:\n        /* \"#utility.yul\":6895:6899   */\n      0x00\n        /* \"#utility.yul\":6933:6935   */\n      0x20\n        /* \"#utility.yul\":6922:6931   */\n      dup3\n        /* \"#utility.yul\":6918:6936   */\n      add\n        /* \"#utility.yul\":6910:6936   */\n      swap1\n      pop\n        /* \"#utility.yul\":6982:6991   */\n      dup2\n        /* \"#utility.yul\":6976:6980   */\n      dup2\n        /* \"#utility.yul\":6972:6992   */\n      sub\n        /* \"#utility.yul\":6968:6969   */\n      0x00\n        /* \"#utility.yul\":6957:6966   */\n      dup4\n        /* \"#utility.yul\":6953:6970   */\n      add\n        /* \"#utility.yul\":6946:6993   */\n      mstore\n        /* \"#utility.yul\":7010:7141   */\n      tag_215\n        /* \"#utility.yul\":7136:7140   */\n      dup2\n        /* \"#utility.yul\":7010:7141   */\n      tag_112\n      jump\t// in\n    tag_215:\n        /* \"#utility.yul\":7002:7141   */\n      swap1\n      pop\n        /* \"#utility.yul\":6729:7148   */\n      swap2\n      swap1\n      pop\n      jump\t// out\n        /* \"#utility.yul\":7154:7385   */\n    tag_113:\n        /* \"#utility.yul\":7294:7328   */\n      0x4e6f207265666572656e636520636865636b20726571756573742066726f6d20\n        /* \"#utility.yul\":7290:7291   */\n      0x00\n        /* \"#utility.yul\":7282:7288   */\n      dup3\n        /* \"#utility.yul\":7278:7292   */\n      add\n        /* \"#utility.yul\":7271:7329   */\n      mstore\n        /* \"#utility.yul\":7363:7377   */\n      0x7468697320616464726573730000000000000000000000000000000000000000\n        /* \"#utility.yul\":7358:7360   */\n      0x20\n        /* \"#utility.yul\":7350:7356   */\n      dup3\n        /* \"#utility.yul\":7346:7361   */\n      add\n        /* \"#utility.yul\":7339:7378   */\n      mstore\n        /* \"#utility.yul\":7154:7385   */\n      pop\n      jump\t// out\n        /* \"#utility.yul\":7391:7757   */\n    tag_114:\n        /* \"#utility.yul\":7533:7536   */\n      0x00\n        /* \"#utility.yul\":7554:7621   */\n      tag_218\n        /* \"#utility.yul\":7618:7620   */\n      0x2c\n        /* \"#utility.yul\":7613:7616   */\n      dup4\n        /* \"#utility.yul\":7554:7621   */\n      tag_108\n      jump\t// in\n    tag_218:\n        /* \"#utility.yul\":7547:7621   */\n      swap2\n      pop\n        /* \"#utility.yul\":7630:7723   */\n      tag_219\n        /* \"#utility.yul\":7719:7722   */\n      dup3\n        /* \"#utility.yul\":7630:7723   */\n      tag_113\n      jump\t// in\n    tag_219:\n        /* \"#utility.yul\":7748:7750   */\n      0x40\n        /* \"#utility.yul\":7743:7746   */\n      dup3\n        /* \"#utility.yul\":7739:7751   */\n      add\n        /* \"#utility.yul\":7732:7751   */\n      swap1\n      pop\n        /* \"#utility.yul\":7391:7757   */\n      swap2\n      swap1\n      pop\n      jump\t// out\n        /* \"#utility.yul\":7763:8182   */\n    tag_41:\n        /* \"#utility.yul\":7929:7933   */\n      0x00\n        /* \"#utility.yul\":7967:7969   */\n      0x20\n        /* \"#utility.yul\":7956:7965   */\n      dup3\n        /* \"#utility.yul\":7952:7970   */\n      add\n        /* \"#utility.yul\":7944:7970   */\n      swap1\n      pop\n        /* \"#utility.yul\":8016:8025   */\n      dup2\n        /* \"#utility.yul\":8010:8014   */\n      dup2\n        /* \"#utility.yul\":8006:8026   */\n      sub\n        /* \"#utility.yul\":8002:8003   */\n      0x00\n        /* \"#utility.yul\":7991:8000   */\n      dup4\n        /* \"#utility.yul\":7987:8004   */\n      add\n        /* \"#utility.yul\":7980:8027   */\n      mstore\n        /* \"#utility.yul\":8044:8175   */\n      tag_221\n        /* \"#utility.yul\":8170:8174   */\n      dup2\n        /* \"#utility.yul\":8044:8175   */\n      tag_114\n      jump\t// in\n    tag_221:\n        /* \"#utility.yul\":8036:8175   */\n      swap1\n      pop\n        /* \"#utility.yul\":7763:8182   */\n      swap2\n      swap1\n      pop\n      jump\t// out\n        /* \"#utility.yul\":8188:8508   */\n    tag_43:\n        /* \"#utility.yul\":8303:8307   */\n      0x00\n        /* \"#utility.yul\":8341:8343   */\n      0x40\n        /* \"#utility.yul\":8330:8339   */\n      dup3\n        /* \"#utility.yul\":8326:8344   */\n      add\n        /* \"#utility.yul\":8318:8344   */\n      swap1\n      pop\n        /* \"#utility.yul\":8354:8425   */\n      tag_223\n        /* \"#utility.yul\":8422:8423   */\n      0x00\n        /* \"#utility.yul\":8411:8420   */\n      dup4\n        /* \"#utility.yul\":8407:8424   */\n      add\n        /* \"#utility.yul\":8398:8404   */\n      dup6\n        /* \"#utility.yul\":8354:8425   */\n      tag_96\n      jump\t// in\n    tag_223:\n        /* \"#utility.yul\":8435:8501   */\n      tag_224\n        /* \"#utility.yul\":8497:8499   */\n      0x20\n        /* \"#utility.yul\":8486:8495   */\n      dup4\n        /* \"#utility.yul\":8482:8500   */\n      add\n        /* \"#utility.yul\":8473:8479   */\n      dup5\n        /* \"#utility.yul\":8435:8501   */\n      tag_95\n      jump\t// in\n    tag_224:\n        /* \"#utility.yul\":8188:8508   */\n      swap4\n      swap3\n      pop\n      pop\n      pop\n      jump\t// out\n        /* \"#utility.yul\":8514:8694   */\n    tag_115:\n        /* \"#utility.yul\":8562:8639   */\n      0x4e487b7100000000000000000000000000000000000000000000000000000000\n        /* \"#utility.yul\":8559:8560   */\n      0x00\n        /* \"#utility.yul\":8552:8640   */\n      mstore\n        /* \"#utility.yul\":8659:8663   */\n      0x22\n        /* \"#utility.yul\":8656:8657   */\n      0x04\n        /* \"#utility.yul\":8649:8664   */\n      mstore\n        /* \"#utility.yul\":8683:8687   */\n      0x24\n        /* \"#utility.yul\":8680:8681   */\n      0x00\n        /* \"#utility.yul\":8673:8688   */\n      revert\n        /* \"#utility.yul\":8700:9020   */\n    tag_75:\n        /* \"#utility.yul\":8744:8750   */\n      0x00\n        /* \"#utility.yul\":8781:8782   */\n      0x02\n        /* \"#utility.yul\":8775:8779   */\n      dup3\n        /* \"#utility.yul\":8771:8783   */\n      div\n        /* \"#utility.yul\":8761:8783   */\n      swap1\n      pop\n        /* \"#utility.yul\":8828:8829   */\n      0x01\n        /* \"#utility.yul\":8822:8826   */\n      dup3\n        /* \"#utility.yul\":8818:8830   */\n      and\n        /* \"#utility.yul\":8849:8867   */\n      dup1\n        /* \"#utility.yul\":8839:8920   */\n      tag_227\n      jumpi\n        /* \"#utility.yul\":8905:8909   */\n      0x7f\n        /* \"#utility.yul\":8897:8903   */\n      dup3\n        /* \"#utility.yul\":8893:8910   */\n      and\n        /* \"#utility.yul\":8883:8910   */\n      swap2\n      pop\n        /* \"#utility.yul\":8839:8920   */\n    tag_227:\n        /* \"#utility.yul\":8967:8969   */\n      0x20\n        /* \"#utility.yul\":8959:8965   */\n      dup3\n        /* \"#utility.yul\":8956:8970   */\n      lt\n        /* \"#utility.yul\":8936:8954   */\n      dup2\n        /* \"#utility.yul\":8933:8971   */\n      sub\n        /* \"#utility.yul\":8930:9014   */\n      tag_228\n      jumpi\n        /* \"#utility.yul\":8986:9004   */\n      tag_229\n      tag_115\n      jump\t// in\n    tag_229:\n        /* \"#utility.yul\":8930:9014   */\n    tag_228:\n        /* \"#utility.yul\":8751:9020   */\n      pop\n        /* \"#utility.yul\":8700:9020   */\n      swap2\n      swap1\n      pop\n      jump\t// out\n        /* \"#utility.yul\":9026:9174   */\n    tag_116:\n        /* \"#utility.yul\":9128:9139   */\n      0x00\n        /* \"#utility.yul\":9165:9168   */\n      dup2\n        /* \"#utility.yul\":9150:9168   */\n      swap1\n      pop\n        /* \"#utility.yul\":9026:9174   */\n      swap3\n      swap2\n      pop\n      pop\n      jump\t// out\n        /* \"#utility.yul\":9180:9321   */\n    tag_117:\n        /* \"#utility.yul\":9229:9233   */\n      0x00\n        /* \"#utility.yul\":9252:9255   */\n      dup2\n        /* \"#utility.yul\":9244:9255   */\n      swap1\n      pop\n        /* \"#utility.yul\":9275:9278   */\n      dup2\n        /* \"#utility.yul\":9272:9273   */\n      0x00\n        /* \"#utility.yul\":9265:9279   */\n      mstore\n        /* \"#utility.yul\":9309:9313   */\n      0x20\n        /* \"#utility.yul\":9306:9307   */\n      0x00\n        /* \"#utility.yul\":9296:9314   */\n      keccak256\n        /* \"#utility.yul\":9288:9314   */\n      swap1\n      pop\n        /* \"#utility.yul\":9180:9321   */\n      swap2\n      swap1\n      pop\n      jump\t// out\n        /* \"#utility.yul\":9351:10225   */\n    tag_118:\n        /* \"#utility.yul\":9454:9457   */\n      0x00\n        /* \"#utility.yul\":9491:9496   */\n      dup2\n        /* \"#utility.yul\":9485:9497   */\n      sload\n        /* \"#utility.yul\":9520:9556   */\n      tag_233\n        /* \"#utility.yul\":9546:9555   */\n      dup2\n        /* \"#utility.yul\":9520:9556   */\n      tag_75\n      jump\t// in\n    tag_233:\n        /* \"#utility.yul\":9572:9661   */\n      tag_234\n        /* \"#utility.yul\":9654:9660   */\n      dup2\n        /* \"#utility.yul\":9649:9652   */\n      dup7\n        /* \"#utility.yul\":9572:9661   */\n      tag_116\n      jump\t// in\n    tag_234:\n        /* \"#utility.yul\":9565:9661   */\n      swap5\n      pop\n        /* \"#utility.yul\":9692:9693   */\n      0x01\n        /* \"#utility.yul\":9681:9690   */\n      dup3\n        /* \"#utility.yul\":9677:9694   */\n      and\n        /* \"#utility.yul\":9708:9709   */\n      0x00\n        /* \"#utility.yul\":9703:9869   */\n      dup2\n      eq\n      tag_236\n      jumpi\n        /* \"#utility.yul\":9883:9884   */\n      0x01\n        /* \"#utility.yul\":9878:10219   */\n      dup2\n      eq\n      tag_237\n      jumpi\n        /* \"#utility.yul\":9670:10219   */\n      jump(tag_235)\n        /* \"#utility.yul\":9703:9869   */\n    tag_236:\n        /* \"#utility.yul\":9787:9791   */\n      0xff\n        /* \"#utility.yul\":9783:9792   */\n      not\n        /* \"#utility.yul\":9772:9781   */\n      dup4\n        /* \"#utility.yul\":9768:9793   */\n      and\n        /* \"#utility.yul\":9763:9766   */\n      dup7\n        /* \"#utility.yul\":9756:9794   */\n      mstore\n        /* \"#utility.yul\":9849:9855   */\n      dup2\n        /* \"#utility.yul\":9842:9856   */\n      iszero\n        /* \"#utility.yul\":9835:9857   */\n      iszero\n        /* \"#utility.yul\":9827:9833   */\n      dup3\n        /* \"#utility.yul\":9823:9858   */\n      mul\n        /* \"#utility.yul\":9818:9821   */\n      dup7\n        /* \"#utility.yul\":9814:9859   */\n      add\n        /* \"#utility.yul\":9807:9859   */\n      swap4\n      pop\n        /* \"#utility.yul\":9703:9869   */\n      jump(tag_235)\n        /* \"#utility.yul\":9878:10219   */\n    tag_237:\n        /* \"#utility.yul\":9945:9983   */\n      tag_238\n        /* \"#utility.yul\":9977:9982   */\n      dup6\n        /* \"#utility.yul\":9945:9983   */\n      tag_117\n      jump\t// in\n    tag_238:\n        /* \"#utility.yul\":10005:10006   */\n      0x00\n        /* \"#utility.yul\":10019:10173   */\n    tag_239:\n        /* \"#utility.yul\":10033:10039   */\n      dup4\n        /* \"#utility.yul\":10030:10031   */\n      dup2\n        /* \"#utility.yul\":10027:10040   */\n      lt\n        /* \"#utility.yul\":10019:10173   */\n      iszero\n      tag_241\n      jumpi\n        /* \"#utility.yul\":10107:10114   */\n      dup2\n        /* \"#utility.yul\":10101:10115   */\n      sload\n        /* \"#utility.yul\":10097:10098   */\n      dup2\n        /* \"#utility.yul\":10092:10095   */\n      dup10\n        /* \"#utility.yul\":10088:10099   */\n      add\n        /* \"#utility.yul\":10081:10116   */\n      mstore\n        /* \"#utility.yul\":10157:10158   */\n      0x01\n        /* \"#utility.yul\":10148:10155   */\n      dup3\n        /* \"#utility.yul\":10144:10159   */\n      add\n        /* \"#utility.yul\":10133:10159   */\n      swap2\n      pop\n        /* \"#utility.yul\":10055:10059   */\n      0x20\n        /* \"#utility.yul\":10052:10053   */\n      dup2\n        /* \"#utility.yul\":10048:10060   */\n      add\n        /* \"#utility.yul\":10043:10060   */\n      swap1\n      pop\n        /* \"#utility.yul\":10019:10173   */\n      jump(tag_239)\n    tag_241:\n        /* \"#utility.yul\":10202:10208   */\n      dup4\n        /* \"#utility.yul\":10197:10200   */\n      dup9\n        /* \"#utility.yul\":10193:10209   */\n      add\n        /* \"#utility.yul\":10186:10209   */\n      swap6\n      pop\n        /* \"#utility.yul\":9885:10219   */\n      pop\n      pop\n        /* \"#utility.yul\":9670:10219   */\n    tag_235:\n      pop\n        /* \"#utility.yul\":9458:10225   */\n      pop\n      pop\n        /* \"#utility.yul\":9351:10225   */\n      swap3\n      swap2\n      pop\n      pop\n      jump\t// out\n        /* \"#utility.yul\":10231:10500   */\n    tag_51:\n        /* \"#utility.yul\":10360:10363   */\n      0x00\n        /* \"#utility.yul\":10382:10474   */\n      tag_243\n        /* \"#utility.yul\":10470:10473   */\n      dup3\n        /* \"#utility.yul\":10461:10467   */\n      dup5\n        /* \"#utility.yul\":10382:10474   */\n      tag_118\n      jump\t// in\n    tag_243:\n        /* \"#utility.yul\":10375:10474   */\n      swap2\n      pop\n        /* \"#utility.yul\":10491:10494   */\n      dup2\n        /* \"#utility.yul\":10484:10494   */\n      swap1\n      pop\n        /* \"#utility.yul\":10231:10500   */\n      swap3\n      swap2\n      pop\n      pop\n      jump\t// out\n        /* \"#utility.yul\":10506:10681   */\n    tag_119:\n        /* \"#utility.yul\":10646:10673   */\n      0x496e76616c696420656d706c6f79656520696e7374616e636500000000000000\n        /* \"#utility.yul\":10642:10643   */\n      0x00\n        /* \"#utility.yul\":10634:10640   */\n      dup3\n        /* \"#utility.yul\":10630:10644   */\n      add\n        /* \"#utility.yul\":10623:10674   */\n      mstore\n        /* \"#utility.yul\":10506:10681   */\n      pop\n      jump\t// out\n        /* \"#utility.yul\":10687:11053   */\n    tag_120:\n        /* \"#utility.yul\":10829:10832   */\n      0x00\n        /* \"#utility.yul\":10850:10917   */\n      tag_246\n        /* \"#utility.yul\":10914:10916   */\n      0x19\n        /* \"#utility.yul\":10909:10912   */\n      dup4\n        /* \"#utility.yul\":10850:10917   */\n      tag_108\n      jump\t// in\n    tag_246:\n        /* \"#utility.yul\":10843:10917   */\n      swap2\n      pop\n        /* \"#utility.yul\":10926:11019   */\n      tag_247\n        /* \"#utility.yul\":11015:11018   */\n      dup3\n        /* \"#utility.yul\":10926:11019   */\n      tag_119\n      jump\t// in\n    tag_247:\n        /* \"#utility.yul\":11044:11046   */\n      0x20\n        /* \"#utility.yul\":11039:11042   */\n      dup3\n        /* \"#utility.yul\":11035:11047   */\n      add\n        /* \"#utility.yul\":11028:11047   */\n      swap1\n      pop\n        /* \"#utility.yul\":10687:11053   */\n      swap2\n      swap1\n      pop\n      jump\t// out\n        /* \"#utility.yul\":11059:11478   */\n    tag_55:\n        /* \"#utility.yul\":11225:11229   */\n      0x00\n        /* \"#utility.yul\":11263:11265   */\n      0x20\n        /* \"#utility.yul\":11252:11261   */\n      dup3\n        /* \"#utility.yul\":11248:11266   */\n      add\n        /* \"#utility.yul\":11240:11266   */\n      swap1\n      pop\n        /* \"#utility.yul\":11312:11321   */\n      dup2\n        /* \"#utility.yul\":11306:11310   */\n      dup2\n        /* \"#utility.yul\":11302:11322   */\n      sub\n        /* \"#utility.yul\":11298:11299   */\n      0x00\n        /* \"#utility.yul\":11287:11296   */\n      dup4\n        /* \"#utility.yul\":11283:11300   */\n      add\n        /* \"#utility.yul\":11276:11323   */\n      mstore\n        /* \"#utility.yul\":11340:11471   */\n      tag_249\n        /* \"#utility.yul\":11466:11470   */\n      dup2\n        /* \"#utility.yul\":11340:11471   */\n      tag_120\n      jump\t// in\n    tag_249:\n        /* \"#utility.yul\":11332:11471   */\n      swap1\n      pop\n        /* \"#utility.yul\":11059:11478   */\n      swap2\n      swap1\n      pop\n      jump\t// out\n        /* \"#utility.yul\":11484:11713   */\n    tag_121:\n        /* \"#utility.yul\":11624:11658   */\n      0x596f7520616c7265616479207375626d6974207265666572656e636520636865\n        /* \"#utility.yul\":11620:11621   */\n      0x00\n        /* \"#utility.yul\":11612:11618   */\n      dup3\n        /* \"#utility.yul\":11608:11622   */\n      add\n        /* \"#utility.yul\":11601:11659   */\n      mstore\n        /* \"#utility.yul\":11693:11705   */\n      0x636b207265717565737400000000000000000000000000000000000000000000\n        /* \"#utility.yul\":11688:11690   */\n      0x20\n        /* \"#utility.yul\":11680:11686   */\n      dup3\n        /* \"#utility.yul\":11676:11691   */\n      add\n        /* \"#utility.yul\":11669:11706   */\n      mstore\n        /* \"#utility.yul\":11484:11713   */\n      pop\n      jump\t// out\n        /* \"#utility.yul\":11719:12085   */\n    tag_122:\n        /* \"#utility.yul\":11861:11864   */\n      0x00\n        /* \"#utility.yul\":11882:11949   */\n      tag_252\n        /* \"#utility.yul\":11946:11948   */\n      0x2a\n        /* \"#utility.yul\":11941:11944   */\n      dup4\n        /* \"#utility.yul\":11882:11949   */\n      tag_108\n      jump\t// in\n    tag_252:\n        /* \"#utility.yul\":11875:11949   */\n      swap2\n      pop\n        /* \"#utility.yul\":11958:12051   */\n      tag_253\n        /* \"#utility.yul\":12047:12050   */\n      dup3\n        /* \"#utility.yul\":11958:12051   */\n      tag_121\n      jump\t// in\n    tag_253:\n        /* \"#utility.yul\":12076:12078   */\n      0x40\n        /* \"#utility.yul\":12071:12074   */\n      dup3\n        /* \"#utility.yul\":12067:12079   */\n      add\n        /* \"#utility.yul\":12060:12079   */\n      swap1\n      pop\n        /* \"#utility.yul\":11719:12085   */\n      swap2\n      swap1\n      pop\n      jump\t// out\n        /* \"#utility.yul\":12091:12510   */\n    tag_59:\n        /* \"#utility.yul\":12257:12261   */\n      0x00\n        /* \"#utility.yul\":12295:12297   */\n      0x20\n        /* \"#utility.yul\":12284:12293   */\n      dup3\n        /* \"#utility.yul\":12280:12298   */\n      add\n        /* \"#utility.yul\":12272:12298   */\n      swap1\n      pop\n        /* \"#utility.yul\":12344:12353   */\n      dup2\n        /* \"#utility.yul\":12338:12342   */\n      dup2\n        /* \"#utility.yul\":12334:12354   */\n      sub\n        /* \"#utility.yul\":12330:12331   */\n      0x00\n        /* \"#utility.yul\":12319:12328   */\n      dup4\n        /* \"#utility.yul\":12315:12332   */\n      add\n        /* \"#utility.yul\":12308:12355   */\n      mstore\n        /* \"#utility.yul\":12372:12503   */\n      tag_255\n        /* \"#utility.yul\":12498:12502   */\n      dup2\n        /* \"#utility.yul\":12372:12503   */\n      tag_122\n      jump\t// in\n    tag_255:\n        /* \"#utility.yul\":12364:12503   */\n      swap1\n      pop\n        /* \"#utility.yul\":12091:12510   */\n      swap2\n      swap1\n      pop\n      jump\t// out\n        /* \"#utility.yul\":12516:12609   */\n    tag_123:\n        /* \"#utility.yul\":12553:12559   */\n      0x00\n        /* \"#utility.yul\":12600:12602   */\n      0x20\n        /* \"#utility.yul\":12595:12597   */\n      0x1f\n        /* \"#utility.yul\":12588:12593   */\n      dup4\n        /* \"#utility.yul\":12584:12598   */\n      add\n        /* \"#utility.yul\":12580:12603   */\n      div\n        /* \"#utility.yul\":12570:12603   */\n      swap1\n      pop\n        /* \"#utility.yul\":12516:12609   */\n      swap2\n      swap1\n      pop\n      jump\t// out\n        /* \"#utility.yul\":12615:12722   */\n    tag_124:\n        /* \"#utility.yul\":12659:12667   */\n      0x00\n        /* \"#utility.yul\":12709:12714   */\n      dup3\n        /* \"#utility.yul\":12703:12707   */\n      dup3\n        /* \"#utility.yul\":12699:12715   */\n      shl\n        /* \"#utility.yul\":12678:12715   */\n      swap1\n      pop\n        /* \"#utility.yul\":12615:12722   */\n      swap3\n      swap2\n      pop\n      pop\n      jump\t// out\n        /* \"#utility.yul\":12728:13121   */\n    tag_125:\n        /* \"#utility.yul\":12797:12803   */\n      0x00\n        /* \"#utility.yul\":12847:12848   */\n      0x08\n        /* \"#utility.yul\":12835:12845   */\n      dup4\n        /* \"#utility.yul\":12831:12849   */\n      mul\n        /* \"#utility.yul\":12870:12967   */\n      tag_259\n        /* \"#utility.yul\":12900:12966   */\n      0xffffffffffffffffffffffffffffffffffffffffffffffffffffffffffffffff\n        /* \"#utility.yul\":12889:12898   */\n      dup3\n        /* \"#utility.yul\":12870:12967   */\n      tag_124\n      jump\t// in\n    tag_259:\n        /* \"#utility.yul\":12988:13027   */\n      tag_260\n        /* \"#utility.yul\":13018:13026   */\n      dup7\n        /* \"#utility.yul\":13007:13016   */\n      dup4\n        /* \"#utility.yul\":12988:13027   */\n      tag_124\n      jump\t// in\n    tag_260:\n        /* \"#utility.yul\":12976:13027   */\n      swap6\n      pop\n        /* \"#utility.yul\":13060:13064   */\n      dup1\n        /* \"#utility.yul\":13056:13065   */\n      not\n        /* \"#utility.yul\":13049:13054   */\n      dup5\n        /* \"#utility.yul\":13045:13066   */\n      and\n        /* \"#utility.yul\":13036:13066   */\n      swap4\n      pop\n        /* \"#utility.yul\":13109:13113   */\n      dup1\n        /* \"#utility.yul\":13099:13107   */\n      dup7\n        /* \"#utility.yul\":13095:13114   */\n      and\n        /* \"#utility.yul\":13088:13093   */\n      dup5\n        /* \"#utility.yul\":13085:13115   */\n      or\n        /* \"#utility.yul\":13075:13115   */\n      swap3\n      pop\n        /* \"#utility.yul\":12804:13121   */\n      pop\n      pop\n        /* \"#utility.yul\":12728:13121   */\n      swap4\n      swap3\n      pop\n      pop\n      pop\n      jump\t// out\n        /* \"#utility.yul\":13127:13204   */\n    tag_126:\n        /* \"#utility.yul\":13164:13171   */\n      0x00\n        /* \"#utility.yul\":13193:13198   */\n      dup2\n        /* \"#utility.yul\":13182:13198   */\n      swap1\n      pop\n        /* \"#utility.yul\":13127:13204   */\n      swap2\n      swap1\n      pop\n      jump\t// out\n        /* \"#utility.yul\":13210:13270   */\n    tag_127:\n        /* \"#utility.yul\":13238:13241   */\n      0x00\n        /* \"#utility.yul\":13259:13264   */\n      dup2\n        /* \"#utility.yul\":13252:13264   */\n      swap1\n      pop\n        /* \"#utility.yul\":13210:13270   */\n      swap2\n      swap1\n      pop\n      jump\t// out\n        /* \"#utility.yul\":13276:13418   */\n    tag_128:\n        /* \"#utility.yul\":13326:13335   */\n      0x00\n        /* \"#utility.yul\":13359:13412   */\n      tag_264\n        /* \"#utility.yul\":13377:13411   */\n      tag_265\n        /* \"#utility.yul\":13386:13410   */\n      tag_266\n        /* \"#utility.yul\":13404:13409   */\n      dup5\n        /* \"#utility.yul\":13386:13410   */\n      tag_126\n      jump\t// in\n    tag_266:\n        /* \"#utility.yul\":13377:13411   */\n      tag_127\n      jump\t// in\n    tag_265:\n        /* \"#utility.yul\":13359:13412   */\n      tag_126\n      jump\t// in\n    tag_264:\n        /* \"#utility.yul\":13346:13412   */\n      swap1\n      pop\n        /* \"#utility.yul\":13276:13418   */\n      swap2\n      swap1\n      pop\n      jump\t// out\n        /* \"#utility.yul\":13424:13499   */\n    tag_129:\n        /* \"#utility.yul\":13467:13470   */\n      0x00\n        /* \"#utility.yul\":13488:13493   */\n      dup2\n        /* \"#utility.yul\":13481:13493   */\n      swap1\n      pop\n        /* \"#utility.yul\":13424:13499   */\n      swap2\n      swap1\n      pop\n      jump\t// out\n        /* \"#utility.yul\":13505:13774   */\n    tag_130:\n        /* \"#utility.yul\":13615:13654   */\n      tag_269\n        /* \"#utility.yul\":13646:13653   */\n      dup4\n        /* \"#utility.yul\":13615:13654   */\n      tag_128\n      jump\t// in\n    tag_269:\n        /* \"#utility.yul\":13676:13767   */\n      tag_270\n        /* \"#utility.yul\":13725:13766   */\n      tag_271\n        /* \"#utility.yul\":13749:13765   */\n      dup3\n        /* \"#utility.yul\":13725:13766   */\n      tag_129\n      jump\t// in\n    tag_271:\n        /* \"#utility.yul\":13717:13723   */\n      dup5\n        /* \"#utility.yul\":13710:13714   */\n      dup5\n        /* \"#utility.yul\":13704:13715   */\n      sload\n        /* \"#utility.yul\":13676:13767   */\n      tag_125\n      jump\t// in\n    tag_270:\n        /* \"#utility.yul\":13670:13674   */\n      dup3\n        /* \"#utility.yul\":13663:13768   */\n      sstore\n        /* \"#utility.yul\":13581:13774   */\n      pop\n        /* \"#utility.yul\":13505:13774   */\n      pop\n      pop\n      pop\n      jump\t// out\n        /* \"#utility.yul\":13780:13853   */\n    tag_131:\n        /* \"#utility.yul\":13825:13828   */\n      0x00\n        /* \"#utility.yul\":13780:13853   */\n      swap1\n      jump\t// out\n        /* \"#utility.yul\":13859:14048   */\n    tag_132:\n        /* \"#utility.yul\":13936:13968   */\n      tag_274\n      tag_131\n      jump\t// in\n    tag_274:\n        /* \"#utility.yul\":13977:14042   */\n      tag_275\n        /* \"#utility.yul\":14035:14041   */\n      dup2\n        /* \"#utility.yul\":14027:14033   */\n      dup5\n        /* \"#utility.yul\":14021:14025   */\n      dup5\n        /* \"#utility.yul\":13977:14042   */\n      tag_130\n      jump\t// in\n    tag_275:\n        /* \"#utility.yul\":13912:14048   */\n      pop\n        /* \"#utility.yul\":13859:14048   */\n      pop\n      pop\n      jump\t// out\n        /* \"#utility.yul\":14054:14240   */\n    tag_133:\n        /* \"#utility.yul\":14114:14234   */\n    tag_277:\n        /* \"#utility.yul\":14131:14134   */\n      dup2\n        /* \"#utility.yul\":14124:14129   */\n      dup2\n        /* \"#utility.yul\":14121:14135   */\n      lt\n        /* \"#utility.yul\":14114:14234   */\n      iszero\n      tag_279\n      jumpi\n        /* \"#utility.yul\":14185:14224   */\n      tag_280\n        /* \"#utility.yul\":14222:14223   */\n      0x00\n        /* \"#utility.yul\":14215:14220   */\n      dup3\n        /* \"#utility.yul\":14185:14224   */\n      tag_132\n      jump\t// in\n    tag_280:\n        /* \"#utility.yul\":14158:14159   */\n      0x01\n        /* \"#utility.yul\":14151:14156   */\n      dup2\n        /* \"#utility.yul\":14147:14160   */\n      add\n        /* \"#utility.yul\":14138:14160   */\n      swap1\n      pop\n        /* \"#utility.yul\":14114:14234   */\n      jump(tag_277)\n    tag_279:\n        /* \"#utility.yul\":14054:14240   */\n      pop\n      pop\n      jump\t// out\n        /* \"#utility.yul\":14246:14789   */\n    tag_134:\n        /* \"#utility.yul\":14347:14349   */\n      0x1f\n        /* \"#utility.yul\":14342:14345   */\n      dup3\n        /* \"#utility.yul\":14339:14350   */\n      gt\n        /* \"#utility.yul\":14336:14782   */\n      iszero\n      tag_282\n      jumpi\n        /* \"#utility.yul\":14381:14419   */\n      tag_283\n        /* \"#utility.yul\":14413:14418   */\n      dup2\n        /* \"#utility.yul\":14381:14419   */\n      tag_117\n      jump\t// in\n    tag_283:\n        /* \"#utility.yul\":14465:14494   */\n      tag_284\n        /* \"#utility.yul\":14483:14493   */\n      dup5\n        /* \"#utility.yul\":14465:14494   */\n      tag_123\n      jump\t// in\n    tag_284:\n        /* \"#utility.yul\":14455:14463   */\n      dup2\n        /* \"#utility.yul\":14451:14495   */\n      add\n        /* \"#utility.yul\":14648:14650   */\n      0x20\n        /* \"#utility.yul\":14636:14646   */\n      dup6\n        /* \"#utility.yul\":14633:14651   */\n      lt\n        /* \"#utility.yul\":14630:14679   */\n      iszero\n      tag_285\n      jumpi\n        /* \"#utility.yul\":14669:14677   */\n      dup2\n        /* \"#utility.yul\":14654:14677   */\n      swap1\n      pop\n        /* \"#utility.yul\":14630:14679   */\n    tag_285:\n        /* \"#utility.yul\":14692:14772   */\n      tag_286\n        /* \"#utility.yul\":14748:14770   */\n      tag_287\n        /* \"#utility.yul\":14766:14769   */\n      dup6\n        /* \"#utility.yul\":14748:14770   */\n      tag_123\n      jump\t// in\n    tag_287:\n        /* \"#utility.yul\":14738:14746   */\n      dup4\n        /* \"#utility.yul\":14734:14771   */\n      add\n        /* \"#utility.yul\":14721:14732   */\n      dup3\n        /* \"#utility.yul\":14692:14772   */\n      tag_133\n      jump\t// in\n    tag_286:\n        /* \"#utility.yul\":14351:14782   */\n      pop\n      pop\n        /* \"#utility.yul\":14336:14782   */\n    tag_282:\n        /* \"#utility.yul\":14246:14789   */\n      pop\n      pop\n      pop\n      jump\t// out\n        /* \"#utility.yul\":14795:14912   */\n    tag_135:\n        /* \"#utility.yul\":14849:14857   */\n      0x00\n        /* \"#utility.yul\":14899:14904   */\n      dup3\n        /* \"#utility.yul\":14893:14897   */\n      dup3\n        /* \"#utility.yul\":14889:14905   */\n      shr\n        /* \"#utility.yul\":14868:14905   */\n      swap1\n      pop\n        /* \"#utility.yul\":14795:14912   */\n      swap3\n      swap2\n      pop\n      pop\n      jump\t// out\n        /* \"#utility.yul\":14918:15087   */\n    tag_136:\n        /* \"#utility.yul\":14962:14968   */\n      0x00\n        /* \"#utility.yul\":14995:15046   */\n      tag_290\n        /* \"#utility.yul\":15043:15044   */\n      0x00\n        /* \"#utility.yul\":15039:15045   */\n      not\n        /* \"#utility.yul\":15031:15036   */\n      dup5\n        /* \"#utility.yul\":15028:15029   */\n      0x08\n        /* \"#utility.yul\":15024:15037   */\n      mul\n        /* \"#utility.yul\":14995:15046   */\n      tag_135\n      jump\t// in\n    tag_290:\n        /* \"#utility.yul\":14991:15047   */\n      not\n        /* \"#utility.yul\":15076:15080   */\n      dup1\n        /* \"#utility.yul\":15070:15074   */\n      dup4\n        /* \"#utility.yul\":15066:15081   */\n      and\n        /* \"#utility.yul\":15056:15081   */\n      swap2\n      pop\n        /* \"#utility.yul\":14969:15087   */\n      pop\n        /* \"#utility.yul\":14918:15087   */\n      swap3\n      swap2\n      pop\n      pop\n      jump\t// out\n        /* \"#utility.yul\":15092:15387   */\n    tag_137:\n        /* \"#utility.yul\":15168:15172   */\n      0x00\n        /* \"#utility.yul\":15314:15343   */\n      tag_292\n        /* \"#utility.yul\":15339:15342   */\n      dup4\n        /* \"#utility.yul\":15333:15337   */\n      dup4\n        /* \"#utility.yul\":15314:15343   */\n      tag_136\n      jump\t// in\n    tag_292:\n        /* \"#utility.yul\":15306:15343   */\n      swap2\n      pop\n        /* \"#utility.yul\":15376:15379   */\n      dup3\n        /* \"#utility.yul\":15373:15374   */\n      0x02\n        /* \"#utility.yul\":15369:15380   */\n      mul\n        /* \"#utility.yul\":15363:15367   */\n      dup3\n        /* \"#utility.yul\":15360:15381   */\n      or\n        /* \"#utility.yul\":15352:15381   */\n      swap1\n      pop\n        /* \"#utility.yul\":15092:15387   */\n      swap3\n      swap2\n      pop\n      pop\n      jump\t// out\n        /* \"#utility.yul\":15392:16787   */\n    tag_61:\n        /* \"#utility.yul\":15509:15546   */\n      tag_294\n        /* \"#utility.yul\":15542:15545   */\n      dup3\n        /* \"#utility.yul\":15509:15546   */\n      tag_107\n      jump\t// in\n    tag_294:\n        /* \"#utility.yul\":15611:15629   */\n      0xffffffffffffffff\n        /* \"#utility.yul\":15603:15609   */\n      dup2\n        /* \"#utility.yul\":15600:15630   */\n      gt\n        /* \"#utility.yul\":15597:15653   */\n      iszero\n      tag_295\n      jumpi\n        /* \"#utility.yul\":15633:15651   */\n      tag_296\n      tag_100\n      jump\t// in\n    tag_296:\n        /* \"#utility.yul\":15597:15653   */\n    tag_295:\n        /* \"#utility.yul\":15677:15715   */\n      tag_297\n        /* \"#utility.yul\":15709:15713   */\n      dup3\n        /* \"#utility.yul\":15703:15714   */\n      sload\n        /* \"#utility.yul\":15677:15715   */\n      tag_75\n      jump\t// in\n    tag_297:\n        /* \"#utility.yul\":15762:15829   */\n      tag_298\n        /* \"#utility.yul\":15822:15828   */\n      dup3\n        /* \"#utility.yul\":15814:15820   */\n      dup3\n        /* \"#utility.yul\":15808:15812   */\n      dup6\n        /* \"#utility.yul\":15762:15829   */\n      tag_134\n      jump\t// in\n    tag_298:\n        /* \"#utility.yul\":15856:15857   */\n      0x00\n        /* \"#utility.yul\":15880:15884   */\n      0x20\n        /* \"#utility.yul\":15867:15884   */\n      swap1\n      pop\n        /* \"#utility.yul\":15912:15914   */\n      0x1f\n        /* \"#utility.yul\":15904:15910   */\n      dup4\n        /* \"#utility.yul\":15901:15915   */\n      gt\n        /* \"#utility.yul\":15929:15930   */\n      0x01\n        /* \"#utility.yul\":15924:16542   */\n      dup2\n      eq\n      tag_300\n      jumpi\n        /* \"#utility.yul\":16586:16587   */\n      0x00\n        /* \"#utility.yul\":16603:16609   */\n      dup5\n        /* \"#utility.yul\":16600:16677   */\n      iszero\n      tag_301\n      jumpi\n        /* \"#utility.yul\":16652:16661   */\n      dup3\n        /* \"#utility.yul\":16647:16650   */\n      dup8\n        /* \"#utility.yul\":16643:16662   */\n      add\n        /* \"#utility.yul\":16637:16663   */\n      mload\n        /* \"#utility.yul\":16628:16663   */\n      swap1\n      pop\n        /* \"#utility.yul\":16600:16677   */\n    tag_301:\n        /* \"#utility.yul\":16703:16770   */\n      tag_302\n        /* \"#utility.yul\":16763:16769   */\n      dup6\n        /* \"#utility.yul\":16756:16761   */\n      dup3\n        /* \"#utility.yul\":16703:16770   */\n      tag_137\n      jump\t// in\n    tag_302:\n        /* \"#utility.yul\":16697:16701   */\n      dup7\n        /* \"#utility.yul\":16690:16771   */\n      sstore\n        /* \"#utility.yul\":16559:16781   */\n      pop\n        /* \"#utility.yul\":15894:16781   */\n      jump(tag_299)\n        /* \"#utility.yul\":15924:16542   */\n    tag_300:\n        /* \"#utility.yul\":15976:15980   */\n      0x1f\n        /* \"#utility.yul\":15972:15981   */\n      not\n        /* \"#utility.yul\":15964:15970   */\n      dup5\n        /* \"#utility.yul\":15960:15982   */\n      and\n        /* \"#utility.yul\":16010:16047   */\n      tag_303\n        /* \"#utility.yul\":16042:16046   */\n      dup7\n        /* \"#utility.yul\":16010:16047   */\n      tag_117\n      jump\t// in\n    tag_303:\n        /* \"#utility.yul\":16069:16070   */\n      0x00\n        /* \"#utility.yul\":16083:16291   */\n    tag_304:\n        /* \"#utility.yul\":16097:16104   */\n      dup3\n        /* \"#utility.yul\":16094:16095   */\n      dup2\n        /* \"#utility.yul\":16091:16105   */\n      lt\n        /* \"#utility.yul\":16083:16291   */\n      iszero\n      tag_306\n      jumpi\n        /* \"#utility.yul\":16176:16185   */\n      dup5\n        /* \"#utility.yul\":16171:16174   */\n      dup10\n        /* \"#utility.yul\":16167:16186   */\n      add\n        /* \"#utility.yul\":16161:16187   */\n      mload\n        /* \"#utility.yul\":16153:16159   */\n      dup3\n        /* \"#utility.yul\":16146:16188   */\n      sstore\n        /* \"#utility.yul\":16227:16228   */\n      0x01\n        /* \"#utility.yul\":16219:16225   */\n      dup3\n        /* \"#utility.yul\":16215:16229   */\n      add\n        /* \"#utility.yul\":16205:16229   */\n      swap2\n      pop\n        /* \"#utility.yul\":16274:16276   */\n      0x20\n        /* \"#utility.yul\":16263:16272   */\n      dup6\n        /* \"#utility.yul\":16259:16277   */\n      add\n        /* \"#utility.yul\":16246:16277   */\n      swap5\n      pop\n        /* \"#utility.yul\":16120:16124   */\n      0x20\n        /* \"#utility.yul\":16117:16118   */\n      dup2\n        /* \"#utility.yul\":16113:16125   */\n      add\n        /* \"#utility.yul\":16108:16125   */\n      swap1\n      pop\n        /* \"#utility.yul\":16083:16291   */\n      jump(tag_304)\n    tag_306:\n        /* \"#utility.yul\":16319:16325   */\n      dup7\n        /* \"#utility.yul\":16310:16317   */\n      dup4\n        /* \"#utility.yul\":16307:16326   */\n      lt\n        /* \"#utility.yul\":16304:16483   */\n      iszero\n      tag_307\n      jumpi\n        /* \"#utility.yul\":16377:16386   */\n      dup5\n        /* \"#utility.yul\":16372:16375   */\n      dup10\n        /* \"#utility.yul\":16368:16387   */\n      add\n        /* \"#utility.yul\":16362:16388   */\n      mload\n        /* \"#utility.yul\":16420:16468   */\n      tag_308\n        /* \"#utility.yul\":16462:16466   */\n      0x1f\n        /* \"#utility.yul\":16454:16460   */\n      dup10\n        /* \"#utility.yul\":16450:16467   */\n      and\n        /* \"#utility.yul\":16439:16448   */\n      dup3\n        /* \"#utility.yul\":16420:16468   */\n      tag_136\n      jump\t// in\n    tag_308:\n        /* \"#utility.yul\":16412:16418   */\n      dup4\n        /* \"#utility.yul\":16405:16469   */\n      sstore\n        /* \"#utility.yul\":16327:16483   */\n      pop\n        /* \"#utility.yul\":16304:16483   */\n    tag_307:\n        /* \"#utility.yul\":16529:16530   */\n      0x01\n        /* \"#utility.yul\":16525:16526   */\n      0x02\n        /* \"#utility.yul\":16517:16523   */\n      dup9\n        /* \"#utility.yul\":16513:16527   */\n      mul\n        /* \"#utility.yul\":16509:16531   */\n      add\n        /* \"#utility.yul\":16503:16507   */\n      dup9\n        /* \"#utility.yul\":16496:16532   */\n      sstore\n        /* \"#utility.yul\":15931:16542   */\n      pop\n      pop\n      pop\n        /* \"#utility.yul\":15894:16781   */\n    tag_299:\n      pop\n        /* \"#utility.yul\":15484:16787   */\n      pop\n      pop\n      pop\n        /* \"#utility.yul\":15392:16787   */\n      pop\n      pop\n      jump\t// out\n        /* \"#utility.yul\":16793:16973   */\n    tag_138:\n        /* \"#utility.yul\":16933:16965   */\n      0x4f6e6c7920636f6d70616e79206f776e65722063616e20617070726f76650000\n        /* \"#utility.yul\":16929:16930   */\n      0x00\n        /* \"#utility.yul\":16921:16927   */\n      dup3\n        /* \"#utility.yul\":16917:16931   */\n      add\n        /* \"#utility.yul\":16910:16966   */\n      mstore\n        /* \"#utility.yul\":16793:16973   */\n      pop\n      jump\t// out\n        /* \"#utility.yul\":16979:17345   */\n    tag_139:\n        /* \"#utility.yul\":17121:17124   */\n      0x00\n        /* \"#utility.yul\":17142:17209   */\n      tag_311\n        /* \"#utility.yul\":17206:17208   */\n      0x1e\n        /* \"#utility.yul\":17201:17204   */\n      dup4\n        /* \"#utility.yul\":17142:17209   */\n      tag_108\n      jump\t// in\n    tag_311:\n        /* \"#utility.yul\":17135:17209   */\n      swap2\n      pop\n        /* \"#utility.yul\":17218:17311   */\n      tag_312\n        /* \"#utility.yul\":17307:17310   */\n      dup3\n        /* \"#utility.yul\":17218:17311   */\n      tag_138\n      jump\t// in\n    tag_312:\n        /* \"#utility.yul\":17336:17338   */\n      0x20\n        /* \"#utility.yul\":17331:17334   */\n      dup3\n        /* \"#utility.yul\":17327:17339   */\n      add\n        /* \"#utility.yul\":17320:17339   */\n      swap1\n      pop\n        /* \"#utility.yul\":16979:17345   */\n      swap2\n      swap1\n      pop\n      jump\t// out\n        /* \"#utility.yul\":17351:17770   */\n    tag_65:\n        /* \"#utility.yul\":17517:17521   */\n      0x00\n        /* \"#utility.yul\":17555:17557   */\n      0x20\n        /* \"#utility.yul\":17544:17553   */\n      dup3\n        /* \"#utility.yul\":17540:17558   */\n      add\n        /* \"#utility.yul\":17532:17558   */\n      swap1\n      pop\n        /* \"#utility.yul\":17604:17613   */\n      dup2\n        /* \"#utility.yul\":17598:17602   */\n      dup2\n        /* \"#utility.yul\":17594:17614   */\n      sub\n        /* \"#utility.yul\":17590:17591   */\n      0x00\n        /* \"#utility.yul\":17579:17588   */\n      dup4\n        /* \"#utility.yul\":17575:17592   */\n      add\n        /* \"#utility.yul\":17568:17615   */\n      mstore\n        /* \"#utility.yul\":17632:17763   */\n      tag_314\n        /* \"#utility.yul\":17758:17762   */\n      dup2\n        /* \"#utility.yul\":17632:17763   */\n      tag_139\n      jump\t// in\n    tag_314:\n        /* \"#utility.yul\":17624:17763   */\n      swap1\n      pop\n        /* \"#utility.yul\":17351:17770   */\n      swap2\n      swap1\n      pop\n      jump\t// out\n\n    auxdata: 0xa264697066735822122027fd23c07d7217c01161e5363be1905b44f98f6715f7bec791aba25248c4166864736f6c63430008190033\n}\n","bytecode":{"linkReferences":{},"object":"6080604052348015600e575f80fd5b50335f806101000a81548173ffffffffffffffffffffffffffffffffffffffff021916908373ffffffffffffffffffffffffffffffffffffffff1602179055506111ae8061005b5f395ff3fe608060405234801561000f575f80fd5b5060043610610060575f3560e01c806310e29cf9146100645780635552d07d146100805780638da5cb5b146100b0578063c97edb48146100ce578063daea85c5146100ea578063fb22e65114610106575b5f80fd5b61007e600480360381019061007991906108d3565b610138565b005b61009a600480360381019061009591906108d3565b610305565b6040516100a79190610918565b60405180910390f35b6100b8610395565b6040516100c59190610940565b60405180910390f35b6100e860048036038101906100e39190610a95565b6103b8565b005b61010460048036038101906100ff91906108d3565b61056a565b005b610120600480360381019061011b91906108d3565b610738565b60405161012f93929190610b4f565b60405180910390f35b5f8054906101000a900473ffffffffffffffffffffffffffffffffffffffff1673ffffffffffffffffffffffffffffffffffffffff163373ffffffffffffffffffffffffffffffffffffffff16146101c5576040517f08c379a00000000000000000000000000000000000000000000000000000000081526004016101bc90610bd5565b60405180910390fd5b6101ce81610305565b61020d576040517f08c379a000000000000000000000000000000000000000000000000000000000815260040161020490610c63565b60405180910390fd5b5f8190508073ffffffffffffffffffffffffffffffffffffffff1663b0ee77c8335f6040518363ffffffff1660e01b815260040161024c929190610c81565b5f604051808303815f87803b158015610263575f80fd5b505af1158015610275573d5f803e3d5ffd5b5050505060015f8373ffffffffffffffffffffffffffffffffffffffff1673ffffffffffffffffffffffffffffffffffffffff1681526020019081526020015f205f8082015f6102c59190610810565b600182015f6101000a81549073ffffffffffffffffffffffffffffffffffffffff02191690556001820160146101000a81549060ff021916905550505050565b5f7fc5d2460186f7233c927e7db2dcc703c0e500b653ca82273b7bfad8045d85a47060015f8473ffffffffffffffffffffffffffffffffffffffff1673ffffffffffffffffffffffffffffffffffffffff1681526020019081526020015f205f016040516020016103769190610da1565b6040516020818303038152906040528051906020012014159050919050565b5f8054906101000a900473ffffffffffffffffffffffffffffffffffffffff1681565b5f8290505f8373ffffffffffffffffffffffffffffffffffffffff168273ffffffffffffffffffffffffffffffffffffffff161490508061042e576040517f08c379a000000000000000000000000000000000000000000000000000000000815260040161042590610e01565b60405180910390fd5b61043784610305565b15610477576040517f08c379a000000000000000000000000000000000000000000000000000000000815260040161046e90610e8f565b60405180910390fd5b60405180606001604052808481526020018573ffffffffffffffffffffffffffffffffffffffff1681526020015f151581525060015f8673ffffffffffffffffffffffffffffffffffffffff1673ffffffffffffffffffffffffffffffffffffffff1681526020019081526020015f205f820151815f0190816104fa9190611041565b506020820151816001015f6101000a81548173ffffffffffffffffffffffffffffffffffffffff021916908373ffffffffffffffffffffffffffffffffffffffff16021790555060408201518160010160146101000a81548160ff02191690831515021790555090505050505050565b5f8054906101000a900473ffffffffffffffffffffffffffffffffffffffff1673ffffffffffffffffffffffffffffffffffffffff163373ffffffffffffffffffffffffffffffffffffffff16146105f7576040517f08c379a00000000000000000000000000000000000000000000000000000000081526004016105ee9061115a565b60405180910390fd5b61060081610305565b61063f576040517f08c379a000000000000000000000000000000000000000000000000000000000815260040161063690610c63565b60405180910390fd5b5f8190508073ffffffffffffffffffffffffffffffffffffffff1663b0ee77c83360016040518363ffffffff1660e01b815260040161067f929190610c81565b5f604051808303815f87803b158015610696575f80fd5b505af11580156106a8573d5f803e3d5ffd5b5050505060015f8373ffffffffffffffffffffffffffffffffffffffff1673ffffffffffffffffffffffffffffffffffffffff1681526020019081526020015f205f8082015f6106f89190610810565b600182015f6101000a81549073ffffffffffffffffffffffffffffffffffffffff02191690556001820160146101000a81549060ff021916905550505050565b6001602052805f5260405f205f91509050805f01805461075790610cd5565b80601f016020809104026020016040519081016040528092919081815260200182805461078390610cd5565b80156107ce5780601f106107a5576101008083540402835291602001916107ce565b820191905f5260205f20905b8154815290600101906020018083116107b157829003601f168201915b505050505090806001015f9054906101000a900473ffffffffffffffffffffffffffffffffffffffff16908060010160149054906101000a900460ff16905083565b50805461081c90610cd5565b5f825580601f1061082d575061084a565b601f0160209004905f5260205f2090810190610849919061084d565b5b50565b5b80821115610864575f815f90555060010161084e565b5090565b5f604051905090565b5f80fd5b5f80fd5b5f73ffffffffffffffffffffffffffffffffffffffff82169050919050565b5f6108a282610879565b9050919050565b6108b281610898565b81146108bc575f80fd5b50565b5f813590506108cd816108a9565b92915050565b5f602082840312156108e8576108e7610871565b5b5f6108f5848285016108bf565b91505092915050565b5f8115159050919050565b610912816108fe565b82525050565b5f60208201905061092b5f830184610909565b92915050565b61093a81610898565b82525050565b5f6020820190506109535f830184610931565b92915050565b5f80fd5b5f80fd5b5f601f19601f8301169050919050565b7f4e487b71000000000000000000000000000000000000000000000000000000005f52604160045260245ffd5b6109a782610961565b810181811067ffffffffffffffff821117156109c6576109c5610971565b5b80604052505050565b5f6109d8610868565b90506109e4828261099e565b919050565b5f67ffffffffffffffff821115610a0357610a02610971565b5b610a0c82610961565b9050602081019050919050565b828183375f83830152505050565b5f610a39610a34846109e9565b6109cf565b905082815260208101848484011115610a5557610a5461095d565b5b610a60848285610a19565b509392505050565b5f82601f830112610a7c57610a7b610959565b5b8135610a8c848260208601610a27565b91505092915050565b5f8060408385031215610aab57610aaa610871565b5b5f610ab8858286016108bf565b925050602083013567ffffffffffffffff811115610ad957610ad8610875565b5b610ae585828601610a68565b9150509250929050565b5f81519050919050565b5f82825260208201905092915050565b8281835e5f83830152505050565b5f610b2182610aef565b610b2b8185610af9565b9350610b3b818560208601610b09565b610b4481610961565b840191505092915050565b5f6060820190508181035f830152610b678186610b17565b9050610b766020830185610931565b610b836040830184610909565b949350505050565b7f4f6e6c7920636f6d70616e79206f776e65722063616e206465636c696e6500005f82015250565b5f610bbf601e83610af9565b9150610bca82610b8b565b602082019050919050565b5f6020820190508181035f830152610bec81610bb3565b9050919050565b7f4e6f207265666572656e636520636865636b20726571756573742066726f6d205f8201527f7468697320616464726573730000000000000000000000000000000000000000602082015250565b5f610c4d602c83610af9565b9150610c5882610bf3565b604082019050919050565b5f6020820190508181035f830152610c7a81610c41565b9050919050565b5f604082019050610c945f830185610931565b610ca16020830184610909565b9392505050565b7f4e487b71000000000000000000000000000000000000000000000000000000005f52602260045260245ffd5b5f6002820490506001821680610cec57607f821691505b602082108103610cff57610cfe610ca8565b5b50919050565b5f81905092915050565b5f819050815f5260205f209050919050565b5f8154610d2d81610cd5565b610d378186610d05565b9450600182165f8114610d515760018114610d6657610d98565b60ff1983168652811515820286019350610d98565b610d6f85610d0f565b5f5b83811015610d9057815481890152600182019150602081019050610d71565b838801955050505b50505092915050565b5f610dac8284610d21565b915081905092915050565b7f496e76616c696420656d706c6f79656520696e7374616e6365000000000000005f82015250565b5f610deb601983610af9565b9150610df682610db7565b602082019050919050565b5f6020820190508181035f830152610e1881610ddf565b9050919050565b7f596f7520616c7265616479207375626d6974207265666572656e6365206368655f8201527f636b207265717565737400000000000000000000000000000000000000000000602082015250565b5f610e79602a83610af9565b9150610e8482610e1f565b604082019050919050565b5f6020820190508181035f830152610ea681610e6d565b9050919050565b5f6020601f8301049050919050565b5f82821b905092915050565b5f60088302610ef77fffffffffffffffffffffffffffffffffffffffffffffffffffffffffffffffff82610ebc565b610f018683610ebc565b95508019841693508086168417925050509392505050565b5f819050919050565b5f819050919050565b5f610f45610f40610f3b84610f19565b610f22565b610f19565b9050919050565b5f819050919050565b610f5e83610f2b565b610f72610f6a82610f4c565b848454610ec8565b825550505050565b5f90565b610f86610f7a565b610f91818484610f55565b505050565b5b81811015610fb457610fa95f82610f7e565b600181019050610f97565b5050565b601f821115610ff957610fca81610d0f565b610fd384610ead565b81016020851015610fe2578190505b610ff6610fee85610ead565b830182610f96565b50505b505050565b5f82821c905092915050565b5f6110195f1984600802610ffe565b1980831691505092915050565b5f611031838361100a565b9150826002028217905092915050565b61104a82610aef565b67ffffffffffffffff81111561106357611062610971565b5b61106d8254610cd5565b611078828285610fb8565b5f60209050601f8311600181146110a9575f8415611097578287015190505b6110a18582611026565b865550611108565b601f1984166110b786610d0f565b5f5b828110156110de578489015182556001820191506020850194506020810190506110b9565b868310156110fb57848901516110f7601f89168261100a565b8355505b6001600288020188555050505b505050505050565b7f4f6e6c7920636f6d70616e79206f776e65722063616e20617070726f766500005f82015250565b5f611144601e83610af9565b915061114f82611110565b602082019050919050565b5f6020820190508181035f83015261117181611138565b905091905056fea264697066735822122027fd23c07d7217c01161e5363be1905b44f98f6715f7bec791aba25248c4166864736f6c63430008190033","opcodes":"PUSH1 0x80 PUSH1 0x40 MSTORE CALLVALUE DUP1 ISZERO PUSH1 0xE JUMPI PUSH0 DUP1 REVERT JUMPDEST POP CALLER PUSH0 DUP1 PUSH2 0x100 EXP DUP2 SLOAD DUP2 PUSH20 0xFFFFFFFFFFFFFFFFFFFFFFFFFFFFFFFFFFFFFFFF MUL NOT AND SWAP1 DUP4 PUSH20 0xFFFFFFFFFFFFFFFFFFFFFFFFFFFFFFFFFFFFFFFF AND MUL OR SWAP1 SSTORE POP PUSH2 0x11AE DUP1 PUSH2 0x5B PUSH0 CODECOPY PUSH0 RETURN INVALID PUSH1 0x80 PUSH1 0x40 MSTORE CALLVALUE DUP1 ISZERO PUSH2 0xF JUMPI PUSH0 DUP1 REVERT JUMPDEST POP PUSH1 0x4 CALLDATASIZE LT PUSH2 0x60 JUMPI PUSH0 CALLDATALOAD PUSH1 0xE0 SHR DUP1 PUSH4 0x10E29CF9 EQ PUSH2 0x64 JUMPI DUP1 PUSH4 0x5552D07D EQ PUSH2 0x80 JUMPI DUP1 PUSH4 0x8DA5CB5B EQ PUSH2 0xB0 JUMPI DUP1 PUSH4 0xC97EDB48 EQ PUSH2 0xCE JUMPI DUP1 PUSH4 0xDAEA85C5 EQ PUSH2 0xEA JUMPI DUP1 PUSH4 0xFB22E651 EQ PUSH2 0x106 JUMPI JUMPDEST PUSH0 DUP1 REVERT JUMPDEST PUSH2 0x7E PUSH1 0x4 DUP1 CALLDATASIZE SUB DUP2 ADD SWAP1 PUSH2 0x79 SWAP2 SWAP1 PUSH2 0x8D3 JUMP JUMPDEST PUSH2 0x138 JUMP JUMPDEST STOP JUMPDEST PUSH2 0x9A PUSH1 0x4 DUP1 CALLDATASIZE SUB DUP2 ADD SWAP1 PUSH2 0x95 SWAP2 SWAP1 PUSH2 0x8D3 JUMP JUMPDEST PUSH2 0x305 JUMP JUMPDEST PUSH1 0x40 MLOAD PUSH2 0xA7 SWAP2 SWAP1 PUSH2 0x918 JUMP JUMPDEST PUSH1 0x40 MLOAD DUP1 SWAP2 SUB SWAP1 RETURN JUMPDEST PUSH2 0xB8 PUSH2 0x395 JUMP JUMPDEST PUSH1 0x40 MLOAD PUSH2 0xC5 SWAP2 SWAP1 PUSH2 0x940 JUMP JUMPDEST PUSH1 0x40 MLOAD DUP1 SWAP2 SUB SWAP1 RETURN JUMPDEST PUSH2 0xE8 PUSH1 0x4 DUP1 CALLDATASIZE SUB DUP2 ADD SWAP1 PUSH2 0xE3 SWAP2 SWAP1 PUSH2 0xA95 JUMP JUMPDEST PUSH2 0x3B8 JUMP JUMPDEST STOP JUMPDEST PUSH2 0x104 PUSH1 0x4 DUP1 CALLDATASIZE SUB DUP2 ADD SWAP1 PUSH2 0xFF SWAP2 SWAP1 PUSH2 0x8D3 JUMP JUMPDEST PUSH2 0x56A JUMP JUMPDEST STOP JUMPDEST PUSH2 0x120 PUSH1 0x4 DUP1 CALLDATASIZE SUB DUP2 ADD SWAP1 PUSH2 0x11B SWAP2 SWAP1 PUSH2 0x8D3 JUMP JUMPDEST PUSH2 0x738 JUMP JUMPDEST PUSH1 0x40 MLOAD PUSH2 0x12F SWAP4 SWAP3 SWAP2 SWAP1 PUSH2 0xB4F JUMP JUMPDEST PUSH1 0x40 MLOAD DUP1 SWAP2 SUB SWAP1 RETURN JUMPDEST PUSH0 DUP1 SLOAD SWAP1 PUSH2 0x100 EXP SWAP1 DIV PUSH20 0xFFFFFFFFFFFFFFFFFFFFFFFFFFFFFFFFFFFFFFFF AND PUSH20 0xFFFFFFFFFFFFFFFFFFFFFFFFFFFFFFFFFFFFFFFF AND CALLER PUSH20 0xFFFFFFFFFFFFFFFFFFFFFFFFFFFFFFFFFFFFFFFF AND EQ PUSH2 0x1C5 JUMPI PUSH1 0x40 MLOAD PUSH32 0x8C379A000000000000000000000000000000000000000000000000000000000 DUP2 MSTORE PUSH1 0x4 ADD PUSH2 0x1BC SWAP1 PUSH2 0xBD5 JUMP JUMPDEST PUSH1 0x40 MLOAD DUP1 SWAP2 SUB SWAP1 REVERT JUMPDEST PUSH2 0x1CE DUP2 PUSH2 0x305 JUMP JUMPDEST PUSH2 0x20D JUMPI PUSH1 0x40 MLOAD PUSH32 0x8C379A000000000000000000000000000000000000000000000000000000000 DUP2 MSTORE PUSH1 0x4 ADD PUSH2 0x204 SWAP1 PUSH2 0xC63 JUMP JUMPDEST PUSH1 0x40 MLOAD DUP1 SWAP2 SUB SWAP1 REVERT JUMPDEST PUSH0 DUP2 SWAP1 POP DUP1 PUSH20 0xFFFFFFFFFFFFFFFFFFFFFFFFFFFFFFFFFFFFFFFF AND PUSH4 0xB0EE77C8 CALLER PUSH0 PUSH1 0x40 MLOAD DUP4 PUSH4 0xFFFFFFFF AND PUSH1 0xE0 SHL DUP2 MSTORE PUSH1 0x4 ADD PUSH2 0x24C SWAP3 SWAP2 SWAP1 PUSH2 0xC81 JUMP JUMPDEST PUSH0 PUSH1 0x40 MLOAD DUP1 DUP4 SUB DUP2 PUSH0 DUP8 DUP1 EXTCODESIZE ISZERO DUP1 ISZERO PUSH2 0x263 JUMPI PUSH0 DUP1 REVERT JUMPDEST POP GAS CALL ISZERO DUP1 ISZERO PUSH2 0x275 JUMPI RETURNDATASIZE PUSH0 DUP1 RETURNDATACOPY RETURNDATASIZE PUSH0 REVERT JUMPDEST POP POP POP POP PUSH1 0x1 PUSH0 DUP4 PUSH20 0xFFFFFFFFFFFFFFFFFFFFFFFFFFFFFFFFFFFFFFFF AND PUSH20 0xFFFFFFFFFFFFFFFFFFFFFFFFFFFFFFFFFFFFFFFF AND DUP2 MSTORE PUSH1 0x20 ADD SWAP1 DUP2 MSTORE PUSH1 0x20 ADD PUSH0 KECCAK256 PUSH0 DUP1 DUP3 ADD PUSH0 PUSH2 0x2C5 SWAP2 SWAP1 PUSH2 0x810 JUMP JUMPDEST PUSH1 0x1 DUP3 ADD PUSH0 PUSH2 0x100 EXP DUP2 SLOAD SWAP1 PUSH20 0xFFFFFFFFFFFFFFFFFFFFFFFFFFFFFFFFFFFFFFFF MUL NOT AND SWAP1 SSTORE PUSH1 0x1 DUP3 ADD PUSH1 0x14 PUSH2 0x100 EXP DUP2 SLOAD SWAP1 PUSH1 0xFF MUL NOT AND SWAP1 SSTORE POP POP POP POP JUMP JUMPDEST PUSH0 PUSH32 0xC5D2460186F7233C927E7DB2DCC703C0E500B653CA82273B7BFAD8045D85A470 PUSH1 0x1 PUSH0 DUP5 PUSH20 0xFFFFFFFFFFFFFFFFFFFFFFFFFFFFFFFFFFFFFFFF AND PUSH20 0xFFFFFFFFFFFFFFFFFFFFFFFFFFFFFFFFFFFFFFFF AND DUP2 MSTORE PUSH1 0x20 ADD SWAP1 DUP2 MSTORE PUSH1 0x20 ADD PUSH0 KECCAK256 PUSH0 ADD PUSH1 0x40 MLOAD PUSH1 0x20 ADD PUSH2 0x376 SWAP2 SWAP1 PUSH2 0xDA1 JUMP JUMPDEST PUSH1 0x40 MLOAD PUSH1 0x20 DUP2 DUP4 SUB SUB DUP2 MSTORE SWAP1 PUSH1 0x40 MSTORE DUP1 MLOAD SWAP1 PUSH1 0x20 ADD KECCAK256 EQ ISZERO SWAP1 POP SWAP2 SWAP1 POP JUMP JUMPDEST PUSH0 DUP1 SLOAD SWAP1 PUSH2 0x100 EXP SWAP1 DIV PUSH20 0xFFFFFFFFFFFFFFFFFFFFFFFFFFFFFFFFFFFFFFFF AND DUP2 JUMP JUMPDEST PUSH0 DUP3 SWAP1 POP PUSH0 DUP4 PUSH20 0xFFFFFFFFFFFFFFFFFFFFFFFFFFFFFFFFFFFFFFFF AND DUP3 PUSH20 0xFFFFFFFFFFFFFFFFFFFFFFFFFFFFFFFFFFFFFFFF AND EQ SWAP1 POP DUP1 PUSH2 0x42E JUMPI PUSH1 0x40 MLOAD PUSH32 0x8C379A000000000000000000000000000000000000000000000000000000000 DUP2 MSTORE PUSH1 0x4 ADD PUSH2 0x425 SWAP1 PUSH2 0xE01 JUMP JUMPDEST PUSH1 0x40 MLOAD DUP1 SWAP2 SUB SWAP1 REVERT JUMPDEST PUSH2 0x437 DUP5 PUSH2 0x305 JUMP JUMPDEST ISZERO PUSH2 0x477 JUMPI PUSH1 0x40 MLOAD PUSH32 0x8C379A000000000000000000000000000000000000000000000000000000000 DUP2 MSTORE PUSH1 0x4 ADD PUSH2 0x46E SWAP1 PUSH2 0xE8F JUMP JUMPDEST PUSH1 0x40 MLOAD DUP1 SWAP2 SUB SWAP1 REVERT JUMPDEST PUSH1 0x40 MLOAD DUP1 PUSH1 0x60 ADD PUSH1 0x40 MSTORE DUP1 DUP5 DUP2 MSTORE PUSH1 0x20 ADD DUP6 PUSH20 0xFFFFFFFFFFFFFFFFFFFFFFFFFFFFFFFFFFFFFFFF AND DUP2 MSTORE PUSH1 0x20 ADD PUSH0 ISZERO ISZERO DUP2 MSTORE POP PUSH1 0x1 PUSH0 DUP7 PUSH20 0xFFFFFFFFFFFFFFFFFFFFFFFFFFFFFFFFFFFFFFFF AND PUSH20 0xFFFFFFFFFFFFFFFFFFFFFFFFFFFFFFFFFFFFFFFF AND DUP2 MSTORE PUSH1 0x20 ADD SWAP1 DUP2 MSTORE PUSH1 0x20 ADD PUSH0 KECCAK256 PUSH0 DUP3 ADD MLOAD DUP2 PUSH0 ADD SWAP1 DUP2 PUSH2 0x4FA SWAP2 SWAP1 PUSH2 0x1041 JUMP JUMPDEST POP PUSH1 0x20 DUP3 ADD MLOAD DUP2 PUSH1 0x1 ADD PUSH0 PUSH2 0x100 EXP DUP2 SLOAD DUP2 PUSH20 0xFFFFFFFFFFFFFFFFFFFFFFFFFFFFFFFFFFFFFFFF MUL NOT AND SWAP1 DUP4 PUSH20 0xFFFFFFFFFFFFFFFFFFFFFFFFFFFFFFFFFFFFFFFF AND MUL OR SWAP1 SSTORE POP PUSH1 0x40 DUP3 ADD MLOAD DUP2 PUSH1 0x1 ADD PUSH1 0x14 PUSH2 0x100 EXP DUP2 SLOAD DUP2 PUSH1 0xFF MUL NOT AND SWAP1 DUP4 ISZERO ISZERO MUL OR SWAP1 SSTORE POP SWAP1 POP POP POP POP POP POP JUMP JUMPDEST PUSH0 DUP1 SLOAD SWAP1 PUSH2 0x100 EXP SWAP1 DIV PUSH20 0xFFFFFFFFFFFFFFFFFFFFFFFFFFFFFFFFFFFFFFFF AND PUSH20 0xFFFFFFFFFFFFFFFFFFFFFFFFFFFFFFFFFFFFFFFF AND CALLER PUSH20 0xFFFFFFFFFFFFFFFFFFFFFFFFFFFFFFFFFFFFFFFF AND EQ PUSH2 0x5F7 JUMPI PUSH1 0x40 MLOAD PUSH32 0x8C379A000000000000000000000000000000000000000000000000000000000 DUP2 MSTORE PUSH1 0x4 ADD PUSH2 0x5EE SWAP1 PUSH2 0x115A JUMP JUMPDEST PUSH1 0x40 MLOAD DUP1 SWAP2 SUB SWAP1 REVERT JUMPDEST PUSH2 0x600 DUP2 PUSH2 0x305 JUMP JUMPDEST PUSH2 0x63F JUMPI PUSH1 0x40 MLOAD PUSH32 0x8C379A000000000000000000000000000000000000000000000000000000000 DUP2 MSTORE PUSH1 0x4 ADD PUSH2 0x636 SWAP1 PUSH2 0xC63 JUMP JUMPDEST PUSH1 0x40 MLOAD DUP1 SWAP2 SUB SWAP1 REVERT JUMPDEST PUSH0 DUP2 SWAP1 POP DUP1 PUSH20 0xFFFFFFFFFFFFFFFFFFFFFFFFFFFFFFFFFFFFFFFF AND PUSH4 0xB0EE77C8 CALLER PUSH1 0x1 PUSH1 0x40 MLOAD DUP4 PUSH4 0xFFFFFFFF AND PUSH1 0xE0 SHL DUP2 MSTORE PUSH1 0x4 ADD PUSH2 0x67F SWAP3 SWAP2 SWAP1 PUSH2 0xC81 JUMP JUMPDEST PUSH0 PUSH1 0x40 MLOAD DUP1 DUP4 SUB DUP2 PUSH0 DUP8 DUP1 EXTCODESIZE ISZERO DUP1 ISZERO PUSH2 0x696 JUMPI PUSH0 DUP1 REVERT JUMPDEST POP GAS CALL ISZERO DUP1 ISZERO PUSH2 0x6A8 JUMPI RETURNDATASIZE PUSH0 DUP1 RETURNDATACOPY RETURNDATASIZE PUSH0 REVERT JUMPDEST POP POP POP POP PUSH1 0x1 PUSH0 DUP4 PUSH20 0xFFFFFFFFFFFFFFFFFFFFFFFFFFFFFFFFFFFFFFFF AND PUSH20 0xFFFFFFFFFFFFFFFFFFFFFFFFFFFFFFFFFFFFFFFF AND DUP2 MSTORE PUSH1 0x20 ADD SWAP1 DUP2 MSTORE PUSH1 0x20 ADD PUSH0 KECCAK256 PUSH0 DUP1 DUP3 ADD PUSH0 PUSH2 0x6F8 SWAP2 SWAP1 PUSH2 0x810 JUMP JUMPDEST PUSH1 0x1 DUP3 ADD PUSH0 PUSH2 0x100 EXP DUP2 SLOAD SWAP1 PUSH20 0xFFFFFFFFFFFFFFFFFFFFFFFFFFFFFFFFFFFFFFFF MUL NOT AND SWAP1 SSTORE PUSH1 0x1 DUP3 ADD PUSH1 0x14 PUSH2 0x100 EXP DUP2 SLOAD SWAP1 PUSH1 0xFF MUL NOT AND SWAP1 SSTORE POP POP POP POP JUMP JUMPDEST PUSH1 0x1 PUSH1 0x20 MSTORE DUP1 PUSH0 MSTORE PUSH1 0x40 PUSH0 KECCAK256 PUSH0 SWAP2 POP SWAP1 POP DUP1 PUSH0 ADD DUP1 SLOAD PUSH2 0x757 SWAP1 PUSH2 0xCD5 JUMP JUMPDEST DUP1 PUSH1 0x1F ADD PUSH1 0x20 DUP1 SWAP2 DIV MUL PUSH1 0x20 ADD PUSH1 0x40 MLOAD SWAP1 DUP2 ADD PUSH1 0x40 MSTORE DUP1 SWAP3 SWAP2 SWAP1 DUP2 DUP2 MSTORE PUSH1 0x20 ADD DUP3 DUP1 SLOAD PUSH2 0x783 SWAP1 PUSH2 0xCD5 JUMP JUMPDEST DUP1 ISZERO PUSH2 0x7CE JUMPI DUP1 PUSH1 0x1F LT PUSH2 0x7A5 JUMPI PUSH2 0x100 DUP1 DUP4 SLOAD DIV MUL DUP4 MSTORE SWAP2 PUSH1 0x20 ADD SWAP2 PUSH2 0x7CE JUMP JUMPDEST DUP3 ADD SWAP2 SWAP1 PUSH0 MSTORE PUSH1 0x20 PUSH0 KECCAK256 SWAP1 JUMPDEST DUP2 SLOAD DUP2 MSTORE SWAP1 PUSH1 0x1 ADD SWAP1 PUSH1 0x20 ADD DUP1 DUP4 GT PUSH2 0x7B1 JUMPI DUP3 SWAP1 SUB PUSH1 0x1F AND DUP3 ADD SWAP2 JUMPDEST POP POP POP POP POP SWAP1 DUP1 PUSH1 0x1 ADD PUSH0 SWAP1 SLOAD SWAP1 PUSH2 0x100 EXP SWAP1 DIV PUSH20 0xFFFFFFFFFFFFFFFFFFFFFFFFFFFFFFFFFFFFFFFF AND SWAP1 DUP1 PUSH1 0x1 ADD PUSH1 0x14 SWAP1 SLOAD SWAP1 PUSH2 0x100 EXP SWAP1 DIV PUSH1 0xFF AND SWAP1 POP DUP4 JUMP JUMPDEST POP DUP1 SLOAD PUSH2 0x81C SWAP1 PUSH2 0xCD5 JUMP JUMPDEST PUSH0 DUP3 SSTORE DUP1 PUSH1 0x1F LT PUSH2 0x82D JUMPI POP PUSH2 0x84A JUMP JUMPDEST PUSH1 0x1F ADD PUSH1 0x20 SWAP1 DIV SWAP1 PUSH0 MSTORE PUSH1 0x20 PUSH0 KECCAK256 SWAP1 DUP2 ADD SWAP1 PUSH2 0x849 SWAP2 SWAP1 PUSH2 0x84D JUMP JUMPDEST JUMPDEST POP JUMP JUMPDEST JUMPDEST DUP1 DUP3 GT ISZERO PUSH2 0x864 JUMPI PUSH0 DUP2 PUSH0 SWAP1 SSTORE POP PUSH1 0x1 ADD PUSH2 0x84E JUMP JUMPDEST POP SWAP1 JUMP JUMPDEST PUSH0 PUSH1 0x40 MLOAD SWAP1 POP SWAP1 JUMP JUMPDEST PUSH0 DUP1 REVERT JUMPDEST PUSH0 DUP1 REVERT JUMPDEST PUSH0 PUSH20 0xFFFFFFFFFFFFFFFFFFFFFFFFFFFFFFFFFFFFFFFF DUP3 AND SWAP1 POP SWAP2 SWAP1 POP JUMP JUMPDEST PUSH0 PUSH2 0x8A2 DUP3 PUSH2 0x879 JUMP JUMPDEST SWAP1 POP SWAP2 SWAP1 POP JUMP JUMPDEST PUSH2 0x8B2 DUP2 PUSH2 0x898 JUMP JUMPDEST DUP2 EQ PUSH2 0x8BC JUMPI PUSH0 DUP1 REVERT JUMPDEST POP JUMP JUMPDEST PUSH0 DUP2 CALLDATALOAD SWAP1 POP PUSH2 0x8CD DUP2 PUSH2 0x8A9 JUMP JUMPDEST SWAP3 SWAP2 POP POP JUMP JUMPDEST PUSH0 PUSH1 0x20 DUP3 DUP5 SUB SLT ISZERO PUSH2 0x8E8 JUMPI PUSH2 0x8E7 PUSH2 0x871 JUMP JUMPDEST JUMPDEST PUSH0 PUSH2 0x8F5 DUP5 DUP3 DUP6 ADD PUSH2 0x8BF JUMP JUMPDEST SWAP2 POP POP SWAP3 SWAP2 POP POP JUMP JUMPDEST PUSH0 DUP2 ISZERO ISZERO SWAP1 POP SWAP2 SWAP1 POP JUMP JUMPDEST PUSH2 0x912 DUP2 PUSH2 0x8FE JUMP JUMPDEST DUP3 MSTORE POP POP JUMP JUMPDEST PUSH0 PUSH1 0x20 DUP3 ADD SWAP1 POP PUSH2 0x92B PUSH0 DUP4 ADD DUP5 PUSH2 0x909 JUMP JUMPDEST SWAP3 SWAP2 POP POP JUMP JUMPDEST PUSH2 0x93A DUP2 PUSH2 0x898 JUMP JUMPDEST DUP3 MSTORE POP POP JUMP JUMPDEST PUSH0 PUSH1 0x20 DUP3 ADD SWAP1 POP PUSH2 0x953 PUSH0 DUP4 ADD DUP5 PUSH2 0x931 JUMP JUMPDEST SWAP3 SWAP2 POP POP JUMP JUMPDEST PUSH0 DUP1 REVERT JUMPDEST PUSH0 DUP1 REVERT JUMPDEST PUSH0 PUSH1 0x1F NOT PUSH1 0x1F DUP4 ADD AND SWAP1 POP SWAP2 SWAP1 POP JUMP JUMPDEST PUSH32 0x4E487B7100000000000000000000000000000000000000000000000000000000 PUSH0 MSTORE PUSH1 0x41 PUSH1 0x4 MSTORE PUSH1 0x24 PUSH0 REVERT JUMPDEST PUSH2 0x9A7 DUP3 PUSH2 0x961 JUMP JUMPDEST DUP2 ADD DUP2 DUP2 LT PUSH8 0xFFFFFFFFFFFFFFFF DUP3 GT OR ISZERO PUSH2 0x9C6 JUMPI PUSH2 0x9C5 PUSH2 0x971 JUMP JUMPDEST JUMPDEST DUP1 PUSH1 0x40 MSTORE POP POP POP JUMP JUMPDEST PUSH0 PUSH2 0x9D8 PUSH2 0x868 JUMP JUMPDEST SWAP1 POP PUSH2 0x9E4 DUP3 DUP3 PUSH2 0x99E JUMP JUMPDEST SWAP2 SWAP1 POP JUMP JUMPDEST PUSH0 PUSH8 0xFFFFFFFFFFFFFFFF DUP3 GT ISZERO PUSH2 0xA03 JUMPI PUSH2 0xA02 PUSH2 0x971 JUMP JUMPDEST JUMPDEST PUSH2 0xA0C DUP3 PUSH2 0x961 JUMP JUMPDEST SWAP1 POP PUSH1 0x20 DUP2 ADD SWAP1 POP SWAP2 SWAP1 POP JUMP JUMPDEST DUP3 DUP2 DUP4 CALLDATACOPY PUSH0 DUP4 DUP4 ADD MSTORE POP POP POP JUMP JUMPDEST PUSH0 PUSH2 0xA39 PUSH2 0xA34 DUP5 PUSH2 0x9E9 JUMP JUMPDEST PUSH2 0x9CF JUMP JUMPDEST SWAP1 POP DUP3 DUP2 MSTORE PUSH1 0x20 DUP2 ADD DUP5 DUP5 DUP5 ADD GT ISZERO PUSH2 0xA55 JUMPI PUSH2 0xA54 PUSH2 0x95D JUMP JUMPDEST JUMPDEST PUSH2 0xA60 DUP5 DUP3 DUP6 PUSH2 0xA19 JUMP JUMPDEST POP SWAP4 SWAP3 POP POP POP JUMP JUMPDEST PUSH0 DUP3 PUSH1 0x1F DUP4 ADD SLT PUSH2 0xA7C JUMPI PUSH2 0xA7B PUSH2 0x959 JUMP JUMPDEST JUMPDEST DUP2 CALLDATALOAD PUSH2 0xA8C DUP5 DUP3 PUSH1 0x20 DUP7 ADD PUSH2 0xA27 JUMP JUMPDEST SWAP2 POP POP SWAP3 SWAP2 POP POP JUMP JUMPDEST PUSH0 DUP1 PUSH1 0x40 DUP4 DUP6 SUB SLT ISZERO PUSH2 0xAAB JUMPI PUSH2 0xAAA PUSH2 0x871 JUMP JUMPDEST JUMPDEST PUSH0 PUSH2 0xAB8 DUP6 DUP3 DUP7 ADD PUSH2 0x8BF JUMP JUMPDEST SWAP3 POP POP PUSH1 0x20 DUP4 ADD CALLDATALOAD PUSH8 0xFFFFFFFFFFFFFFFF DUP2 GT ISZERO PUSH2 0xAD9 JUMPI PUSH2 0xAD8 PUSH2 0x875 JUMP JUMPDEST JUMPDEST PUSH2 0xAE5 DUP6 DUP3 DUP7 ADD PUSH2 0xA68 JUMP JUMPDEST SWAP2 POP POP SWAP3 POP SWAP3 SWAP1 POP JUMP JUMPDEST PUSH0 DUP2 MLOAD SWAP1 POP SWAP2 SWAP1 POP JUMP JUMPDEST PUSH0 DUP3 DUP3 MSTORE PUSH1 0x20 DUP3 ADD SWAP1 POP SWAP3 SWAP2 POP POP JUMP JUMPDEST DUP3 DUP2 DUP4 MCOPY PUSH0 DUP4 DUP4 ADD MSTORE POP POP POP JUMP JUMPDEST PUSH0 PUSH2 0xB21 DUP3 PUSH2 0xAEF JUMP JUMPDEST PUSH2 0xB2B DUP2 DUP6 PUSH2 0xAF9 JUMP JUMPDEST SWAP4 POP PUSH2 0xB3B DUP2 DUP6 PUSH1 0x20 DUP7 ADD PUSH2 0xB09 JUMP JUMPDEST PUSH2 0xB44 DUP2 PUSH2 0x961 JUMP JUMPDEST DUP5 ADD SWAP2 POP POP SWAP3 SWAP2 POP POP JUMP JUMPDEST PUSH0 PUSH1 0x60 DUP3 ADD SWAP1 POP DUP2 DUP2 SUB PUSH0 DUP4 ADD MSTORE PUSH2 0xB67 DUP2 DUP7 PUSH2 0xB17 JUMP JUMPDEST SWAP1 POP PUSH2 0xB76 PUSH1 0x20 DUP4 ADD DUP6 PUSH2 0x931 JUMP JUMPDEST PUSH2 0xB83 PUSH1 0x40 DUP4 ADD DUP5 PUSH2 0x909 JUMP JUMPDEST SWAP5 SWAP4 POP POP POP POP JUMP JUMPDEST PUSH32 0x4F6E6C7920636F6D70616E79206F776E65722063616E206465636C696E650000 PUSH0 DUP3 ADD MSTORE POP JUMP JUMPDEST PUSH0 PUSH2 0xBBF PUSH1 0x1E DUP4 PUSH2 0xAF9 JUMP JUMPDEST SWAP2 POP PUSH2 0xBCA DUP3 PUSH2 0xB8B JUMP JUMPDEST PUSH1 0x20 DUP3 ADD SWAP1 POP SWAP2 SWAP1 POP JUMP JUMPDEST PUSH0 PUSH1 0x20 DUP3 ADD SWAP1 POP DUP2 DUP2 SUB PUSH0 DUP4 ADD MSTORE PUSH2 0xBEC DUP2 PUSH2 0xBB3 JUMP JUMPDEST SWAP1 POP SWAP2 SWAP1 POP JUMP JUMPDEST PUSH32 0x4E6F207265666572656E636520636865636B20726571756573742066726F6D20 PUSH0 DUP3 ADD MSTORE PUSH32 0x7468697320616464726573730000000000000000000000000000000000000000 PUSH1 0x20 DUP3 ADD MSTORE POP JUMP JUMPDEST PUSH0 PUSH2 0xC4D PUSH1 0x2C DUP4 PUSH2 0xAF9 JUMP JUMPDEST SWAP2 POP PUSH2 0xC58 DUP3 PUSH2 0xBF3 JUMP JUMPDEST PUSH1 0x40 DUP3 ADD SWAP1 POP SWAP2 SWAP1 POP JUMP JUMPDEST PUSH0 PUSH1 0x20 DUP3 ADD SWAP1 POP DUP2 DUP2 SUB PUSH0 DUP4 ADD MSTORE PUSH2 0xC7A DUP2 PUSH2 0xC41 JUMP JUMPDEST SWAP1 POP SWAP2 SWAP1 POP JUMP JUMPDEST PUSH0 PUSH1 0x40 DUP3 ADD SWAP1 POP PUSH2 0xC94 PUSH0 DUP4 ADD DUP6 PUSH2 0x931 JUMP JUMPDEST PUSH2 0xCA1 PUSH1 0x20 DUP4 ADD DUP5 PUSH2 0x909 JUMP JUMPDEST SWAP4 SWAP3 POP POP POP JUMP JUMPDEST PUSH32 0x4E487B7100000000000000000000000000000000000000000000000000000000 PUSH0 MSTORE PUSH1 0x22 PUSH1 0x4 MSTORE PUSH1 0x24 PUSH0 REVERT JUMPDEST PUSH0 PUSH1 0x2 DUP3 DIV SWAP1 POP PUSH1 0x1 DUP3 AND DUP1 PUSH2 0xCEC JUMPI PUSH1 0x7F DUP3 AND SWAP2 POP JUMPDEST PUSH1 0x20 DUP3 LT DUP2 SUB PUSH2 0xCFF JUMPI PUSH2 0xCFE PUSH2 0xCA8 JUMP JUMPDEST JUMPDEST POP SWAP2 SWAP1 POP JUMP JUMPDEST PUSH0 DUP2 SWAP1 POP SWAP3 SWAP2 POP POP JUMP JUMPDEST PUSH0 DUP2 SWAP1 POP DUP2 PUSH0 MSTORE PUSH1 0x20 PUSH0 KECCAK256 SWAP1 POP SWAP2 SWAP1 POP JUMP JUMPDEST PUSH0 DUP2 SLOAD PUSH2 0xD2D DUP2 PUSH2 0xCD5 JUMP JUMPDEST PUSH2 0xD37 DUP2 DUP7 PUSH2 0xD05 JUMP JUMPDEST SWAP5 POP PUSH1 0x1 DUP3 AND PUSH0 DUP2 EQ PUSH2 0xD51 JUMPI PUSH1 0x1 DUP2 EQ PUSH2 0xD66 JUMPI PUSH2 0xD98 JUMP JUMPDEST PUSH1 0xFF NOT DUP4 AND DUP7 MSTORE DUP2 ISZERO ISZERO DUP3 MUL DUP7 ADD SWAP4 POP PUSH2 0xD98 JUMP JUMPDEST PUSH2 0xD6F DUP6 PUSH2 0xD0F JUMP JUMPDEST PUSH0 JUMPDEST DUP4 DUP2 LT ISZERO PUSH2 0xD90 JUMPI DUP2 SLOAD DUP2 DUP10 ADD MSTORE PUSH1 0x1 DUP3 ADD SWAP2 POP PUSH1 0x20 DUP2 ADD SWAP1 POP PUSH2 0xD71 JUMP JUMPDEST DUP4 DUP9 ADD SWAP6 POP POP POP JUMPDEST POP POP POP SWAP3 SWAP2 POP POP JUMP JUMPDEST PUSH0 PUSH2 0xDAC DUP3 DUP5 PUSH2 0xD21 JUMP JUMPDEST SWAP2 POP DUP2 SWAP1 POP SWAP3 SWAP2 POP POP JUMP JUMPDEST PUSH32 0x496E76616C696420656D706C6F79656520696E7374616E636500000000000000 PUSH0 DUP3 ADD MSTORE POP JUMP JUMPDEST PUSH0 PUSH2 0xDEB PUSH1 0x19 DUP4 PUSH2 0xAF9 JUMP JUMPDEST SWAP2 POP PUSH2 0xDF6 DUP3 PUSH2 0xDB7 JUMP JUMPDEST PUSH1 0x20 DUP3 ADD SWAP1 POP SWAP2 SWAP1 POP JUMP JUMPDEST PUSH0 PUSH1 0x20 DUP3 ADD SWAP1 POP DUP2 DUP2 SUB PUSH0 DUP4 ADD MSTORE PUSH2 0xE18 DUP2 PUSH2 0xDDF JUMP JUMPDEST SWAP1 POP SWAP2 SWAP1 POP JUMP JUMPDEST PUSH32 0x596F7520616C7265616479207375626D6974207265666572656E636520636865 PUSH0 DUP3 ADD MSTORE PUSH32 0x636B207265717565737400000000000000000000000000000000000000000000 PUSH1 0x20 DUP3 ADD MSTORE POP JUMP JUMPDEST PUSH0 PUSH2 0xE79 PUSH1 0x2A DUP4 PUSH2 0xAF9 JUMP JUMPDEST SWAP2 POP PUSH2 0xE84 DUP3 PUSH2 0xE1F JUMP JUMPDEST PUSH1 0x40 DUP3 ADD SWAP1 POP SWAP2 SWAP1 POP JUMP JUMPDEST PUSH0 PUSH1 0x20 DUP3 ADD SWAP1 POP DUP2 DUP2 SUB PUSH0 DUP4 ADD MSTORE PUSH2 0xEA6 DUP2 PUSH2 0xE6D JUMP JUMPDEST SWAP1 POP SWAP2 SWAP1 POP JUMP JUMPDEST PUSH0 PUSH1 0x20 PUSH1 0x1F DUP4 ADD DIV SWAP1 POP SWAP2 SWAP1 POP JUMP JUMPDEST PUSH0 DUP3 DUP3 SHL SWAP1 POP SWAP3 SWAP2 POP POP JUMP JUMPDEST PUSH0 PUSH1 0x8 DUP4 MUL PUSH2 0xEF7 PUSH32 0xFFFFFFFFFFFFFFFFFFFFFFFFFFFFFFFFFFFFFFFFFFFFFFFFFFFFFFFFFFFFFFFF DUP3 PUSH2 0xEBC JUMP JUMPDEST PUSH2 0xF01 DUP7 DUP4 PUSH2 0xEBC JUMP JUMPDEST SWAP6 POP DUP1 NOT DUP5 AND SWAP4 POP DUP1 DUP7 AND DUP5 OR SWAP3 POP POP POP SWAP4 SWAP3 POP POP POP JUMP JUMPDEST PUSH0 DUP2 SWAP1 POP SWAP2 SWAP1 POP JUMP JUMPDEST PUSH0 DUP2 SWAP1 POP SWAP2 SWAP1 POP JUMP JUMPDEST PUSH0 PUSH2 0xF45 PUSH2 0xF40 PUSH2 0xF3B DUP5 PUSH2 0xF19 JUMP JUMPDEST PUSH2 0xF22 JUMP JUMPDEST PUSH2 0xF19 JUMP JUMPDEST SWAP1 POP SWAP2 SWAP1 POP JUMP JUMPDEST PUSH0 DUP2 SWAP1 POP SWAP2 SWAP1 POP JUMP JUMPDEST PUSH2 0xF5E DUP4 PUSH2 0xF2B JUMP JUMPDEST PUSH2 0xF72 PUSH2 0xF6A DUP3 PUSH2 0xF4C JUMP JUMPDEST DUP5 DUP5 SLOAD PUSH2 0xEC8 JUMP JUMPDEST DUP3 SSTORE POP POP POP POP JUMP JUMPDEST PUSH0 SWAP1 JUMP JUMPDEST PUSH2 0xF86 PUSH2 0xF7A JUMP JUMPDEST PUSH2 0xF91 DUP2 DUP5 DUP5 PUSH2 0xF55 JUMP JUMPDEST POP POP POP JUMP JUMPDEST JUMPDEST DUP2 DUP2 LT ISZERO PUSH2 0xFB4 JUMPI PUSH2 0xFA9 PUSH0 DUP3 PUSH2 0xF7E JUMP JUMPDEST PUSH1 0x1 DUP2 ADD SWAP1 POP PUSH2 0xF97 JUMP JUMPDEST POP POP JUMP JUMPDEST PUSH1 0x1F DUP3 GT ISZERO PUSH2 0xFF9 JUMPI PUSH2 0xFCA DUP2 PUSH2 0xD0F JUMP JUMPDEST PUSH2 0xFD3 DUP5 PUSH2 0xEAD JUMP JUMPDEST DUP2 ADD PUSH1 0x20 DUP6 LT ISZERO PUSH2 0xFE2 JUMPI DUP2 SWAP1 POP JUMPDEST PUSH2 0xFF6 PUSH2 0xFEE DUP6 PUSH2 0xEAD JUMP JUMPDEST DUP4 ADD DUP3 PUSH2 0xF96 JUMP JUMPDEST POP POP JUMPDEST POP POP POP JUMP JUMPDEST PUSH0 DUP3 DUP3 SHR SWAP1 POP SWAP3 SWAP2 POP POP JUMP JUMPDEST PUSH0 PUSH2 0x1019 PUSH0 NOT DUP5 PUSH1 0x8 MUL PUSH2 0xFFE JUMP JUMPDEST NOT DUP1 DUP4 AND SWAP2 POP POP SWAP3 SWAP2 POP POP JUMP JUMPDEST PUSH0 PUSH2 0x1031 DUP4 DUP4 PUSH2 0x100A JUMP JUMPDEST SWAP2 POP DUP3 PUSH1 0x2 MUL DUP3 OR SWAP1 POP SWAP3 SWAP2 POP POP JUMP JUMPDEST PUSH2 0x104A DUP3 PUSH2 0xAEF JUMP JUMPDEST PUSH8 0xFFFFFFFFFFFFFFFF DUP2 GT ISZERO PUSH2 0x1063 JUMPI PUSH2 0x1062 PUSH2 0x971 JUMP JUMPDEST JUMPDEST PUSH2 0x106D DUP3 SLOAD PUSH2 0xCD5 JUMP JUMPDEST PUSH2 0x1078 DUP3 DUP3 DUP6 PUSH2 0xFB8 JUMP JUMPDEST PUSH0 PUSH1 0x20 SWAP1 POP PUSH1 0x1F DUP4 GT PUSH1 0x1 DUP2 EQ PUSH2 0x10A9 JUMPI PUSH0 DUP5 ISZERO PUSH2 0x1097 JUMPI DUP3 DUP8 ADD MLOAD SWAP1 POP JUMPDEST PUSH2 0x10A1 DUP6 DUP3 PUSH2 0x1026 JUMP JUMPDEST DUP7 SSTORE POP PUSH2 0x1108 JUMP JUMPDEST PUSH1 0x1F NOT DUP5 AND PUSH2 0x10B7 DUP7 PUSH2 0xD0F JUMP JUMPDEST PUSH0 JUMPDEST DUP3 DUP2 LT ISZERO PUSH2 0x10DE JUMPI DUP5 DUP10 ADD MLOAD DUP3 SSTORE PUSH1 0x1 DUP3 ADD SWAP2 POP PUSH1 0x20 DUP6 ADD SWAP5 POP PUSH1 0x20 DUP2 ADD SWAP1 POP PUSH2 0x10B9 JUMP JUMPDEST DUP7 DUP4 LT ISZERO PUSH2 0x10FB JUMPI DUP5 DUP10 ADD MLOAD PUSH2 0x10F7 PUSH1 0x1F DUP10 AND DUP3 PUSH2 0x100A JUMP JUMPDEST DUP4 SSTORE POP JUMPDEST PUSH1 0x1 PUSH1 0x2 DUP9 MUL ADD DUP9 SSTORE POP POP POP JUMPDEST POP POP POP POP POP POP JUMP JUMPDEST PUSH32 0x4F6E6C7920636F6D70616E79206F776E65722063616E20617070726F76650000 PUSH0 DUP3 ADD MSTORE POP JUMP JUMPDEST PUSH0 PUSH2 0x1144 PUSH1 0x1E DUP4 PUSH2 0xAF9 JUMP JUMPDEST SWAP2 POP PUSH2 0x114F DUP3 PUSH2 0x1110 JUMP JUMPDEST PUSH1 0x20 DUP3 ADD SWAP1 POP SWAP2 SWAP1 POP JUMP JUMPDEST PUSH0 PUSH1 0x20 DUP3 ADD SWAP1 POP DUP2 DUP2 SUB PUSH0 DUP4 ADD MSTORE PUSH2 0x1171 DUP2 PUSH2 0x1138 JUMP JUMPDEST SWAP1 POP SWAP2 SWAP1 POP JUMP INVALID LOG2 PUSH5 0x6970667358 0x22 SLT KECCAK256 0x27 REVERT 0x23 0xC0 PUSH30 0x7217C01161E5363BE1905B44F98F6715F7BEC791ABA25248C4166864736F PUSH13 0x63430008190033000000000000 "},"gasEstimates":{"creation":{"codeDepositCost":"905200","executionCost":"25205","totalCost":"930405"},"external":{"approve(address)":"infinite","decline(address)":"infinite","isKeyExists(address)":"infinite","newRequest(address,string)":"infinite","owner()":"2527","pendingRequests(address)":"infinite"}},"methodIdentifiers":{"approve(address)":"daea85c5","decline(address)":"10e29cf9","isKeyExists(address)":"5552d07d","newRequest(address,string)":"c97edb48","owner()":"8da5cb5b","pendingRequests(address)":"fb22e651"}},"storageLayout":{"storage":[{"astId":88,"contract":"Employee.sol:Employer","label":"owner","offset":0,"slot":"0","type":"t_address"},{"astId":100,"contract":"Employee.sol:Employer","label":"pendingRequests","offset":0,"slot":"1","type":"t_mapping(t_address,t_struct(ReferenceCheckRequest)95_storage)"}],"types":{"t_address":{"encoding":"inplace","label":"address","numberOfBytes":"20"},"t_bool":{"encoding":"inplace","label":"bool","numberOfBytes":"1"},"t_mapping(t_address,t_struct(ReferenceCheckRequest)95_storage)":{"encoding":"mapping","key":"t_address","label":"mapping(address => struct Employer.ReferenceCheckRequest)","numberOfBytes":"32","value":"t_struct(ReferenceCheckRequest)95_storage"},"t_string_storage":{"encoding":"bytes","label":"string","numberOfBytes":"32"},"t_struct(ReferenceCheckRequest)95_storage":{"encoding":"inplace","label":"struct Employer.ReferenceCheckRequest","members":[{"astId":90,"contract":"Employee.sol:Employer","label":"_nullifier_hash","offset":0,"slot":"0","type":"t_string_storage"},{"astId":92,"contract":"Employee.sol:Employer","label":"_employee","offset":0,"slot":"1","type":"t_address"},{"astId":94,"contract":"Employee.sol:Employer","label":"_verified","offset":20,"slot":"1","type":"t_bool"}],"numberOfBytes":"64"}}},"userdoc":{"kind":"user","methods":{},"version":1}}